:100000000C94680C0C94990C0C94990C0C94990C0D
:100010000C94990C0C94681A0C94990C0C94990CEF
:100020000C94990C0C94771A0C9455650C949F1AA7
:100030000C94990C0C94990C0C94990C0C94990CAC
:100040000C94990C0C94990C0C94990C0C94990C9C
:100050000C94990C0C94990C0C94990C0C949FA9E9
:100060000C94990C0C942FA40C9465A40C94990CEA
:100070000C94990C0C94990C0C94990C0C94990C6C
:100080000C94990C0C94990C0C94990C0C94990C5C
:100090000C94990C0C94990C0C94990C0C94648EFF
:1000A0000C94990C0C94990C0C94990C0C94990C3C
:1000B0000C94990C0C94990C0C94990C0C94591A5E
:1000C0000C94990C0C94990C0C94990C0C94C6A457
:1000D0000C94FCA40C94990C0C945DA50C9493A521
:1000E0000C94990C07634236B79BD8A71A39685607
:1000F00018AEBAAB558C1D3CB7CC5763BD6DEDFD4A
:10010000753EF6177231BF000000803F0800000006
:10011000BE922449123EABAAAA2ABECDCCCC4C3EFC
:1001200000000080BEABAAAAAA3E00000000BF00EB
:100130000000803F0000000000084178D3BB4387E7
:10014000D1133D190E3CC3BD4282AD2B3E68EC82FB
:1001500076BED98FE1A93E4C80EFFFBE01C4FF7F80
:100160003F00000000000C94E4AA0C9400AB0C9437
:100170004B330C94F08F0C948FA40C94BDA50C946D
:10018000AA8F0C94138C0C94D5A20C94AA330C94C3
:100190002D8C0C9424AB0C94C9A20C94C78F0C9496
:1001A0001A8C0C94A3330C94B9330C94FA8B0C94E2
:1001B000F6AA0C948B930C9499A40C9420AB0C94F9
:1001C000C7900C9466330C940AAB0C94E3A20C9485
:1001D000C1330C94C7A50C94948F0C94A5960C94E1
:1001E000678C0C940F9E0C943C8C0C94F4A50C948E
:1001F00026A50C94678D0C94E8AA0C94F6840C94B4
:10020000F2AA0C94F7A20C9418AB0C947DA30C9456
:1002100004AB0C9430A50C9406A30C9412AB0C9474
:100220005B330C94738C0C943D8C0C94A28C0C94CA
:10023000FCAA0C94108C0C949B330C9494330C9467
:100240005DA30C940EAB0C94E68F0C94AC960C94BE
:100250008A330C94ECAA0C947A900C9423AB0C94F3
:10026000B2330C94F4900C941CAB0C94DEAA63642F
:10027000696E6F70737578585B0000407A10F35A9E
:1002800000A0724E18090010A5D4E80000E87648D6
:10029000170000E40B54020000CA9A3B000000E182
:1002A000F505000080969800000040420F00000015
:1002B000A08601000000102700000000E8030000F5
:1002C00000006400000000000A00000000000100BF
:1002D000000000002C76D888DC674F0823DFC1DFE0
:1002E000AE59E1B1B796E5E3E453C63AE6519976E3
:1002F00096E8E6C28426EB898C9B62ED407C6FFC1D
:10030000EFBC9C9F40F2BAA56FA5F490055A2AF75E
:100310005C936B6CF9676DC11BFCE0E40D47FEF567
:1003200020E6B500D0ED902E0300943577050080CF
:10033000841E080000204E0A000000C80C3333332E
:10034000330F986E12831141EF8D2114893BE655CE
:1003500016CFFEE6DB18D1844B381BF77C1D901DB1
:10036000A4BBE424203284725E228100C9F124EC13
:10037000A1E53D27CDCCCC3D0AD7233C17B7D138DA
:1003800077CC2B329595E6241FB14F0A000020410F
:100390000000C84200401C4620BCBE4CCA1B0E5A7E
:1003A000AEC59D7443686172676520446F6E6520B9
:1003B0000046617374204368617267652000507263
:1003C000652D636861726765202000446973636806
:1003D000617267652020200046696C65204E6F744D
:1003E000204F70656E65642E2E2E2E00202020205A
:1003F00020202020202020202020202020202020FD
:1004000020202020202020202020202020202020EC
:1004100020004641494C004F4B00446F776E6C6F93
:100420006164696E67204669726D776172652E2E10
:100430002E202020202020202020202020202000CE
:1004400020202020202020202020202020202020AC
:10045000202020202020202020202020202020209C
:1004600020202020200046696C65204E6F742045B6
:10047000786973742E2E2E2E00202020202020201C
:10048000202020202020202020202020202020206C
:100490002020202020202020202020202020004656
:1004A000696C6520457869737420616E64204465C9
:1004B0006C657465642E2E2E2E00202020202020B6
:1004C000202020202020202020202020202020202C
:1004D000202020202020202020202020202020003C
:1004E000436F6E6E656374696E6720746F20536529
:1004F000727665722E2E2E20202020202020202093
:10050000202020202000202020202020202020200B
:1005100020202020202020202020202020202020DB
:1005200020202020202020202020200020202020EB
:1005300020202020202020202020202020202020BB
:1005400020202020202020202020202020202020AB
:100550002000436C6F73696E6720536F636B657423
:100560002E2E2E2020202020202020202020202061
:10057000202020202020200020202020202020209B
:10058000202020202020202020202020202020206B
:10059000202020202020202020202020200020207B
:1005A00020202000526573706F6E7365202D2D3EE4
:1005B000205B2020205D20202020202020202020C3
:1005C000202020202020202020002020202020204B
:1005D000202020202020202020202020202020201B
:1005E000202020202020202020202020202020002B
:1005F00047657474696E6720526573706F6E7365BA
:100600002E2E2E20202020202020202020202020C0
:1006100020202020200020202020202020202020FA
:1006200020202020202020202020202020202020CA
:1006300020202020202020202020200057616974C5
:10064000696E6720526573706F6E73652E2E2E2053
:10065000202020202020202020202020202020209A
:1006600020002020202020202020202020202020AA
:10067000202020202020202020202020202020207A
:10068000202020202020200053656E64696E6720A2
:100690005061636B2E2E2E20202020202020202031
:1006A000202020202020202020202020200020206A
:1006B000202020202020202020202020202020203A
:1006C000202020202020202020202020202020202A
:1006D0002020200050617273696E67204A534F4E8C
:1006E000205061636B2E2E2E2020202020202020E1
:1006F000202020202020202020002020202020201A
:1007000020202020202020202020202020202020E9
:1007100020202020202020202020202020202000F9
:10072000436F6E6E656374696E6720746F205365E6
:10073000727665722E2E2E20202020202020202050
:1007400020202020200020202020202020202020C9
:100750002020202020202020202020202020202099
:1007600020202020202020202020200020202020A9
:100770002020202020202020202020202020202079
:100780002020202020202020202020202020202069
:100790002000202020202020202020202020202079
:1007A0002020202020202020202020202020202049
:1007B00020202020202020005570646174696E671D
:1007C0002052544320436C6F636B2E2E2E0020204A
:1007D0002020202020202020202020202020202019
:1007E0002020202020202020202020202020202009
:1007F0002020200041542B43434C4B005B20202001
:10080000205D0020202020202020202020202020CB
:1008100020202020202020202020202020202020D8
:100820002020202020202020005043425F480050FC
:1008300043425F54005061796C6F61640043656CA2
:100840006C5F4944004C41430054414300436F6E88
:100850006E54696D65005744530052535349004923
:100860004343494400494D4549004669726D7761EB
:10087000726500496F5400425F435300425F540069
:10088000425F534F4300425F464300425F4943008B
:10089000425F414300425F495600506F77657200E6
:1008A000446576696365004669726D7761726500BB
:1008B00049440054696D655374616D7000556E6BE9
:1008C0006E6F776E00436F6D6D616E6400464F54BE
:1008D000415F446F776E6C6F616400436F6D6D6153
:1008E0006E64004F66666C696E6500436F6D6D6186
:1008F0006E6400416C61726D00436F6D6D616E647A
:1009000000496E7465727275707400436F6D6D612D
:100910006E640054696D656400436F6D6D616E6453
:100920000055706461746500436F6D6D616E6400A5
:100930004F6E6C696E6500436F6D6D616E6400494A
:100940006E666F00202020202020202020202020E4
:100950002020202020202020202020202020202097
:100960002020202020202020200041542B575334C9
:10097000363F002020202020202020202020202062
:100980002020202020202020202020202020202067
:100990002020202020202020004154234D4F4E496C
:1009A0000020202020202020202020202020202067
:1009B0002020202020202020202020202020202037
:1009C000202020202020004669726D77617265200A
:1009D000446F776E6C6F61642E2E2E0020202020D5
:1009E0002020202020202020202020202020202007
:1009F00020202020202020202020202020202020F7
:100A00002000526573657474696E672E2E2E002067
:100A100020202020202020202020202020202020D6
:100A200020202020202020202020202020202020C6
:100A30002020202000526573706F6E7365202D2D6D
:100A40003E205B2020205D00202020202020202030
:100A50002020202020202020202020202020202096
:100A6000202020202020202020202020200052652F
:100A700063696576696E67204D6573736167652E7E
:100A80002E2E00202020202020202020202020206A
:100A90002020202020202020202020202020202056
:100AA0002020202020202020002020202020202066
:100AB0002020202020202020202020202020202036
:100AC0002020202020202020202020202020002046
:100AD0002020202020202020202020202020202016
:100AE0002020202020202020202020202020202006
:100AF000202020200053656E64696E672052657364
:100B0000706F6E73652E2E2E002020202020202056
:100B100020202020202020202020202020202020D5
:100B200020202020202020202020202020200052B3
:100B30006573706F6E7365002020202020202020B8
:100B400020202020202020202020202020202020A5
:100B500020202020202020202020202020002020B5
:100B60002020202020202020202020202020202085
:100B70002020202020202020202020202020202075
:100B80002020200020202020202020202020202085
:100B90002020202020202020202020202020202055
:100BA000202020202020202020002020204C69739D
:100BB00074656E696E6720202000202050656E6489
:100BC000696E672044617461200020202053757392
:100BD00070656E64656420202000416374697665E9
:100BE000205472616E736665720020202020436C71
:100BF0006F73656420202020200041542353533D0F
:100C00002A00415423534C3D2A2C302C38302C32AE
:100C100035350020202020202020202020202020CA
:100C200020202020202020202020202020202020C4
:100C30002020202020202020002020204C697374B8
:100C4000656E696E6720202000202050656E646903
:100C50006E672044617461200020202053757370FA
:100C6000656E6465642020200041637469766520A8
:100C70005472616E736665720020202020436C6F91
:100C800073656420202020200041542353533D2AC3
:100C900000415423534C3D2A2C312C38302C323512
:100CA000350041542353533D32005B202020205D0A
:100CB0000020202020202020202020202020202054
:100CC0002020202020202020202020202020202024
:100CD0002020202020200020202020202020202034
:100CE0002020202020202020202020202020202004
:100CF00020202020202020202020202000415423BC
:100D000049434D503D31004154234652574C3D31EB
:100D10002C2A2A2A004154234652574C3D312C2A72
:100D20002A2A004154234652574C3D312C2A2A2A64
:100D3000004154234652574C3D32005B2020202076
:100D40005D00202020202020202020202020202086
:100D50002020202020202020202020202020202093
:100D600020202020202020002020202020202020A3
:100D70002020202020202020202020202020202073
:100D8000202020202020202020202020200041542E
:100D900023534346474558543D322C312C302C3197
:100DA0002C302C3000415423534346473D322C31E4
:100DB0002C313530302C39302C3330302C3530005C
:100DC00041542353434647455854323D332C312C2C
:100DD000302C302C302C30004154235343464745AF
:100DE00058543D332C312C302C302C302C300041D9
:100DF0005423534346473D332C312C313530302C6E
:100E000039302C313230302C30004154235246538B
:100E100054530041542B575334363F00415423530D
:100E2000474143543D312C310041542B4347444307
:100E30004F4E543D312C49502C6D67627300202079
:100E400020200041542B435245473F005B20202087
:100E5000205D002020202020202020202020202075
:100E60002020202020202020202020202020202082
:100E700020202020202020200052657472792049F3
:100E80006E697469616C697A696E67002020202040
:100E90002020202020202020202020202020202052
:100EA0002020202020202020202020202020202042
:100EB0000047534D20496E697469616C697A696EA7
:100EC00067204661696C6564002020202020202076
:100ED0002020202020202020202020202020202012
:100EE0002020202020202020202020202000506FA3
:100EF000776572204F4E204D6F64656D0020202075
:100F000020202020202020202020202020202020E1
:100F100020202020202020202020202020202020D1
:100F20002000415423534C4544534156004154231F
:100F3000534C45443D32004154234750494F3D31C5
:100F40002C302C3200415423453252493D35302C4F
:100F500035300041542B474D520041542B474D4DE5
:100F60000041542B474D490041542B434349440011
:100F700041542B4347534E0053494D204552524F45
:100F8000522000202053494D204F4B202000415437
:100F90002B4350494E3F004154264B300041542BC7
:100FA00046434C4153533D300041542B434D45453E
:100FB0003D310041542B4346554E3D312C300041CC
:100FC000542B53494D4445543F0041543000415443
:100FD000005B202020205D002020202020202020D9
:100FE0002020202020202020202020202020202001
:100FF00020202020202020202020202020000D0A3A
:10100000000D0A00486F73743A2000204854545071
:101010002F312E310D0A0047455420000D0A00558E
:101020007365722D4167656E743A20506F73744F0B
:1010300066666963650D0A00436F6E74656E742D94
:10104000547970653A206170706C69636174696F7E
:101050006E2F6A736F6E0D0A000D0A00436F6E7477
:10106000656E742D4C656E6774683A20000D0A0039
:10107000486F73743A200020485454502F312E3159
:101080000D0A00504F535420000D0A00557365722D
:101090002D4167656E743A20506F73744F666669B0
:1010A00063650D0A00436F6E74656E742D5479701C
:1010B000653A206170706C69636174696F6E2F6A44
:1010C000736F6E0D0A00436F6E6E656374696F6EA9
:1010D0003A20636C6F73650D0A00485454502F31E9
:1010E0002E3120343036204E6F742041636365709A
:1010F0007461626C650D0A00485454502F312E31D2
:1011000020343035204D6574686F64204E6F742034
:10111000416C6C6F7765640D0A00485454502F3150
:101120002E31203430302042616420526571756563
:1011300073740D0A00485454502F312E3120323030
:10114000322041636365707465640D0A004854542D
:10115000502F312E3120323030204F4B0D0A002CD1
:101160000041542353524543563D004154235353A9
:10117000454E443D0041542353533D002C004154FF
:101180002353413D002C002C002C00415423534C90
:101190003D0041542353483D002C002C00222C00DC
:1011A0002C22002C002C0041542353443D00415478
:1011B0002B43434C4B3F0041542349434D503D008A
:1011C000222C223235352E3235352E3235352E321F
:1011D000353522002C22004154234652574C3D0005
:1011E0002C002C002C002C002C004154235343468F
:1011F00047455854323D002C002C002C002C002C6C
:1012000000415423534346474558543D002C002C7D
:10121000002C002C002C00415423534346473D0032
:101220004154234D4F4E4900415423524653545389
:101230000041542B575334363D0041542B575334FF
:10124000363F002C0041542353474143543D002274
:1012500000222C22002C220041542B434744434FB0
:101260004E543D0041542B435245473F00415423C7
:101270004532534C52493D00415423534C4544534D
:10128000415600415423534C45443D002C002C0052
:101290004154234750494F3D0041542353494D4445
:1012A00045543F00415423434349440041542B4398
:1012B00050494E3F004154264B0041544500415493
:1012C0002B434D45453D0041542B4346554E3D0073
:1012D00041542B4347534E3D310041542353575003
:1012E0004B47560041542B43474D4D0041542B432F
:1012F000474D490041542B46434C4153533D004117
:1013000054004C5445003347003247004C544500CC
:101310003347004C54450032470033470032470002
:101320004C5445004C544500334700324700334786
:10133000003247004C544500334700324700580004
:101340005F5F5F5F5F005B2D2020205D004C0048E9
:10135000004C0048004C0048004C0048004C00483D
:10136000004C0048004C0048004C0048004C00482D
:10137000004C0048004C0048004C0048004C00481D
:10138000004C0048004C0048004C0048004C00480D
:10139000004C0048004C0048004C0048004C0048FD
:1013A000004C0048004C0048004C0048004C0048ED
:1013B000004C0048004C0048004C0048004C0048DD
:1013C000004C0048004C0048004C00480052533488
:1013D0003835205B205D00454E56205B205D004582
:1013E0004E32205B205D00454E31205B205D00E2E7
:1013F00094B400E2948200E294AC00E294B400E27F
:10140000948200E294AC00E294B400E2948200E2A0
:1014100094AC00E294B400E2948200E294AC00E266
:1014200094B400E2948200E294AC0042313037413F
:10143000410053656E642054696D6520286D532901
:10144000203A0055702054696D65203A00506F773E
:10145000657253746174205634005B202020255D32
:10146000005B20202020204261725D005B20202054
:1014700020204261725D004461746120436F756E8B
:1014800074002500536C6F70650042617200446502
:1014900076696174696F6E004261720041766572AF
:1014A00061676500426172004D61780042617200BF
:1014B0004D696E0042617200496E7374616E740012
:1014C00053656300446F776E6C6F61642054696D7F
:1014D00065002500446F776E6C6F61642050657203
:1014E00063656E740053442046696C652053697AC5
:1014F00065004654502046696C652053697A650042
:10150000446F776E6C6F61642053746174757300FF
:1015100046696C6520494400536F636B65740043F2
:101520006F6E6E656374696F6E20547970650049E3
:101530005020416464726573730047534D204F70AF
:10154000657261746F72005369676E616C204C65DF
:1015500076656C00436F6E6E656374696F6E2054C0
:10156000696D650049434349440053657269616C84
:1015700020494400494D4549004669726D776172C2
:1015800065004D6F64656C004D616E7566616374D6
:101590007572657200436861726765205374617487
:1015A00065006D4100496E7374616E742042617410
:1015B00074657279204361706163697479002500F4
:1015C0005374617465206F662043686172676500BB
:1015D0006D41004176657261676520437572726581
:1015E0006E7400430054656D706572617475726548
:1015F000005600496E7374616E7420566F6C74618E
:101600006765004D696E0053656E6420496E7465B0
:101610007276616C0025004D6F64756C65204875AD
:101620006D69646974790043004D6F64756C652061
:1016300054656D706572617475726500486172649D
:10164000776172652056657273696F6E00466972C4
:101650006D776172652056657273696F6E005365B0
:101660007269616C20494400456E6572677920415A
:101670006E616C7973657200493243204261747403
:101680006572792043686172676572202830783608
:1016900042290049324320426174746572792047BF
:1016A0006175676520283078333629004932432038
:1016B00054656D7065726174757265202830783478
:1016C0003029004932432053657269616C204944D6
:1016D00020283078353029004932432052544320A5
:1016E00028307835322900202E2E20002E2E2E2E46
:1016F0002E2E2E2E2E2E2E2E2E2E2E2E2E2E2E2E0A
:101700002E2E2E2E2E2E2E2E2E2E0020004641491D
:101710004C00204F4B2000070048003B001B5B00A3
:101720001B5B001B5B00E29480005D005B002E00F1
:10173000E2948000E294A400E2949C00E294800091
:10174000E294A400E2949C0030005B20205D00E263
:10175000948000E2948000E2948200E2948200E2AD
:10176000949800E2949000E2949400E2948C001B20
:101770005B3F32356C001B5B324A007C3C3E5E2B8B
:101780003D3F2F5B5D3B2C2A225C0000000B0C03CD
:101790000A0D0E0F090804050200000000000000F9
:1017A0000000000000000000000000000000000039
:1017B00000000000000000131211000000000000F3
:1017C0000000000000000000000000000000000019
:1017D0000000000000000000000000000000000009
:1017E0000001021020200808102040102040800234
:1017F0000102010804020101020408102040808057
:1018000040201008040201800402018040201008DA
:1018100004020108040201010204081020408001B2
:10182000020408102040800440800480081010202A
:101830004004081020408005050505070508080834
:1018400008020202020A0A08080404040401010151
:101850000101010101030303030303030304070759
:10186000070C0C0C0C0C0C0C0C02020202060606F7
:1018700006060606060B0B0B0B0B0B0B0B050505E3
:10188000080807070404040A0A0A0A0A0A000022D0
:1018900000250028002B002E00310034000201003A
:1018A00000050108010B0100002100240027002A87
:1018B000002D003000330001010000040107010A7F
:1018C0000100F684678D8B93A59699A430A5C7A5D2
:1018D00011241FBECFEFD1E2DEBFCDBF00E00CBFB1
:1018E00017E0A0E0B2E0EEE1F8E701E00BBF02C0D4
:1018F00007900D92AC3EB107D9F723E1ACEEB7E00B
:1019000001C01D92A33CB207E1F71CE0C8E6DCE091
:1019100000E006C021970109802FFE010E940AAC59
:10192000C136D10780E00807A9F70E9490A90C945E
:101930000DBC0C9400000F931F93CF93DF93EC0129
:10194000062F142F6DE177E1888199810E9430A6DE
:101950004AE050E0602F888199810E9419A76BE1CD
:1019600077E1888199810E9430A64AE050E0612F9A
:10197000888199810E9419A769E177E1888199811D
:10198000DF91CF911F910F910C9430A64F925F92EF
:101990006F927F928F929F92AF92BF92CF92DF927F
:1019A000EF92FF920F931F93CF93DF9300D000D05D
:1019B000CDB7DEB74B015C0187E190E09E838D835C
:1019C000412C512C3201042F10E06D817E81601B6F
:1019D000710B072E000C880B990B0E9448AD9B01E0
:1019E000AC0160E070E080E090E40E94CCAE6983DE
:1019F0007A838B839C83C12CD12C7601C3940D8078
:101A000004C0CC0CDD1CEE1CFF1C0A94D2F7A5010F
:101A100094010E9499AC181674F14C285D286E2828
:101A20007F2829813A814B815C81C501B4010E94E4
:101A30002CAC4B015C018D819E8101979E838D832F
:101A4000019619F6C301B20126960FB6F894DEBFCF
:101A50000FBECDBFDF91CF911F910F91FF90EF90FF
:101A6000DF90CF90BF90AF909F908F907F906F90BE
:101A70005F904F900895C094D094E094F0944C20DF
:101A80005D206E207F20D7CF882359F080910201FE
:101A900080648093020168EC70E080E090E00C9438
:101AA00045AA809102018F7BF4CFFA01309741F073
:101AB000248120782C6024836083718382839383C4
:101AC0000895909100018091180E97FF0AC0882315
:101AD000B1F08EE191E10E941CA41092180E80E0FA
:101AE000089581110CC026E040E052EC61E070E006
:101AF0008EE191E10E94CAA381E08093180E0895BF
:101B0000FC01128214821682178263834583442368
:101B1000D9F02223C9F0213011F426830895223010
:101B2000E1F384E0233079F088E0243061F080E153
:101B3000253049F080E2263031F080E4273019F07A
:101B4000283011F480E886830895CF93DF93DC0179
:101B500015962C91211105C091E0892FDF91CF912D
:101B60000895EC0141E060E7888199810E94618DD0
:101B700088819981DC01ED91FC910284F385E02D4F
:101B800019959E81981741F360E7888199810E9499
:101B9000E18C88819981DC01ED91FC910190F081CB
:101BA000E02D6E811995888199810E94648D91E064
:101BB000882399F290E0D1CF1F93CF93DF93EC016C
:101BC000CB01798368830E94CF8C11E01A83CE0108
:101BD0000E94A50D6B81888199810E94E18C88818A
:101BE00099810E94648D882329F01C82DF91CF9116
:101BF0001F9108951C83FACFFF920F931F93CF93E9
:101C0000DF93EC019A81992369F19C81992351F129
:101C1000122F042FF62E8D81882319F0CE010E94F9
:101C2000A50D6B81888199810E94E18C88819981C1
:101C3000DC01ED91FC910190F081E02D6F2D199563
:101C400088819981DC01ED91FC910190F081E02D7A
:101C5000602F1995612F888199810E94EB8C91E00A
:101C6000811190E0892FDF91CF911F910F91FF900B
:101C700008951F93CF93DF93EC018A81811105C0F2
:101C800080E0DF91CF911F9108958C818823C1F36B
:101C9000162F8D81882319F0CE010E94A50D6B812E
:101CA000888199810E94E18C88819981DC01ED9184
:101CB000FC910190F081E02D612F19958881998127
:101CC0000E94648D41E06B81888199810E94618DC1
:101CD00088819981DC01ED91FC910084F185E02DF2
:101CE0001995892B69F288819981DC01ED91FC912C
:101CF0000284F385E02D1995C4CFDF92EF92FF9215
:101D00000F931F93CF93DF93EC011A811123A1F15D
:101D10001C81112389F1D22EE42EF62E8D81882389
:101D200019F0CE010E94A50D6F2DCE010E94390E33
:101D3000282F30E00E2C02C0359527950A94E2F743
:101D400020FF1AC001E010E020E030E004C0000FE6
:101D5000111F221F331FEA94D2F70095402F48230A
:101D60002D2D6F2DCE01DF91CF911F910F91FF90FF
:101D7000EF90DF900C94FC0D812FDF91CF911F919C
:101D80000F91FF90EF90DF900895EF92FF920F93E5
:101D90001F93CF93DF93EC011A81112389F11C81EA
:101DA000112371F1E22EF42E062F8D81882319F074
:101DB000CE010E94A50D602FCE010E94390E282F62
:101DC00030E00F2C02C0359527950A94E2F720FDEC
:101DD00017C041E050E060E070E004C0440F551FC0
:101DE000661F771FFA94D2F7482B2E2D602FCE0155
:101DF000DF91CF911F910F91FF90EF900C94FC0D0C
:101E0000812FDF91CF911F910F91FF90EF90089557
:101E1000AF92BF92DF92EF92FF920F931F93CF93F7
:101E2000DF93EC018A818823F1F1DC80DD20D9F198
:101E3000122F7A01B62E8D81882319F0CE010E94CF
:101E4000A50D6B81888199810E94E18C888199819F
:101E5000DC01ED91FC910190F081E02D6B2D199545
:101E6000602F888199810E94EB8C81111CC0412FC9
:101E70006B81888199810E94618D5701012F10E04B
:101E8000C5018E199F098017910770F48881998187
:101E9000DC01ED91FC910284F385E02D1995F501AB
:101EA00081935F01EDCFD12C8D2DDF91CF911F91CB
:101EB0000F91FF90EF90DF90BF90AF900895CF9279
:101EC000DF92EF92FF920F931F93CF93DF93EC017A
:101ED0009A819923A9F19C81992391F1022F7A018A
:101EE000162F8D81882319F0CE010E94A50D6B81DC
:101EF000888199810E94E18C88819981DC01ED9132
:101F0000FC910190F081E02D612F1995670110E09F
:101F10008881998196012E193F092017310758F4BD
:101F2000F60161916F01DC01ED91FC910190F0816E
:101F3000E02D1995EDCF0E94648D91E0811190E024
:101F4000892FDF91CF911F910F91FF90EF90DF903C
:101F5000CF9008958F929F92AF92BF92CF92DF92CF
:101F6000EF92FF920F931F93CF93DF93062F142FBF
:101F70007901B90190E080E00E9446AD4B015C011F
:101F800020E030E040E850E40E948EAD20E030E0F8
:101F9000A9010E9499AC811111C020E030E048EC09
:101FA00052E4C501B4010E948EAD20E030E0A901E9
:101FB0000E9499ACC1E0D0E0811113C020E030E074
:101FC00048EC53E4C501B4010E948EADCC24C39407
:101FD000D12C20E030E0A9010E9499AC8111C12CE4
:101FE000E6018CEFE81688E0F80628F080E9E81AA8
:101FF00081E0F80AF6CF8CE6E81687E0F80628F4C8
:1020000080E7E81A8EEFF80AF6CFC70164E670E0C1
:102010000E94D4AB6B01B70190E080E00E9446AD16
:1020200020E030E048EC52E40E948EAD0E9417ADF3
:1020300085E1C816D104A9F086E1C816D104A1F043
:1020400031E020E084E1C816D10409F430E0832FA8
:10205000922F113061F4C130D10581F4C6E0D0E097
:102060000DC085E090E0F5CF83E090E0F2CF123034
:1020700061F5219709F44DC0C3E0D0E0C00FD11D38
:10208000C60FD11D669566956C0F7D2F711D680F6B
:10209000791F072E000C880B990B0E9448AD20E099
:1020A00030E040EE50E40E948EAD0E9410AD862FCD
:1020B000DF91CF911F910F91FF90EF90DF90CF9024
:1020C000BF90AF909F908F900895D0E0C0E01A30FD
:1020D000A9F21830F1F0133079F2D0E0C0E01B30F3
:1020E00059F2143009F4BACF173009F4B7CF1530CC
:1020F00051F0163059F0193019F01C3009F0BECFEC
:10210000C5E0D0E0BBCFC1E0D0E0B8CFC4E0D0E0C4
:10211000B5CFC2E0D0E0B2CFBF92CF92DF92EF92C4
:10212000FF920F931F93CF93DF93EC017C0138E074
:10213000E30EF11C8AE1F70111928A95E9F760E05C
:10214000CE010E94390EB82E61E0CE010E94390EF8
:10215000C82E62E0CE010E94390ED82E64E0CE0176
:102160000E94390E082F65E0CE010E94390E182F0B
:1021700066E0CE010E94390E2B2D22952F709AE039
:10218000FB2DFF70BF2E299FB00C11241F92BF9210
:102190002C2D22952F703C2D3F70C32E299FC00CF3
:1021A00011241F92CF922D2D22952F70ED2DEF70BF
:1021B000DE2E299FD00C11241F92DF92202F229512
:1021C0002F700F70299F000D11241F920F93212F44
:1021D00022952F701F70299F100D11241F921F939D
:1021E000282F22952F708F70299F800D11241F9208
:1021F0008F9382E593E09F938F93FF92EF920E94DB
:102200008FB38DB79EB740960FB6F8949EBF0FBEA2
:102210008DBFDF91CF911F910F91FF90EF90DF90D5
:10222000CF90BF900895AF92BF92CF92DF92EF927E
:10223000FF920F931F93CF93DF93EC01A62EB42E42
:10224000D22E2C2D30E04E2D602F0E94AA0FF82E9A
:102250001AE08A2D612F0E94C8AB20E1829FA00165
:102260001124492B21E060E0CE010E94FC0D8B2D52
:10227000612F0E94C8AB20E1829FA0011124492B4D
:1022800021E061E0CE010E94FC0D8D2D612F0E94A6
:10229000C8AB20E1829FA0011124492B21E062E01C
:1022A000CE010E94FC0D8F2D612F0E94C8AB20E152
:1022B000829FA0011124492B21E063E0CE010E94FE
:1022C000FC0D802F612F0E94C8AB20E1829FA001EE
:1022D0001124492B21E064E0CE010E94FC0D8E2DDB
:1022E000612F0E94C8AB20E1829FA0011124492BDD
:1022F00021E065E0CE010E94FC0D8C2D612F0E9433
:10230000C8AB20E1829FA0011124492B21E066E0A7
:10231000CE01DF91CF911F910F91FF90EF90DF9051
:10232000CF90BF90AF900C94FC0DEF92FF920F9363
:10233000CF93DF9300D01F92CDB7DEB77C01198217
:102340001A821B821C82662329F121E040E06BE1A6
:102350000E94FC0D21E04A816CE1C7010E94FC0D46
:1023600021E04B816DE1C7010E94FC0D21E04C8111
:102370006EE1C7010E94FC0D69817A818B819C818D
:102380000F900F900F900F90DF91CF910F91FF90D2
:10239000EF90089501E024E0AE014F5F5F4F6BE1E5
:1023A0000E94080FE9CF1F93CF93DF93EC01162F04
:1023B00065E30E94390E482F112351F04D7F456887
:1023C00021E065E3CE01DF91CF911F910C94FC0DCC
:1023D0004F77F6CF1F93CF93DF93EC0163E27EE05C
:1023E0000E94DC0D1C811123A1F021E045E067E390
:1023F000CE010E947D0E61E0CE010E94D31121E04A
:1024000041E060E1CE010E947D0E61E0CE010E94BC
:102410009511812FDF91CF911F9108958F929F92F7
:10242000AF92BF92CF92EF920F931F93CF93DF9310
:102430005C01C62F4A01122FD32F21E042E06FE04A
:102440000E947D0E21E044E060E1C5010E947D0E06
:1024500021E043E06EE0C5010E947D0E21E0412FA6
:102460006AE0C5010E94FC0D21E04D2F6BE0C50123
:102470000E94FC0D6FE0C5010E94390ECC2361F172
:10248000C82FC06880E488169104B1F140F58A94A1
:102490008928A9F1002331F021E044E060E1C50181
:1024A0000E94C50EE110C46021E04C2F6FE0C50111
:1024B0000E94FC0D21E041E062E1C501CC2011F158
:1024C000DF91CF911F910F91EF90CF90BF90AF9080
:1024D0009F908F900C94C50EC82FCF77D3CF8114C7
:1024E00080E1980639F080E688168AEE980691F623
:1024F000C360D0CFCC7FCECFCC7FC160CBCFCC7FE1
:10250000C260C8CFDF91CF911F910F91EF90CF9014
:10251000BF90AF909F908F900C947D0EFF920F9381
:102520001F93CF93DF93EC01F62E890121E065E242
:102530000E94FC0D21E0F11012C042E267E2CE01E0
:102540000E94FC0D66E2CE010E94390EF8018083E4
:1025500081E0DF91CF911F910F91FF900895F801D5
:10256000408166E2CE010E94FC0D21E041E267E27B
:10257000CE010E94FC0DECCFAF92BF92CF92DF92C2
:10258000EF92FF920F931F93CF93DF938C017C0107
:102590008AE0E80EF11CE80162965E018EE7C82E23
:1025A00083E0D82EF70181917F011F928F93DF92F4
:1025B000CF92DF93CF930E948FB322960F900F900C
:1025C0000F900F900F900F90EA14FB0459F7F80149
:1025D00012A2DF91CF911F910F91FF90EF90DF90AA
:1025E000CF90BF90AF9008950F931F93CF93DF9339
:1025F000EC01062F142F242F462F60E50E94800D3A
:10260000088719871A861B861C861D861E861F86CC
:10261000188A198A629681E1FE0111928A95E9F77A
:10262000DF91CF911F910F9108951F93CF93DF9367
:10263000EC0163E27EE00E94DC0D1C811123B1F10C
:1026400020E041E068E0CE010E94FC0D67E0CE0191
:102650000E94390E8A8766E0CE010E94390E8B8770
:1026600065E0CE010E94390E8C8764E0CE010E94A5
:10267000390E8D8763E0CE010E94390E8E8762E0AD
:10268000CE010E94390E8F8761E0CE010E94390E83
:10269000888B60E0CE010E94390E898BCE010E94AA
:1026A000BC12812FDF91CF911F9108951A861B864E
:1026B0001C861D861E861F86188A198AEFCFCF9327
:1026C000DF93EC01242F462F60E40E94800D1886D2
:1026D000198680E090E0A0E8BFE38A879B87AC87FB
:1026E000BD871E861F86188A198A8A8B9B8BAC8BA6
:1026F000BD8B1E8A1F8A188E198EDF91CF91089587
:102700001F93CF93DF93EC0163E27EE00E94DC0D28
:102710001C81112309F475C021E047E06EE0CE0171
:102720000E94C50E62E370E080E090E00E9445AA3E
:1027300021E047E66BE0CE010E94FC0D21E04EE572
:102740006AE0CE010E94FC0D21E04CEC6DE0CE0170
:102750000E94FC0D21E043E36CE0CE010E94FC0DE1
:1027600067E0CE010E94390E8F77482F486721E03D
:1027700067E0CE010E94FC0D21E040E06EE0CE015A
:102780000E94C50E21E041E06EE0CE010E947D0E68
:1027900021E042E06EE0CE010E94C50E6FE0CE0166
:1027A0000E94390E482F497F21E06FE0CE010E9440
:1027B000FC0D6EE0CE010E94390E8F7D482F4065E2
:1027C00021E06EE0CE010E94FC0D6FE0CE010E9480
:1027D000390E482F4F7321E06FE0CE010E94FC0DAF
:1027E0006FE0CE010E94390E482F4F7C21E06FE050
:1027F000CE010E94FC0D21E040E06FE0CE010E947E
:10280000C50E812FDF91CF911F910895CF93DF9354
:10281000EC01242F462F66E30E94800D188619864E
:102820001A861B861C861D861E861F86188A198A94
:102830001A8A1B8A1C8ADF91CF910895DF92EF924A
:10284000FF920F931F93CF93DF9300D01F92CDB7CA
:10285000DEB77C0163E27EE00E94DC0DF7011481AB
:10286000112309F4FFC086E08A8384E0D82EDB823E
:1028700002E00C8388E5898322E0AE014D5F5F4F63
:102880006DE1C7010E945F0F22E0AE014F5F5F4F15
:102890006BEBC7010E945F0F19821A8222E0AE0122
:1028A0004F5F5F4F6AEBC7010E945F0F80EA898329
:1028B0008FE08A8322E0AE014F5F5F4F68E1C7017E
:1028C0000E945F0F80E28983DA8222E0AE014F5FCF
:1028D0005F4F6BEDC7010E945F0F80E889830A8319
:1028E00022E0AE014F5F5F4F6EE1C7010E945F0FB4
:1028F00001E022E0AE014D5F5F4F6AE3C7010E9435
:10290000080F8B818F778B831C82898386E98A836A
:1029100022E0AE014F5F5F4F6AE3C7010E945F0F85
:1029200022E0AE014D5F5F4F6AE3C7010E94080FCE
:102930008B8180788B839C81876589839A8322E051
:10294000AE014F5F5F4F6AE3C7010E945F0F22E055
:10295000AE014F5F5F4F61E0C7010E94080F8EEB31
:10296000898322E0AE014F5F5F4F61E0C7010E94A3
:102970005F0F22E0AE014F5F5F4F61E0C7010E9431
:10298000080F87ED8A8322E0AE014F5F5F4F61E061
:10299000C7010E945F0F22E0AE014F5F5F4F64EB03
:1029A000C7010E94080F8BE48A8322E0AE014F5FCB
:1029B0005F4F64EBC7010E945F0F22E0AE014F5FE3
:1029C0005F4F63E0C7010E94080F198222E0AE0149
:1029D0004F5F5F4F63E0C7010E945F0F22E0AE01CF
:1029E0004F5F5F4F63E0C7010E94080F1A8222E029
:1029F000AE014F5F5F4F63E0C7010E945F0F22E0AF
:102A0000AE014F5F5F4F62E0C7010E94080F19825D
:102A100022E0AE014F5F5F4F62E0C7010E945F0F8F
:102A200022E0AE014F5F5F4F62E0C7010E94080FD6
:102A300082E38A8322E0AE014F5F5F4F62E0C7010D
:102A40000E945F0F19821A8222E0AE014F5F5F4F32
:102A500060E0C7010E945F0F65E070E080E090E0F9
:102A60000E9445AA812F0F900F900F900F90DF9139
:102A7000CF911F910F91FF90EF90DF9008950F93EA
:102A8000CF93DF931F921F92CDB7DEB700E022E015
:102A9000AE014F5F5F4F69E00E94080F69817A8144
:102AA00090E080E00E9446AD20E030E040EA5FE345
:102AB0000E945FAE20E030E040E85DE30E945FAE40
:102AC00020E030E04AE754E40E949EAC0F900F9063
:102AD000DF91CF910F9108950F93CF93DF931F92C2
:102AE0001F92CDB7DEB700E022E0AE014F5F5F4F2F
:102AF00066E00E94080F69817A8190E080E00E9480
:102B000046AD20E030E040E85BE30E945FAE0F900E
:102B10000F90DF91CF910F9108950F93CF93DF9393
:102B20001F921F92CDB7DEB700E022E0AE014F5FEB
:102B30005F4F65E00E94080F29813A8145E0429F7E
:102B4000C001439F900D112468EE73E00E94D4AB46
:102B500090E080E00E9446AD2AE037ED43E25CE37E
:102B60000E949EAC0E9417ADCB010F900F90DF9199
:102B7000CF910F910895CF92DF92EF92FF920F9332
:102B80001F93CF938C016A017B012FE632E143E072
:102B900050E4CB01B6010E945AAE87FF5CC02FE61D
:102BA00032E143E05EE3C701B6010E9499AC18161A
:102BB00044F09FE6C92E92E1D92E93E0E92E9EE3E0
:102BC000F92E63E0C8010E94390EC82FCF702FE69E
:102BD00032E143E05EE3C701B6010E9499AC811186
:102BE00043C0C0612FE632E143E05FE3C701B601B5
:102BF0000E9499AC811143C0C0642FE632E143E8E2
:102C00005FE3C701B6010E9499AC811143C0C06760
:102C100028E539E344EB5FE3C701B6010E9499ACB4
:102C2000811143C0C06A22E430E645EE5FE3C7018C
:102C3000B6010E9499AC811143C0C06D21E04C2FB8
:102C400063E0C801CF911F910F91FF90EF90DF904B
:102C5000CF900C94FC0D8FE6C82E82E1D82E83E035
:102C6000E82E80E4F82EADCF2FE632E143E85EE3B4
:102C7000C701B6010E9499AC81112EC0C06226EA3C
:102C80003BE944E45FE3C701B6010E9499AC8111BE
:102C90002EC0C0652CEB34E743E95FE3C701B60102
:102CA0000E9499AC81112EC0C06826EA3BE944EC31
:102CB0005FE3C701B6010E9499AC81112EC0C06BC1
:102CC0002FE832EC45EF5FE3C701B6010E9499ACF3
:102CD00081112EC0C06EB2CF26EA3BE944EC5EE320
:102CE000C701B6010E9499AC81117CCFC06322E478
:102CF00030E645E65FE3C701B6010E9499AC811159
:102D00007CCFC0662AE037ED43EA5FE3C701B60136
:102D10000E9499AC81117CCFC06924EF3DEF44ED56
:102D20005FE3C701B6010E9499AC81117CCFC06CF2
:102D30002FE632E143E050E4C701B6010E9499ACAE
:102D400081117CCFC06F7ACF1F93CF93DF93EC01BB
:102D500063E27EE00E94DC0D1C81111106C010E0D0
:102D6000812FDF91CF911F9108956AE0CE010E94DB
:102D7000390E8432A1F762E0CE010E94390E8370D1
:102D8000482F406821E062E0CE010E94FC0D64E023
:102D9000CE010E94390E8370482F406B21E064E021
:102DA000CE010E94FC0D60E0CE010E94390E482F3A
:102DB000476021E060E0CE010E94FC0D60E0CE01A2
:102DC0000E94390E8778482F406721E060E0CE01ED
:102DD0000E94FC0D61E0CE010E94390E482F4E602A
:102DE00021E061E0CE010E94FC0D66E0CE010E9470
:102DF000390E8F70482F406621E066E0CE010E94B8
:102E0000FC0D4FE652E163E87EE3CE010E94BB1564
:102E100063E0CE010E94390E482F487F21E063E035
:102E2000CE010E94FC0D21E045E061E0CE010E9450
:102E3000C50E21E044E061E0CE010E94C50E21E014
:102E400047E065E0CE010E94C50E21E045E067E065
:102E5000CE010E947D0E65E0CE010E94390E66E033
:102E6000CE010E94390E482F4F6021E066E0CE016E
:102E70000E94FC0D21E045E061E0CE010E947D0E44
:102E80006FCF68E00E94390E85FD05C08295817084
:102E9000089582E0089584FFFCCF83E00895089AA6
:102EA0001098099A119824982C9A25982D9A26986A
:102EB0002E9A27982F9A6A9A72986B9A73986C98A0
:102EC000749A6D98759A6E98769A6F9A7798A1E031
:102ED000B1E08C91877F8C93E2E0F1E080818860A3
:102EE00080838C9180618C9380818F7E80838C9194
:102EF0008F7D8C938081806280838C9180648C93A1
:102F000080818F7B80838C918F778C938081806888
:102F10008083A4E0B1E08C918B7F8C93E5E0F1E0BD
:102F200080818B7F80838C91877F8C938081877F4A
:102F300080838C918F7E8C9380818F7E80838C9117
:102F400080628C938081806280838C9180648C937A
:102F500080818F7B80838C9180688C9380818F7738
:102F60008083A7E0B1E08C918E7F8C93E8E0F1E064
:102F700080818E7F80838C918D7F8C9380818D7FEB
:102F800080838C918B7F8C9380818B7F80838C91CD
:102F9000877F8C938081877F80838C918F7E8C93B9
:102FA00080818F7E80838C918F7D8C9380818F7DBB
:102FB00080838C918F7B8C9380818F7B80838C919D
:102FC0008F778C9380818F778083AAE0B1E08C919A
:102FD00081608C93EBE0F1E080818E7F80838C9127
:102FE00082608C9380818D7F80838C9184608C93B0
:102FF00080818B7F80838C9188608C938081877F98
:1030000080830895CF93DF93EC011A821C821D8286
:103010001E821F8282E58B83FE0138968AE1DF01E2
:103020001D928A95E9F740E060E0CE0182960E9409
:10303000F41240E060E0CE018B5B9F4F0E945F1373
:1030400040E060E0CE01815A9F4F0E940614DE01ED
:10305000AC58BF4F12961C921297FE01E958FF4FD1
:10306000118232961082118212828BE613968C9313
:103070003396108211821282138214821582168274
:103080001782108611861286138614861586168678
:103090001786709610821182128213821482158212
:1030A000168217823896108211821282138214823D
:1030B0001582369610821182CE01DF91CF910C9449
:1030C0004F17EF92FF920F931F93CF93DF9300D090
:1030D00000D01F921F92CDB7DEB77C019E01285F02
:1030E0003F4F44E260E00E948E129E01295F3F4FF5
:1030F00045E260E0C7010E948E129E012A5F3F4FA9
:1031000046E260E0C7010E948E129E012B5F3F4F96
:1031100047E260E0C7010E948E1288854F812E81B0
:103120003D8187010C571F4F811144C0411142C09E
:10313000211140C031113EC087E88C8380EF8B8322
:103140008DE08A838FEE89839E012C5F3F4F44E29E
:1031500061E0C7010E948E129E012D5F3F4F45E244
:1031600061E0C7010E948E129E012E5F3F4F46E232
:1031700061E0C7010E948E129E012F5F3F4F47E220
:1031800061E0C7010E948E128FEE9DE0A0EFB7E8CC
:10319000F80180839183A283B38328960FB6F894B5
:1031A000DEBF0FBECDBFDF91CF911F910F91FF907A
:1031B000EF90089590E0B0E0A0E0B82FAA279927FB
:1031C0008827A42B832B922BE3CFEF92FF920F93B0
:1031D0001F93CF93DF9300D000D01F921F92CDB7E3
:1031E000DEB77C019E01285F3F4F40E260E00E9415
:1031F0008E129E01295F3F4F41E260E0C7010E94AD
:103200008E129E012A5F3F4F42E260E0C7010E949A
:103210008E129E012B5F3F4F43E260E0C7010E9488
:103220008E1288854F812E813D81870108571F4F5F
:10323000811144C0411142C0211140C031113EC032
:1032400087E88C8380EF8B838DE08A838FEE898380
:103250009E012C5F3F4F40E261E0C7010E948E1249
:103260009E012D5F3F4F41E261E0C7010E948E1237
:103270009E012E5F3F4F42E261E0C7010E948E1225
:103280009E012F5F3F4F43E261E0C7010E948E1213
:103290008FEE9DE0A0EFB7E8F80180839183A283D1
:1032A000B38328960FB6F894DEBF0FBECDBFDF9173
:1032B000CF911F910F91FF90EF90089590E0B0E0B3
:1032C000A0E0B82FAA2799278827A42B832B922B1D
:1032D000E3CFCF93DF93EC0182960E9415138823EE
:1032E00029F081E0FE01EB56FF4F8083CE010E9462
:1032F000EA11882329F081E0FE01EC56FF4F80831C
:10330000CE018B5B9F4F0E948013882329F081E0C0
:10331000FE01EA56FF4F8083CE01815A9F4F0E94E3
:103320001E14882329F081E0FE01E956FF4F8083B7
:10333000CE018C589F4F0E94A416882329F081E06B
:10334000FE01E856FF4F8083CE010E946118CE0136
:103350000E94E51893B181E0292F207194FF80E04D
:1033600080931F0E93B181E0392F307295FF80E07A
:103370008093200E93B196FB992790F99093210E9C
:1033800083B1881F8827881F8093220E222319F07B
:1033900021E0311101C020E020931B0E90931C0E00
:1033A00080931E0EF894109220018DE080932101ED
:1033B0008FE19CE190932901809328018091730013
:1033C000826080937300EC9A80916A00826080939F
:1033D0006A0085E08093680080916B008061809333
:1033E0006B0080916B00806280936B0080916B001A
:1033F000806480936B0080916B00806880936B0089
:1034000078940E94E6A9C457DF4F688379838A8342
:103410009B83DF91CF91089573B160911F0E74FB70
:10342000882780F990E06817190641F083B18295EA
:10343000817080931F0E81E080931B0E93B1809169
:10344000200E95FB442740F950E08417150649F0FB
:1034500083B185FB882780F98093200E81E08093DB
:103460001B0E93B18091210E96FB222720F930E0AC
:103470008217130649F083B186FB882780F9809371
:10348000210E81E080931C0E83B12091220E90E0EA
:10349000880F892F881F990B2817190649F083B1C7
:1034A000881F8827881F8093220E81E080931E0E3C
:1034B00008951F920F920FB60F9211248F9381E0FF
:1034C0008093190E8F910F900FBE0F901F9018953B
:1034D0001F920F920FB60F9211248F9381E0809369
:1034E0001D0E8F910F900FBE0F901F9018951F9279
:1034F0000F920FB60F9211240BB60F922F933F939A
:103500004F935F936F937F938F939F93AF93BF93EB
:10351000EF93FF930E940C1AFF91EF91BF91AF912F
:103520009F918F917F916F915F914F913F912F91DB
:103530000F900BBE0F900FBE0F901F9018951F920B
:103540000F920FB60F9211248F9381E080931A0E81
:103550008F910F900FBE0F901F9018951F93CF93D0
:10356000DF93DC0112962C912617D1F0162FEC0177
:1035700063E277E1888199810E9430A64AE050E0B9
:10358000612F888199810E9419A788819981DC0126
:10359000ED91FC910190F081E02D6DE619951A8373
:1035A000DF91CF911F9108951F93CF93DF93DC019B
:1035B00014962C912617D1F0162FEC0160E277E1DA
:1035C000888199810E9430A64AE050E0612F88816D
:1035D00099810E9419A788819981DC01ED91FC9164
:1035E0000190F081E02D6DE619951C83DF91CF915C
:1035F0001F9108955F926F927F928F929F92AF92E8
:10360000BF92CF92DF92EF92FF920F931F93CF93CF
:10361000DF93CDB7DEB73C01162FB42ED22E65E274
:103620000E94AE1A62E0C3010E94D41A4B2D612F92
:10363000C3010E949B0C6BE677E1F30180819181CD
:103640000E9430A64B2D6D2DC3010E949B0C67E696
:1036500077E1F301808191810E9430A6402F612F94
:10366000C3010E949B0C63E677E1F30180819181A5
:103670000E9430A6402F6D2DC3010E949B0C6FE568
:1036800077E1F301808191810E9430A6992493947F
:10369000910E9D14D0F44B2D692DC3010E949B0CFB
:1036A0006BE577E1F301808191810E9430A6402F84
:1036B000692DC3010E949B0C67E577E1F3018081CE
:1036C00091810E9430A69394E4CF992493949B0C0B
:1036D000592C5016D0F4452D612FC3010E949B0C2C
:1036E00063E577E1F301808191810E9430A6452D49
:1036F0006D2DC3010E949B0C6FE477E1F301808183
:1037000091810E9430A65394E4CF61E2C3010E94EC
:10371000AE1A42E04B0D612FC3010E949B0CB70112
:10372000F301808191810E9454A6CC20D1F165E201
:10373000C3010E94AE1A4BEF400F612FC3010E94DC
:103740009B0C6AE477E1F301808191810E9430A6AD
:103750008CEFF82EF00EF9E061E2C301FC1508F4DD
:1037600050C00E94AE1A4F2D612FC3010E949B0CC6
:1037700068E477E1F301808191810E9430A661E2E3
:10378000C3010E94AE1A4DEF400F612FC3010E948A
:103790009B0C4AE050E06C2DF301808191810E94E6
:1037A00019A7AA2091F165E2C3010E94AE1A1E5F1B
:1037B0004B2D612FC3010E949B0C64E477E1F30160
:1037C000808191810E9430A6402F612FC3010E9409
:1037D0009B0C60E477E1F301808191810E9430A627
:1037E000F92CF01690F44F2D612FC3010E949B0C11
:1037F0006CE377E1F301808191810E9430A6F3941C
:10380000F0CF0E94AE1A4F2DC0CF882071F165E233
:10381000C3010E94AE1ADA94DA944B2D6D2DC301C8
:103820000E949B0C68E377E1F301808191810E9403
:1038300030A6402F6D2DC3010E949B0C64E377E1FD
:10384000F301808191810E9430A6901670F4492D79
:103850006D2DC3010E949B0C60E377E1F301808131
:1038600091810E9430A69394F0CFDF91CF911F9168
:103870000F91FF90EF90DF90CF90BF90AF909F900F
:103880008F907F906F905F900895DF92EF92FF92FC
:103890000F931F93CF93DF9300D000D0CDB7DEB747
:1038A0007C01D22E0E949B0C6D2DC7010E94AE1A86
:1038B000F701E080F180B801CE0101960E949EA838
:1038C000BE016F5F7F4FC7010E9454A6CE010196D3
:1038D0000E9426A726960FB6F894DEBF0FBECDBF76
:1038E000DF91CF911F910F91FF90EF90DF9008959E
:1038F000BF92CF92DF92EF92FF920F931F93CF93DD
:10390000DF9300D000D0CDB7DEB76C01B62EF42E19
:10391000E22EE40EFE14A1F06EE277E1CE010196F4
:103920000E9400A98E010F5F1F4F2AE54F2D6B2DBE
:10393000C6010E94451CC8010E9426A7F394EACF45
:1039400026960FB6F894DEBF0FBECDBFDF91CF91A4
:103950001F910F91FF90EF90DF90CF90BF9008954F
:10396000BF92CF92DF92EF92FF920F931F93CF936C
:10397000DF9300D000D0CDB7DEB76C01E62EF42E79
:10398000B22E6CE277E1CE0101960E9400A98E0171
:103990000F5F1F4F25E24F2D6E2DC6010E94451C63
:1039A000C8010E9426A76AE277E1C8010E9400A927
:1039B0004F2D4B0D25E26E2DC6010E94451CC801FE
:1039C0000E9426A726960FB6F894DEBF0FBECDBF85
:1039D000DF91CF911F910F91FF90EF90DF90CF90EB
:1039E000BF900895CF92DF92EF92FF920F931F93B3
:1039F000CF93DF9300D000D0CDB7DEB77C01D42EBB
:103A0000C22E662309F162E177E1CE0101960E94A0
:103A100000A98E010F5F1F4F20E24C2D6D2DC701B5
:103A20000E94451CC8010E9426A726960FB6F8944E
:103A3000DEBF0FBECDBFDF91CF911F910F91FF90E1
:103A4000EF90DF90CF9008956DE077E1CE01019681
:103A50000E9400A98E010F5F1F4F2FE1DECFAF92B2
:103A6000BF92CF92DF92EF92FF920F931F93CF936B
:103A7000DF9300D000D0CDB7DEB76C01E62EF42E78
:103A800059010E949B0C1EE16BE077E1F6018081F9
:103A900091810E9430A61150B9F76CEE76E1CE010B
:103AA00001960E9400A98E010F5F1F4F2AE54F2D3E
:103AB0006E2DC6010E94451CC8010E9426A7B501B3
:103AC000C8010E949EA825E24F2D6E2DC6010E94BE
:103AD000451CC8010E9426A767EE76E1C8010E9436
:103AE00000A94FE14F0D22E26E2DC6010E94451C38
:103AF000C8010E9426A726960FB6F894DEBF0FBE17
:103B0000CDBFDF91CF911F910F91FF90EF90DF908C
:103B1000CF90BF90AF9008956F927F928F929F92B7
:103B2000AF92BF92CF92DF92EF92FF920F931F93CB
:103B3000CF93DF9300D000D0CDB7DEB73C01D62EB7
:103B4000B42E122F902E63E873E0CE0101960E94EE
:103B500098A7812CA12CCC24C394CE0101967C0182
:103B6000212F4B2D6D2DC3010E94FA1AC7010E940F
:103B700026A768ED76E1C7010E9400A982E0C82E61
:103B8000CB0CAA24A394AD0C870125E24C2D6A2D01
:103B9000C3010E94451CC7010E9426A7E92CEB180F
:103BA00029EE2E0D40E14B0D6A2DC3010E94781CB9
:103BB00099EF990E25E0492D6A2DC3010E94B01C92
:103BC00063EC76E1C8010E9400A992E0A92EAD0C39
:103BD00025E24C2D6A2DC3010E94451CC8010E949C
:103BE00026A723EE2E0D46E14B0D6A2DC3010E9440
:103BF000781C25E0492D6A2DC3010E94B01C6CEA97
:103C000076E1C8010E9400A923E0A22EAD0C25E2B6
:103C10004C2D6A2DC3010E94451CC8010E9426A795
:103C200021EE2E0D48E14B0D6A2DC3010E94781C38
:103C300025E0492D6A2DC3010E94B01C63E976E19D
:103C4000C8010E9400A934E0A32EAD0C25E24C2D42
:103C50006A2DC3010E94451CC8010E9426A72FEDB2
:103C60002E0D4AE14B0D6A2DC3010E94781C25E000
:103C7000492D6A2DC3010E94B01C68E776E1C80196
:103C80000E9400A945E0A42EAD0C25E24C2D6A2D22
:103C9000C3010E94451CC8010E9426A72DED2E0DD0
:103CA0004CE14B0D6A2DC3010E94781C25E0492D83
:103CB0006A2DC3010E94B01C68E676E1C8010E942B
:103CC00000A986E0D80E25E24C2D6D2DC3010E947F
:103CD000451CC8010E9426A728EE2E0D41E14B0D80
:103CE0006D2DC3010E94781C25E0492D6D2DC30167
:103CF0000E94B01C26960FB6F894DEBF0FBECDBF53
:103D0000DF91CF911F910F91FF90EF90DF90CF90B7
:103D1000BF90AF909F908F907F906F9008954F923B
:103D20005F926F927F928F929F92AF92BF92CF924B
:103D3000DF92EF92FF920F931F93CF93DF9300D008
:103D400000D0CDB7DEB73C01D62EB42E522E902E29
:103D500067E973E0CE0101960E9498A7812CA12CFF
:103D600082E0C82ECE0101967C01252D4B2D6D2DB4
:103D7000C3010E94FA1AC7010E9426A76EE576E1E8
:103D8000C7010E9400A992E0E92EEB0CCC24C39459
:103D9000CD0C8E010F5F1F4F25E24E2D6C2DC30100
:103DA0000E94451CC8010E9426A7F92CFB1822EE90
:103DB000A22EAF0C4BE04B0D2A2D6C2DC3010E949F
:103DC000781C4DEE490D21E16C2DC3010E94B01C01
:103DD0006DE476E1C8010E9400A932E0C32ECD0C4B
:103DE00025E24E2D6C2DC3010E94451CC8010E9486
:103DF00026A743EE442E4F0C52E1552E5B0C242D8A
:103E0000452D6C2DC3010E94781C65EF862E890C10
:103E100029E0482D6C2DC3010E94B01C6CE376E1B3
:103E2000C8010E9400A973E0C72ECD0C25E24E2DDB
:103E30006C2DC3010E94451CC8010E9426A7242D99
:103E4000452D6C2DC3010E94781C29E0482D6C2D56
:103E5000C3010E94B01C69E276E1C8010E9400A97A
:103E6000E4E0CE2ECD0C25E24E2D6C2DC3010E9438
:103E7000451CC8010E9426A744E14B0D2A2D6C2D3C
:103E8000C3010E94781CF6EFAF2EA90C28E04A2D42
:103E90006C2DC3010E94B01C67E276E1C8010E944C
:103EA00000A9ADEF8A2E890C25E2482D6C2DC301A7
:103EB0000E94451CC8010E9426A767E176E1C8015F
:103EC0000E9400A9B5E0CB2ECD0C25E24E2D6C2D25
:103ED000C3010E94451CC8010E9426A725EE2F0D94
:103EE00041E14B0D6C2DC3010E94781C28E04A2D46
:103EF0006C2DC3010E94B01C65E176E1C8010E94EF
:103F000000A925E2482D6C2DC3010E94451CC80163
:103F10000E9426A767E076E1C8010E9400A996E00A
:103F2000D90E25E24E2D6D2DC3010E94451CC801FE
:103F30000E9426A727EE2F0D4FE04B0D6D2DC301DC
:103F40000E94781C28E04A2D6D2DC3010E94B01CF0
:103F500063E076E1C8010E9400A94BEF490D25E21C
:103F60006D2DC3010E94451CC8010E9426A72696FC
:103F70000FB6F894DEBF0FBECDBFDF91CF911F917A
:103F80000F91FF90EF90DF90CF90BF90AF909F90F8
:103F90008F907F906F905F904F9008954F925F92B7
:103FA0006F927F928F929F92AF92BF92CF92DF9249
:103FB000EF92FF920F931F93CF93DF9300D000D027
:103FC000CDB7DEB73C01D62E942E522EB02E67EA26
:103FD00073E0CE0101960E9498A7812CA12C83E06A
:103FE000C82ECE0101967C01252D492D6D2DC301D2
:103FF0000E94FA1AC7010E9426A763EF75E1C70164
:104000000E9400A992E0E92EE90CCC24C394CD0CC7
:104010008E010F5F1F4F25E24E2D6C2DC3010E94B4
:10402000451CC8010E9426A7FB2CF91821E1522E3D
:10403000590C26EE2F0D452D6C2DC3010E94781CC6
:1040400047EF4B0D27E06C2DC3010E94B01C61EFC0
:1040500075E1C8010E9400A93DEF832E8B0C25E27B
:10406000482D6C2DC3010E94451CC8010E9426A743
:1040700065EE75E1C8010E9400A942E0C42ECD0C96
:1040800025E24E2D6C2DC3010E94451CC8010E94E3
:1040900026A729EE2F0D4DE0490D6C2DC3010E947E
:1040A000781C56EFA52EAB0C28E04A2D6C2DC301D1
:1040B0000E94B01C63EE75E1C8010E9400A925E2D0
:1040C000482D6C2DC3010E94451CC8010E9426A7E3
:1040D00063ED75E1C8010E9400A963E0C62ECD0C16
:1040E00025E24E2D6C2DC3010E94451CC8010E9483
:1040F00026A722EE2F0D452D6C2DC3010E94781CA2
:1041000043EF4B0D2BE06C2DC3010E94B01C60ED02
:1041100075E1C8010E9400A97CEF472E4B0C25E2F7
:10412000442D6C2DC3010E94451CC8010E9426A786
:1041300060EC75E1C8010E9400A9E4E0CE2ECD0C30
:1041400025E24E2D6C2DC3010E94451CC8010E9422
:1041500026A725EE2F0D452D6C2DC3010E94781C3E
:1041600028E04A2D6C2DC3010E94B01C6EEB75E156
:10417000C8010E9400A925E2482D6C2DC3010E94B0
:10418000451CC8010E9426A765EA75E1C8010E9486
:1041900000A9F5E0CF2ECD0C25E24E2D6C2DC301EC
:1041A0000E94451CC8010E9426A72CED2F0D4AE154
:1041B000490D6C2DC3010E94781C28E04A2D6C2DFE
:1041C000C3010E94B01C62EA75E1C8010E9400A907
:1041D00025E2442D6C2DC3010E94451CC8010E949C
:1041E00026A765E975E1C8010E9400A996E0D90EED
:1041F00025E24E2D6D2DC3010E94451CC8010E9471
:1042000026A723EE2F0D4EE0490D6D2DC3010E9410
:10421000781C41EF4B0D2DE06D2DC3010E94B01CA9
:1042200026960FB6F894DEBF0FBECDBFDF91CF91BB
:104230001F910F91FF90EF90DF90CF90BF90AF90C4
:104240009F908F907F906F905F904F9008956F92A6
:104250007F928F929F92AF92BF92CF92DF92EF9216
:10426000FF920F931F93CF93DF9300D000D0CDB771
:10427000DEB73C01D62EB42E122F902E6FEA73E0DB
:10428000CE0101960E9498A7812CA12C84E0C82E13
:10429000CE0101967C01212F4B2D6D2DC3010E9473
:1042A000FA1AC7010E9426A768E875E1C7010E94B3
:1042B00000A992E0E92EEB0CCC24C394CD0C8E0126
:1042C0000F5F1F4F25E24E2D6C2DC3010E94451C30
:1042D000C8010E9426A7F92CFB182DEE2F0D4EE0E9
:1042E0004B0D6C2DC3010E94781C2BEF822E890C84
:1042F00023E0482D6C2DC3010E94B01C62E875E1DB
:10430000C8010E9400A932E0C32ECD0C25E24E2D3B
:104310006C2DC3010E94451CC8010E9426A747E0DE
:10432000A42EAB0C24EF2F0D4A2D6C2DC3010E943F
:10433000781C23E0482D6C2DC3010E94B01C69E756
:1043400075E1C8010E9400A953E0C52ECD0C25E2FD
:104350004E2D6C2DC3010E94451CC8010E9426A74A
:104360002AEE2F0D4AE04B0D6C2DC3010E94781CE4
:1043700044EF490D2AE06C2DC3010E94B01C64E794
:1043800075E1C8010E9400A964E0C62ECD0C25E2AB
:104390004E2D6C2DC3010E94451CC8010E9426A70A
:1043A00078EE872E8F0C46E04B0D282D6C2DC30127
:1043B0000E94781C4EEE490D20E16C2DC3010E9435
:1043C000B01C6AE675E1C8010E9400A9E5E0CE2EA6
:1043D000CD0C25E24E2D6C2DC3010E94451CC80159
:1043E0000E9426A74BE04B0D282D6C2DC3010E9487
:1043F000781C43EF490D2BE06C2DC3010E94B01CCB
:1044000064E675E1C8010E9400A996E0D90E25E294
:104410004E2D6D2DC3010E94451CC8010E9426A788
:1044200023EE2F0D4A2D6D2DC3010E94781C4AEEFC
:10443000490D24E16D2DC3010E94B01C26960FB6D4
:10444000F894DEBF0FBECDBFDF91CF911F910F91CA
:10445000FF90EF90DF90CF90BF90AF909F908F90A4
:104460007F906F9008954F925F926F927F928F929C
:104470009F92AF92BF92CF92DF92EF92FF920F93F3
:104480001F93CF93DF9300D000D0CDB7DEB73C01B0
:10449000D62EB42E522E902E6AEB73E0CE010196EA
:1044A0000E9498A7812CA12C85E0C82ECE010196F0
:1044B0007C01252D4B2D6D2DC3010E94FA1AC701D9
:1044C0000E9426A764E575E1C7010E9400A992E059
:1044D000E92EEB0CCC24C394CD0C8E010F5F1F4F43
:1044E00025E24E2D6C2DC3010E94451CC8010E947F
:1044F00026A7F92CFB1821E1822E8B0C27EE2F0D1D
:10450000482D6C2DC3010E94781C38EFA32EA90CF6
:1045100026E04A2D6C2DC3010E94B01C67E475E1B2
:10452000C8010E9400A942E0C42ECD0C25E24E2D08
:104530006C2DC3010E94451CC8010E9426A75AEE9B
:10454000452E4F0C6EE0562E5B0C242D452D6C2D08
:10455000C3010E94781C26E04A2D6C2DC3010E94E5
:10456000B01C6AE375E1C8010E9400A973E0C72E80
:10457000CD0C25E24E2D6C2DC3010E94451CC801B7
:104580000E9426A7242D452D6C2DC3010E94781C66
:1045900026E04A2D6C2DC3010E94B01C6FE275E12C
:1045A000C8010E9400A9E4E0CE2ECD0C25E24E2DDC
:1045B0006C2DC3010E94451CC8010E9426A722EE53
:1045C0002F0D4CE04B0D6C2DC3010E94781C4EEE5C
:1045D000490D20E16C2DC3010E94B01C6FE175E113
:1045E000C8010E9400A9F5E0CF2ECD0C25E24E2D8A
:1045F0006C2DC3010E94451CC8010E9426A723EE12
:104600002F0D482D6C2DC3010E94781C44EF490DDD
:104610002AE06C2DC3010E94B01C68E175E1C8015D
:104620000E9400A996E0D90E25E24E2D6D2DC30102
:104630000E94451CC8010E9426A724EE2F0D48E0C9
:104640004B0D6D2DC3010E94781C4CEE490D22E1EB
:104650006D2DC3010E94B01C26960FB6F894DEBFE4
:104660000FBECDBFDF91CF911F910F91FF90EF90C3
:10467000DF90CF90BF90AF909F908F907F906F9082
:104680005F904F9008955F926F927F928F929F926A
:10469000AF92BF92CF92DF92EF92FF920F931F9350
:1046A000CF93DF9300D000D0CDB7DEB73C01D62E3C
:1046B000942E522EB02E69EC73E0CE0101960E942A
:1046C00098A7812CA12C86E0C82ECE0101967C01F2
:1046D000252D492D6D2DC3010E94FA1AC7010E9494
:1046E00026A760E175E1C7010E9400A992E0E92ECA
:1046F000E90CCC24C394CD0C8E010F5F1F4F25E233
:104700004E2D6C2DC3010E94451CC8010E9426A796
:10471000FB2CF9182EEE2F0D49E0490D6C2DC3012D
:104720000E94781C47EF4B0D27E06C2DC3010E94BF
:10473000B01C60E075E1C8010E9400A922E0C22E11
:10474000CD0C25E24E2D6C2DC3010E94451CC801E5
:104750000E9426A738EE532E5F0C41E1490D252D0E
:104760006C2DC3010E94781C49EF4B0D25E06C2D88
:10477000C3010E94B01C62EF74E1C8010E9400A94D
:1047800043E0C42ECD0C25E24E2D6C2DC3010E94BA
:10479000451CC8010E9426A75FE0A52EA90C27EEA4
:1047A0002F0D4A2D6C2DC3010E94781C66EF862EBA
:1047B0008B0C28E0482D6C2DC3010E94B01C65EEC7
:1047C00074E1C8010E9400A974E0C72ECD0C25E257
:1047D0004E2D6C2DC3010E94451CC8010E9426A7C6
:1047E0004EE0490D252D6C2DC3010E94781C28E058
:1047F000482D6C2DC3010E94B01C64ED74E1C8010A
:104800000E9400A9E5E0CE2ECD0C25E24E2D6C2DA8
:10481000C3010E94451CC8010E9426A796EEF90E0E
:1048200042E1490D2F2D6C2DC3010E94781C48EFE9
:104830004B0D26E06C2DC3010E94B01C62ED74E1AB
:10484000C8010E9400A94DEF4B0D25E26C2DC3015C
:104850000E94451CC8010E9426A764EC74E1C801AF
:104860000E9400A986E0D80E25E24E2D6D2DC301D1
:104870000E94451CC8010E9426A72F2D4A2D6D2D90
:10488000C3010E94781C45EF4B0D29E06D2DC3013B
:104890000E94B01C60EC74E1C8010E9400A94BEFBB
:1048A0004B0D25E26D2DC3010E94451CC8010E94DD
:1048B00026A726960FB6F894DEBF0FBECDBFDF91B8
:1048C000CF911F910F91FF90EF90DF90CF90BF900D
:1048D000AF909F908F907F906F905F9008952F92F0
:1048E0003F924F925F926F927F928F929F92AF9280
:1048F000BF92CF92DF92EF92FF920F931F93CF93CD
:10490000DF9300D000D01F92CDB7DEB73C01B62EAA
:10491000D42E522E902E6EEC73E0CE0101960E94A2
:1049200098A7812CA12C87E0C82ECE0101967C018E
:10493000252D4D2D6B2DC3010E94FA1AC7010E942F
:1049400026A768EB74E1C7010E9400A992E0F92E46
:10495000FD0CCC24C394CB0C8E010F5F1F4F25E2BE
:104960004F2D6C2DC3010E94451CC8010E9426A733
:10497000992D9D199F83492E8BEE480E29E0522ECA
:104980005D0C242D452D6C2DC3010E94781C34EF45
:10499000E32EE90C2AE04E2D6C2DC3010E94B01CC1
:1049A00064EB74E1C8010E9400A94BEF842E890CCE
:1049B00025E2482D6C2DC3010E94451CC8010E94B0
:1049C00026A760EB74E1C8010E9400A952E0A52E61
:1049D000AB0C25E24F2D6A2DC3010E94451CC80176
:1049E0000E9426A72F809FEE290E65E0362E3D0CF3
:1049F000222D432D6A2DC3010E94781C2AE04E2DE2
:104A00006A2DC3010E94B01C6CEA74E1C8010E94C7
:104A100000A925E2482D6A2DC3010E94451CC8014A
:104A20000E9426A768EA74E1C8010E9400A973E009
:104A3000C72ECB0C25E24F2D6C2DC3010E94451CC7
:104A4000C8010E9426A7222D432D6C2DC3010E9470
:104A5000781C2AE04E2D6C2DC3010E94B01C64EA24
:104A600074E1C8010E9400A925E2482D6C2DC30104
:104A70000E94451CC8010E9426A76CE974E1C80188
:104A80000E9400A9E4E03E2E3B0C25E24F2D632D51
:104A9000C3010E94451CC8010E9426A7242D452D54
:104AA000632DC3010E94781C2AE04E2D632DC301A3
:104AB0000E94B01C68E974E1C8010E9400A925E2C7
:104AC000482D632DC3010E94451CC8010E9426A7E2
:104AD0006EE874E1C8010E9400A9F5E05F2E5B0C4E
:104AE00025E24F2D652DC3010E94451CC8010E947F
:104AF00026A72F8127514BE04D0D652DC3010E9444
:104B0000781C2AE04E2D652DC3010E94B01C6AE876
:104B100074E1C8010E9400A925E2482D652DC3015A
:104B20000E94451CC8010E9426A764E874E1C801E0
:104B30000E9400A9A6E08A2E8B0C25E24F2D682D3D
:104B4000C3010E94451CC8010E9426A72F81235142
:104B500047E04D0D682DC3010E94781C2AE04E2DC0
:104B6000682DC3010E94B01C62E874E1C8010E9474
:104B700000A94DEF490D25E2682DC3010E94451C97
:104B8000C8010E9426A767E774E1C8010E9400A936
:104B900087E0B80E25E24F2D6B2DC3010E94451C06
:104BA000C8010E9426A72F8122514CE04D0D6B2D8C
:104BB000C3010E94781C4AEF490D24E06B2DC3010C
:104BC0000E94B01C6CE674E1C8010E9400A9B0E12B
:104BD000FB2EFD0C25E24F2D6A2DC3010E94451CC2
:104BE000C8010E9426A761E674E1C8010E9400A9DD
:104BF00025E24F2D6C2DC3010E94451CC8010E9467
:104C000026A76AE574E1C8010E9400A944E14D0DA0
:104C100025E2682DC3010E94451CC8010E9426A7F9
:104C200027960FB6F894DEBF0FBECDBFDF91CF91B0
:104C30001F910F91FF90EF90DF90CF90BF90AF90BA
:104C40009F908F907F906F905F904F903F902F90AC
:104C500008956F927F928F929F92AF92BF92CF9260
:104C6000DF92EF92FF920F931F93CF93DF9300D0C9
:104C700000D0CDB7DEB73C01D62EB42E122F902E29
:104C80006CE077E0CE0101960E9498A7812CA12CC0
:104C9000C12CCE0101967C01212F4B2D6D2DC3011E
:104CA0000E94FA1AC7010E9426A767ED73E0C701A8
:104CB0000E9498A737E1F32EFB0C61E06D0D8E0189
:104CC0000F5F1F4F25E24F2DC3010E94451CC801F5
:104CD0000E9426A79CEF990E882483948B0C42E0B7
:104CE000C42ECD0C65E2C3010E94AE1A52E0A52E7F
:104CF000AB0CEA2C890C9924991CE814190474F45F
:104D00004E2D6C2DC3010E949B0C66E277E1F301EE
:104D1000808191810E9430A6E394EFCF63EA77E02F
:104D2000CE0101960E9498A783E0C82ECD0C8E017B
:104D30000F5F1F4F25E24A2D6C2DC3010E94451CB9
:104D4000C8010E9426A766E374E0C8010E9498A7E4
:104D500094E0E92EED0C25E24A2D6E2DC3010E9450
:104D6000451CC8010E9426A76EE374E0C8010E949A
:104D700098A7F5E0DF0E25E24A2D6D2DC3010E94B4
:104D8000451CC8010E9426A72AE0A22EAB0C2BE0EE
:104D90004A2D6C2DC3010E94B01C63E474E0C8016D
:104DA0000E9498A78BE0B80E2AE54B2D6C2DC3010D
:104DB0000E94451CC8010E9426A72BE04A2D6E2D9B
:104DC000C3010E94B01C63E474E0C8010E9498A76C
:104DD0002AE54B2D6E2DC3010E94451CC8010E947F
:104DE00026A72BE04A2D6D2DC3010E94B01C63E461
:104DF00074E0C8010E9498A72AE54B2D6D2DC301D0
:104E00000E94451CC8010E9426A766E474E0C80100
:104E10000E9498A72AE54F2D6C2DC3010E94451CC6
:104E2000C8010E9426A766E474E0C8010E9498A702
:104E30002AE54F2D6E2DC3010E94451CC8010E941A
:104E400026A766E474E0C8010E9498A72AE54F2DC2
:104E50006D2DC3010E94451CC8010E9426A72696FD
:104E60000FB6F894DEBF0FBECDBFDF91CF911F917B
:104E70000F91FF90EF90DF90CF90BF90AF909F90F9
:104E80008F907F906F9008952F923F924F925F92F4
:104E90006F927F928F929F92AF92BF92CF92DF924A
:104EA000EF92FF920F931F93CF93DF9300D000D028
:104EB00000D0CDB7DEB73C01D62EB42E6FE677E139
:104EC000FC01808191810E9430A666E777E1F301C1
:104ED000808191810E9430A665E2C3010E94AE1AD2
:104EE00065E070E080E090E00E9445AA6CE077E029
:104EF000CE0101960E9498A78EE2582E5D0C09E71C
:104F00000B0D88248394AA24A394C12CCE0101966E
:104F10007C01252D4B2D6D2DC3010E94FA1AC7016E
:104F20000E9426A761E0C3010E94D41A6DE474E1D7
:104F3000C7010E9400A9992493949D0C46E34B0D50
:104F4000870125E2692DC3010E94451CC7010E940B
:104F500026A760E0C3010E94D41A63E474E1C7018C
:104F60000E9400A942E04B0D25E2692DC3010E9479
:104F7000451CC7010E9426A762E374E1C7010E9495
:104F800000A942E64B0D25E2692DC3010E94451C94
:104F9000C7010E9426A798E29B0D98872AE0222E3F
:104FA0002D0C11E01B0D33E0332E3D0C092F222D6B
:104FB000412F632DC3010E948C1D40E5942E9B0C54
:104FC000E9E2EB0DE987092D222D4E2F632DC30158
:104FD0000E948F1E58E7452E4B0CF1E5FB0DFF8319
:104FE000042D222D4F2F632DC3010E94CE1F62E19D
:104FF000262E2D0C7BE0372E3D0C0885222D412FCF
:10500000632DC3010E942721092D222D4985632D7F
:10501000C3010E943322042D222D4F81632DC30131
:105020000E9443236CE077E0C7010E9498A725E126
:105030002D0D63E16D0D812CA12C412FC3010E9428
:10504000FA1AC7010E9426A765EA74E0C7010E9408
:1050500098A7EEE12E2E2D0CF6E13F2E3D0C092DEA
:10506000222D412F632DC3010E94FA1AC7010E940D
:1050700026A7042D222D4F81632DC3010E946F248A
:105080006AEA74E0C7010E9498A7A4E22A2E2D0CB8
:10509000BFE13B2E3D0C08E0C02E0885222D412F9C
:1050A000632DC3010E94FA1AC7010E9426A762EB72
:1050B00074E0C7010E9498A7092D222D4985632D10
:1050C000C3010E94FA1AC7010E9426A76AEB74E086
:1050D000C7010E9498A7042D222D4F81632DC30183
:1050E0000E94FA1AC7010E9426A72BE22D0D65E245
:1050F0006D0D412FC3010E9429266BE274E1C701A7
:105100000E9400A98DE2482E4D0C42E74B0D87010D
:1051100021E2642DC3010E94451CC7010E9426A7FD
:1051200067E274E1C7010E9400A996E4392E3B0CA6
:105130009CE2D90E25E2432D6D2DC3010E94451C32
:10514000C7010E9426A763E274E1C7010E9400A97B
:1051500025E2432D642DC3010E94451CC7010E9416
:1051600026A76FE174E1C7010E9400A925E2432D43
:10517000652DC3010E94451CC7010E9426A76BE153
:1051800074E1C7010E9400A925E2492D6D2DC301DC
:105190000E94451CC7010E9426A767E174E1C70170
:1051A0000E9400A925E2492D642DC3010E94451CDF
:1051B000C7010E9426A763E174E1C7010E9400A90C
:1051C00025E2492D652DC3010E94451CC7010E949F
:1051D00026A76FE074E1C7010E9400A92AE5922E7C
:1051E0009B0C25E2492D6D2DC3010E94451CC70172
:1051F0000E9426A76BE074E1C7010E9400A925E286
:10520000492D642DC3010E94451CC7010E9426A799
:1052100067E074E1C7010E9400A925E2492D652DD0
:10522000C3010E94451CC7010E9426A763E074E1E8
:10523000C7010E9400A934E6932E9B0C25E2492D5C
:105240006D2DC3010E94451CC7010E9426A76FEF68
:1052500073E1C7010E9400A925E2492D642DC30115
:105260000E94451CC7010E9426A76BEF73E1C7018E
:105270000E9400A925E2492D652DC3010E94451C0D
:10528000C7010E9426A767EF73E1C7010E9400A92A
:1052900040E7942E9B0C25E2492D6D2DC3010E9401
:1052A000451CC7010E9426A763EF73E1C7010E9456
:1052B00000A925E2492D642DC3010E94451CC701A8
:1052C0000E9426A76FEE73E1C7010E9400A925E2A4
:1052D000492D652DC3010E94451CC7010E9426A7C8
:1052E00067EE73E1C7010E9400A948E44B0D25E277
:1052F000642DC3010E94451CC7010E9426A76FEDC3
:1053000073E1C7010E9400A942E54B0D25E2642D1F
:10531000C3010E94451CC7010E9426A767ED73E1E7
:10532000C7010E9400A94CE54B0D25E2642DC30185
:105330000E94451CC7010E9426A76DEC73E1C701BE
:105340000E9400A946E64B0D25E2642DC3010E9490
:10535000451CC7010E9426A729960FB6F894DEBF08
:105360000FBECDBFDF91CF911F910F91FF90EF90B6
:10537000DF90CF90BF90AF909F908F907F906F9075
:105380005F904F903F902F9008958F929F92AF9291
:10539000BF92CF92DF92FF920F931F93CF93DF9331
:1053A00000D000D0CDB7DEB76C01F62E49015A010E
:1053B0006CE077E0CE0101960E9498A70CE110E026
:1053C000D501C401002E04C0B695A7959795879581
:1053D0000A94D2F7682F6F706A300CF0A7C2605D34
:1053E000CE0101960E9435A9045011090C3F8FEFA0
:1053F000180731F788E2F80E8E010F5F1F4F2AE57C
:105400004FE06F2DC6010E94451CC8010E9426A7CF
:1054100080FE8EC26BEC73E1C8010E9400A920E2FD
:1054200046E76F2DC6010E94451CC8010E9426A7B1
:1054300081FE89C267EC73E1CE0101960E9400A94A
:105440008E010F5F1F4F20E243E76F2DC6010E94C0
:10545000451CC8010E9426A782FE80C263EC73E14E
:10546000CE0101960E9400A98E010F5F1F4F20E21E
:1054700040E76F2DC6010E94451CC8010E9426A767
:1054800083FE77C26FEB73E1CE0101960E9400A903
:105490008E010F5F1F4F20E24DE66F2DC6010E9467
:1054A000451CC8010E9426A784FE6EC26BEB73E107
:1054B000CE0101960E9400A98E010F5F1F4F20E2CE
:1054C0004AE66F2DC6010E94451CC8010E9426A70E
:1054D00085FE65C267EB73E1CE0101960E9400A9CB
:1054E0008E010F5F1F4F20E247E66F2DC6010E941D
:1054F000451CC8010E9426A786FE5CC263EB73E1CF
:10550000CE0101960E9400A98E010F5F1F4F20E27D
:1055100044E66F2DC6010E94451CC8010E9426A7C3
:1055200087FE53C26FEA73E1CE0101960E9400A983
:105530008E010F5F1F4F20E241E66F2DC6010E94D2
:10554000451CC8010E9426A790FE4AC26BEA73E17F
:10555000CE0101960E9400A98E010F5F1F4F20E22D
:105560004EE56F2DC6010E94451CC8010E9426A76A
:1055700091FE41C267EA73E1CE0101960E9400A943
:105580008E010F5F1F4F20E24BE56F2DC6010E9479
:10559000451CC8010E9426A792FE38C263EA73E147
:1055A000CE0101960E9400A98E010F5F1F4F20E2DD
:1055B00048E56F2DC6010E94451CC8010E9426A720
:1055C00093FE2FC26FE973E1CE0101960E9400A9FC
:1055D0008E010F5F1F4F20E245E56F2DC6010E942F
:1055E000451CC8010E9426A794FE26C26BE973E100
:1055F000CE0101960E9400A98E010F5F1F4F20E28D
:1056000042E56F2DC6010E94451CC8010E9426A7D5
:1056100095FE1DC267E973E1CE0101960E9400A9C3
:105620008E010F5F1F4F20E24FE46F2DC6010E94D5
:10563000451CC8010E9426A796FE14C263E973E1C7
:10564000CE0101960E9400A98E010F5F1F4F20E23C
:105650004CE46F2DC6010E94451CC8010E9426A77C
:1056600097FE0BC26FE873E1CE0101960E9400A97C
:105670008E010F5F1F4F20E249E46F2DC6010E948B
:10568000451CC8010E9426A7A0FE02C26BE873E178
:10569000CE0101960E9400A98E010F5F1F4F20E2EC
:1056A00046E46F2DC6010E94451CC8010E9426A732
:1056B000A1FEF9C167E873E1CE0101960E9400A93D
:1056C0008E010F5F1F4F20E243E46F2DC6010E9441
:1056D000451CC8010E9426A7A2FEF0C163E873E141
:1056E000CE0101960E9400A98E010F5F1F4F20E29C
:1056F00040E46F2DC6010E94451CC8010E9426A7E8
:10570000A3FEE7C16FE773E1CE0101960E9400A9F5
:105710008E010F5F1F4F20E24DE36F2DC6010E94E7
:10572000451CC8010E9426A7A4FEDEC16BE773E1F9
:10573000CE0101960E9400A98E010F5F1F4F20E24B
:105740004AE36F2DC6010E94451CC8010E9426A78E
:10575000A5FED5C167E773E1CE0101960E9400A9BD
:105760008E010F5F1F4F20E247E36F2DC6010E949D
:10577000451CC8010E9426A7A6FECCC163E773E1C1
:10578000CE0101960E9400A98E010F5F1F4F20E2FB
:1057900044E36F2DC6010E94451CC8010E9426A744
:1057A000A7FEC3C16FE673E1CE0101960E9400A976
:1057B0008E010F5F1F4F20E241E36F2DC6010E9453
:1057C000451CC8010E9426A7B0FEBAC16BE673E172
:1057D000CE0101960E9400A98E010F5F1F4F20E2AB
:1057E0004EE26F2DC6010E94451CC8010E9426A7EB
:1057F000B1FEB1C167E673E1CE0101960E9400A936
:105800008E010F5F1F4F20E24BE26F2DC6010E94F9
:10581000451CC8010E9426A7B2FEA8C163E673E139
:10582000CE0101960E9400A98E010F5F1F4F20E25A
:1058300048E26F2DC6010E94451CC8010E9426A7A0
:10584000B3FE9FC16FE573E1CE0101960E9400A9EE
:105850008E010F5F1F4F20E245E26F2DC6010E94AF
:10586000451CC8010E9426A7B4FE96C16BE573E1F2
:10587000CE0101960E9400A98E010F5F1F4F20E20A
:1058800042E26F2DC6010E94451CC8010E9426A756
:10589000B5FE8DC167E573E1CE0101960E9400A9B6
:1058A0008E010F5F1F4F20E24FE16F2DC6010E9456
:1058B000451CC8010E9426A7B6FE84C163E573E1BA
:1058C000CE0101960E9400A98E010F5F1F4F20E2BA
:1058D0004CE16F2DC6010E94451CC8010E9426A7FD
:1058E000B7FE7BC16FE473E1CE0101960E9400A96F
:1058F0008E010F5F1F4F20E249E16F2DC6010E940C
:10590000451CC8010E9426A726960FB6F894DEBF54
:105910000FBECDBFDF91CF911F910F91FF90DF9010
:10592000CF90BF90AF909F908F900895695C58CDB5
:1059300069EC73E1CE0101960E9400A98E010F5F10
:105940001F4F2FE16DCD65EC73E1CE0101960E94F2
:1059500000A98E010F5F1F4F2FE176CD61EC73E13F
:10596000CE0101960E9400A98E010F5F1F4F2FE10B
:105970007FCD6DEB73E1CE0101960E9400A98E01EF
:105980000F5F1F4F2FE188CD69EB73E1CE010196C8
:105990000E9400A98E010F5F1F4F2FE191CD65EB93
:1059A00073E1CE0101960E9400A98E010F5F1F4F87
:1059B0002FE19ACD61EB73E1CE0101960E9400A91F
:1059C0008E010F5F1F4F2FE1A3CD6DEA73E1CE0172
:1059D00001960E9400A98E010F5F1F4F2FE1ACCDF1
:1059E00069EA73E1CE0101960E9400A98E010F5F62
:1059F0001F4F2FE1B5CD65EA73E1CE0101960E94FC
:105A000000A98E010F5F1F4F2FE1BECD61EA73E148
:105A1000CE0101960E9400A98E010F5F1F4F2FE15A
:105A2000C7CD6DE973E1CE0101960E9400A98E01F8
:105A30000F5F1F4F2FE1D0CD69E973E1CE010196D1
:105A40000E9400A98E010F5F1F4F2FE1D9CD65E99C
:105A500073E1CE0101960E9400A98E010F5F1F4FD6
:105A60002FE1E2CD61E973E1CE0101960E9400A928
:105A70008E010F5F1F4F2FE1EBCD6DE873E1CE017B
:105A800001960E9400A98E010F5F1F4F2FE1F4CDF8
:105A900069E873E1CE0101960E9400A98E010F5FB3
:105AA0001F4F2FE1FDCD65E873E1CE0101960E9405
:105AB00000A98E010F5F1F4F2FE106CE61E873E151
:105AC000CE0101960E9400A98E010F5F1F4F2FE1AA
:105AD0000FCE6DE773E1CE0101960E9400A98E0101
