:100000000C94950C0C94C60C0C94C60C0C94C60C59
:100010000C94C60C0C94EE1A0C94C60C0C94C60CE2
:100020000C94C60C0C94FD1A0C946F6B0C94251B4D
:100030000C94C60C0C94C60C0C94C60C0C94C60CF8
:100040000C94C60C0C94C60C0C94C60C0C94C60CE8
:100050000C94C60C0C94C60C0C94C60C0C94EDB20B
:100060000C94C60C0C94A5AD0C94DBAD0C94C60C92
:100070000C94C60C0C94C60C0C94C60C0C94C60CB8
:100080000C94C60C0C94C60C0C94C60C0C94C60CA8
:100090000C94C60C0C94C60C0C94C60C0C9449948D
:1000A0000C94C60C0C94C60C0C94C60C0C94C60C88
:1000B0000C94C60C0C94C60C0C94C60C0C94DF1A51
:1000C0000C94C60C0C94C60C0C94C60C0C943CAE50
:1000D0000C9472AE0C94C60C0C94D3AE0C9409AF75
:1000E0000C94C60C07634236B79BD8A71A396856DA
:1000F00018AEBAAB558C1D3CB7CC5763BD6DEDFD4A
:10010000753EF6177231BF000000803F0800000006
:10011000BE922449123EABAAAA2ABECDCCCC4C3EFC
:1001200000000080BEABAAAAAA3E00000000BF00EB
:100130000000803F0000000000084178D3BB4387E7
:10014000D1133D190E3CC3BD4282AD2B3E68EC82FB
:1001500076BED98FE1A93E4C80EFFFBE01C4FF7F80
:100160003F00000000000C9444B40C949CAE0C942E
:1001700033AF0C94A6AE0C9458920C9430340C947B
:1001800064A60C94D3AC0C943DAF0C941E0D0C944F
:10019000E2A80C9456A60C94F8910C940EAB0C9417
:1001A0003AB40C941AAB0C9429340C9432B40C94D9
:1001B00036B40C9421920C94FF910C94BEA60C942E
:1001C0006AB40C9410340C942CB40C94376B0C94CB
:1001D0006DAC0C9459AC0C9460B40C94A5130C94B5
:1001E000B9A90C9422920C94E70D0C940FAE0C94C8
:1001F0004C920C944AA60C9429A60C943F340C946F
:10020000EE0C0C94F10C0C9447340C945CB40C94EC
:10021000030D0C946EB40C9430A60C9487920C943D
:10022000B8AA0C9458B40C9437A60C94D1330C94FF
:1002300065A60C947CAC0C9440B40C9412920C9473
:10024000060D0C94C6900C94F3AC0C944EB40C9424
:100250004C930C9472B40C94E1330C94CB0C0C942E
:100260003FAC0C9405AE0C9471B40C941A340C94FD
:10027000C80C0C9421340C944BAC0C94E0190C94E5
:10028000CF0C0C9452B40C9438340C94CDA60C942E
:10029000EC330C946AAF0C944AB40C9443A60C94BF
:1002A00066B46364696E6F70737578585B00004064
:1002B0007A10F35A00A0724E18090010A5D4E80075
:1002C00000E87648170000E40B54020000CA9A3B8D
:1002D000000000E1F5050000809698000000404213
:1002E0000F000000A08601000000102700000000A1
:1002F000E803000000006400000000000A000000A5
:1003000000000100000000002C76D888DC674F0850
:1003100023DFC1DFAE59E1B1B796E5E3E453C63A56
:10032000E651997696E8E6C28426EB898C9B62EDCD
:10033000407C6FFCEFBC9C9F40F2BAA56FA5F49087
:10034000055A2AF75C936B6CF9676DC11BFCE0E4FE
:100350000D47FEF520E6B500D0ED902E0300943554
:1003600077050080841E080000204E0A000000C8A7
:100370000C333333330F986E12831141EF8D2114F8
:10038000893BE65516CFFEE6DB18D1844B381BF7C8
:100390007C1D901DA4BBE424203284725E22810067
:1003A000C9F124ECA1E53D27CDCCCC3D0AD7233CB7
:1003B00017B7D13877CC2B329595E6241FB14F0A69
:1003C000000020410000C84200401C4620BCBE4C3A
:1003D000CA1B0E5AAEC59D7443686172676520449E
:1003E0006F6E6520004661737420436861726765B3
:1003F00020005072652D636861726765202000449B
:1004000069736368617267652020200046696C65C6
:10041000204E6F74204F70656E65642E2E2E2E0058
:1004200020202020202020202020202020202020CC
:1004300020202020202020202020202020202020BC
:100440002020202020004641494C004F4B00446FA3
:10045000776E6C6F6164696E67204669726D776153
:1004600072652E2E2E2020202020202020202020CB
:10047000202020002020202020202020202020209C
:10048000202020202020202020202020202020206C
:100490002020202020202020200046696C65204E4E
:1004A0006F742045786973742E2E2E2E0020202024
:1004B000202020202020202020202020202020203C
:1004C000202020202020202020202020202020202C
:1004D00020200046696C6520457869737420616E40
:1004E000642044656C657465642E2E2E2E002020D9
:1004F00020202020202020202020202020202020FC
:1005000020202020202020202020202020202020EB
:1005100020202000436F6E6E656374696E672074DF
:100520006F205365727665722E2E2E20202020209B
:1005300020202020202020202000202020202020DB
:1005400020202020202020202020202020202020AB
:1005500020202020202020202020202020202000BB
:10056000202020202020202020202020202020208B
:10057000202020202020202020202020202020207B
:10058000202020202000436C6F73696E6720536F1A
:10059000636B65742E2E2E2020202020202020200A
:1005A000202020202020202020202000202020206B
:1005B000202020202020202020202020202020203B
:1005C000202020202020202020202020202020202B
:1005D0002000202020202000526573706F6E73650C
:1005E000202D2D3E205B2020205D2020202020205B
:1005F000202020202020202020202020200020201B
:1006000020202020202020202020202020202020EA
:1006100020202020202020202020202020202020DA
:100620002020200047657474696E672052657370DE
:100630006F6E73652E2E2E2020202020202020205B
:1006400020202020202020202000202020202020CA
:10065000202020202020202020202020202020209A
:1006600020202020202020202020202020202000AA
:1006700057616974696E6720526573706F6E736538
:100680002E2E2E2020202020202020202020202040
:10069000202020202000202020202020202020207A
:1006A000202020202020202020202020202020204A
:1006B00020202020202020202020200053656E6450
:1006C000696E67205061636B2E2E2E202020202023
:1006D000202020202020202020202020202020201A
:1006E000200020202020202020202020202020202A
:1006F00020202020202020202020202020202020FA
:10070000202020202020200050617273696E672015
:100710004A534F4E205061636B2E2E2E20202020F6
:1007200020202020202020202020202020002020E9
:1007300020202020202020202020202020202020B9
:1007400020202020202020202020202020202020A9
:1007500020202000436F6E6E656374696E6720749D
:100760006F205365727665722E2E2E202020202059
:100770002020202020202020200020202020202099
:100780002020202020202020202020202020202069
:100790002020202020202020202020202020200079
:1007A0002020202020202020202020202020202049
:1007B0002020202020202020202020202020202039
:1007C0002020202020002020202020202020202049
:1007D0002020202020202020202020202020202019
:1007E000202020202020202020202000557064611F
:1007F00074696E672052544320436C6F636B2E2ED6
:100800002E002020202020202020202020202020FA
:1008100020202020202020202020202020202020D8
:10082000202020202020200041542B43434C4B000B
:100830005B202020205D0020202020202020202060
:1008400020202020202020202020202020202020A8
:100850002020202020202020202020200050434243
:100860005F48005043425F54005061796C6F61648F
:100870000043656C6C5F4944004C41430054414364
:1008800000436F6E6E54696D6500574453005253B8
:10089000534900494343494400494D45490046698D
:1008A000726D7761726500496F5400425F43530077
:1008B000425F5400425F534F4300425F4643004251
:1008C0005F494300425F414300425F495600506F19
:1008D00077657200446576696365004669726D7775
:1008E0006172650049440054696D655374616D70AF
:1008F00000556E6B6E6F776E00436F6D6D616E6449
:1009000000464F54415F446F776E6C6F61640043E3
:100910006F6D6D616E64004F66666C696E65004355
:100920006F6D6D616E6400416C61726D00436F6D3F
:100930006D616E6400496E74657272757074004307
:100940006F6D6D616E640054696D656400436F6D19
:100950006D616E640055706461746500436F6D6D08
:10096000616E64004F6E6C696E6500436F6D6D6102
:100970006E6400496E666F00202020202020202019
:100980002020202020202020202020202020202067
:100990002020202020202020202020202000415422
:1009A0002B575334363F00202020202020202020A9
:1009B0002020202020202020202020202020202037
:1009C00020202020202020202020202000415423EF
:1009D0004D4F4E4900202020202020202020202084
:1009E0002020202020202020202020202020202007
:1009F0002020202020202020202000506172616DC6
:100A000065746572205570646174652E2E2E002009
:100A100020202020202020202020202020202020D6
:100A200020202020202020202020202020202020C6
:100A300020202020004669726D7761726520446F26
:100A4000776E6C6F61642E2E2E00202020202020D7
:100A50002020202020202020202020202020202096
:100A600020202020202020202020202020202000A6
:100A7000526573657474696E672E2E2E00202020D7
:100A80002020202020202020202020202020202066
:100A90002020202020202020202020202020202056
:100AA000202000526573706F6E7365202D2D3E20DF
:100AB0005B2020205D0020202020202020202020DE
:100AC0002020202020202020202020202020202026
:100AD0002020202020202020202020005265636933
:100AE0006576696E67204D6573736167652E2E2E7E
:100AF0000020202020202020202020202020202016
:100B000020202020202020202020202020202020E5
:100B100020202020202000202020202020202020F5
:100B200020202020202020202020202020202020C5
:100B300020202020202020202020202000202020D5
:100B400020202020202020202020202020202020A5
:100B50002020202020202020202020202020202095
:100B600020200053656E64696E6720526573706F54
:100B70006E73652E2E2E0020202020202020202085
:100B80002020202020202020202020202020202065
:100B900020202020202020202020202000526573AB
:100BA000706F6E73650020202020202020202020E0
:100BB0002020202020202020202020202020202035
:100BC0002020202020202020202020002020202045
:100BD0002020202020202020202020202020202015
:100BE0002020202020202020202020202020202005
:100BF0002000202020202020202020202020202015
:100C000020202020202020202020202020202020E4
:100C100020202020202020002020204C6973746593
:100C20006E696E6720202000202050656E64696E1A
:100C30006720446174612000202020537573706523
:100C40006E646564202020004163746976652054D9
:100C500072616E736665720020202020436C6F7392
:100C6000656420202020200041542353533D2A0056
:100C7000415423534C3D2A2C302C38302C323535FE
:100C80000020202020202020202020202020202084
:100C90002020202020202020202020202020202054
:100CA000202020202020002020204C697374656EB5
:100CB000696E6720202000202050656E64696E6791
:100CC0002044617461200020202053757370656E8C
:100CD0006465642020200041637469766520547245
:100CE000616E736665720020202020436C6F73650F
:100CF0006420202020200041542353533D2A0041EA
:100D00005423534C3D2A2C312C38302C32353500AD
:100D100041542353533D32005B202020205D0020AE
:100D200020202020202020202020202020202020C3
:100D300020202020202020202020202020202020B3
:100D400020202020002020202020202020202020C3
:100D50002020202020202020202020202020202093
:100D600020202020202020202020004154234943FF
:100D70004D503D31004154234652574C3D312C2AB1
:100D80002A2A004154234652574C3D312C2A2A2A04
:100D9000004154234652574C3D312C2A2A2A004107
:100DA00054234652574C3D32005B202020205D00EA
:100DB0002020202020202020202020202020202033
:100DC0002020202020202020202020202020202023
:100DD0002020202020002020202020202020202033
:100DE0002020202020202020202020202020202003
:100DF0002020202020202020202020004154235388
:100E00004346474558543D322C312C302C312C3040
:100E10002C3000415423534346473D322C312C3172
:100E20003530302C39302C3330302C3530004154B3
:100E30002353434647455854323D332C312C302CF4
:100E4000302C302C300041542353434647455854EE
:100E50003D332C312C302C302C302C30004154239D
:100E6000534346473D332C312C313530302C39300B
:100E70002C313230302C30004154235246535453DD
:100E80000041542B575334363F00415423534741BC
:100E900043543D312C310041542B434744434F4E82
:100EA000543D312C49502C6D676273002020202066
:100EB0000041542B435245473F005B202020205DDA
:100EC0000020202020202020202020202020202042
:100ED0002020202020202020202020202020202012
:100EE00020202020202000526574727920496E69EC
:100EF0007469616C697A696E670020202020202067
:100F000020202020202020202020202020202020E1
:100F100020202020202020202020202020200047CA
:100F2000534D20496E697469616C697A696E6720F6
:100F30004661696C6564002020202020202020204C
:100F400020202020202020202020202020202020A1
:100F5000202020202020202020202000506F776596
:100F600072204F4E204D6F64656D002020202020A0
:100F70002020202020202020202020202020202071
:100F80002020202020202020202020202020200081
:100F9000415423534C454453415600415423534C30
:100FA00045443D32004154234750494F3D312C3098
:100FB0002C3200415423453252493D35302C3530D6
:100FC0000041542B474D520041542B474D4D004199
:100FD000542B474D490041542B434349440041544D
:100FE0002B4347534E0053494D204552524F5220F8
:100FF00000202053494D204F4B20200041542B43CB
:1010000050494E3F004154264B300041542B46433B
:101010004C4153533D300041542B434D45453D31E8
:101020000041542B4346554E3D312C300041542B4A
:1010300053494D4445543F00415430004154005BF6
:10104000202020205D002020202020202020202083
:101050002020202020202020202020202020202090
:101060002020202020202020202020000D0A000DFC
:101070000A00486F73743A200020485454502F31AE
:101080002E310D0A0047455420000D0A00557365A6
:10109000722D4167656E743A20506F73744F6666A7
:1010A0006963650D0A00436F6E74656E742D547923
:1010B00070653A206170706C69636174696F6E2F3E
:1010C0006A736F6E0D0A000D0A00436F6E74656ED1
:1010D000742D4C656E6774683A20000D0A00486FE5
:1010E00073743A200020485454502F312E310D0A89
:1010F00000504F535420000D0A00557365722D4166
:1011000067656E743A20506F73744F6666696365E5
:101110000D0A00436F6E74656E742D547970653AD4
:10112000206170706C69636174696F6E2F6A736F90
:101130006E0D0A00436F6E6E656374696F6E3A20C0
:10114000636C6F73650D0A00485454502F312E3173
:1011500020343036204E6F742041636365707461B3
:10116000626C650D0A00485454502F312E312034E2
:101170003035204D6574686F64204E6F7420416C6B
:101180006C6F7765640D0A00485454502F312E312E
:10119000203430302042616420526571756573746B
:1011A0000D0A00485454502F312E31203230322055
:1011B00041636365707465640D0A00485454502F90
:1011C000312E3120323030204F4B0D0A002C00419F
:1011D000542353524543563D004154235353454EE7
:1011E000443D0041542353533D002C0041542353AC
:1011F000413D002C002C002C00415423534C3D0059
:1012000041542353483D002C002C00222C002C225A
:10121000002C002C0041542353443D0041542B43E7
:10122000434C4B3F0041542349434D503D00222C39
:10123000223235352E3235352E3235352E32353592
:1012400022002C22004154234652574C3D002C00D2
:101250002C002C002C002C004154235343464745BE
:101260005854323D002C002C002C002C002C004146
:101270005423534346474558543D002C002C002C22
:10128000002C002C00415423534346473D00415459
:10129000234D4F4E4900415423524653545300416D
:1012A000542B575334363D0041542B575334363F5B
:1012B000002C0041542353474143543D0022002257
:1012C0002C22002C220041542B434744434F4E54C0
:1012D0003D0041542B435245473F00415423453282
:1012E000534C52493D00415423534C4544534156BD
:1012F00000415423534C45443D002C002C004154E4
:10130000234750494F3D0041542353494D444554D0
:101310003F00415423434349440041542B43504927
:101320004E3F004154264B004154450041542B434D
:101330004D45453D0041542B4346554E3D004154DB
:101340002B4347534E3D31004154235357504B4795
:10135000560041542B43474D4D0041542B43474DBC
:10136000490041542B46434C4153533D00415400E6
:101370004C5445003347003247004C544500334736
:10138000004C5445003247003347003247004C546C
:1013900045004C5445003347003247003347003284
:1013A00047004C54450033470032470058005F5F08
:1013B0005F5F5F005B2D2020205D004C0048004CEB
:1013C0000048004C0048004C0048004C0048004CCD
:1013D0000048004C0048004C0048004C0048004CBD
:1013E0000048004C0048004C0048004C0048004CAD
:1013F0000048004C0048004C0048004C0048004C9D
:101400000048004C0048004C0048004C0048004C8C
:101410000048004C0048004C0048004C0048004C7C
:101420000048004C0048004C0048004C0048004C6C
:101430000048004C0048004C0048005253343835F6
:10144000205B205D00454E56205B205D00454E32FE
:10145000205B205D00454E31205B205D00E294B4AE
:1014600000E2948200E294AC00E294B400E2948240
:1014700000E294AC00E294B400E2948200E294AC06
:1014800000E294B400E2948200E294AC00E294B4EE
:1014900000E2948200E294AC0042313037414100D6
:1014A00053656E642054696D6520286D5329203A78
:1014B0000055702054696D65203A00506F77657251
:1014C00053746174205634005B202020255D005B3E
:1014D00020202020204261725D005B2020202020FF
:1014E0004261725D004461746120436F756E7400E7
:1014F0002500536C6F706500426172004465766927
:101500006174696F6E004261720041766572616755
:101510006500426172004D617800426172004D6960
:101520006E0042617200496E7374616E740053659F
:101530006300446F776E6C6F61642054696D650061
:101540002500446F776E6C6F61642050657263652F
:101550006E740053442046696C652053697A6500B7
:101560004654502046696C652053697A6500446F83
:10157000776E6C6F61642053746174757300466993
:101580006C6520494400536F636B657400436F6E54
:101590006E656374696F6E205479706500495020E0
:1015A000416464726573730047534D204F706572D8
:1015B00061746F72005369676E616C204C6576656B
:1015C0006C00436F6E6E656374696F6E2054696D55
:1015D000650049434349440053657269616C204981
:1015E0004400494D4549004669726D776172650056
:1015F0004D6F64656C004D616E75666163747572E4
:101600006572004368617267652053746174650098
:101610006D4100496E7374616E742042617474652B
:101620007279204361706163697479002500537495
:10163000617465206F6620436861726765006D4163
:1016400000417665726167652043757272656E74DC
:1016500000430054656D7065726174757265005663
:1016600000496E7374616E7420566F6C74616765A7
:10167000004D696E0053656E6420496E7465727624
:10168000616C0025004D6F64756C652048756D694F
:10169000646974790043004D6F64756C652054650E
:1016A0006D7065726174757265004861726477610E
:1016B00072652056657273696F6E004669726D7748
:1016C0006172652056657273696F6E005365726949
:1016D000616C20494400456E6572677920416E61F6
:1016E0006C7973657200493243204261747465728B
:1016F0007920436861726765722028307836422904
:1017000000493243204261747465727920476175E3
:1017100067652028307833362900493243205465E4
:101720006D70657261747572652028307834302967
:10173000004932432053657269616C204944202876
:101740003078353029004932432052544320283024
:101750007835322900202E2E20002E2E2E2E2E2ED1
:101760002E2E2E2E2E2E2E2E2E2E2E2E2E2E2E2E99
:101770002E2E2E2E2E2E2E2E0020004641494C00BD
:10178000204F4B2000070048003B001B5B001B5B09
:10179000001B5B00E29480005D005B002E00E29481
:1017A0008000E294A400E2949C00E2948000E29421
:1017B000A400E2949C0030005B20205D00E2948055
:1017C00000E2948000E2948200E2948200E2949825
:1017D00000E2949000E2949400E2948C001B5B3F42
:1017E00032356C001B5B324A0000000B0C030A0D03
:1017F0000E0F0908040502000000000000000000B0
:1018000000000000000000000000000000000000D8
:101810000000000000131211000000000000000092
:1018200000000000000000000000000000000000B8
:1018300000000000000000000000000000000001A7
:1018400002102020080810204010204080020102D1
:101850000108040201010204081020408080402099
:1018600010080402018004020180402010080402D4
:101870000108040201010204081020408001020452
:10188000081020408004408004800810102040048C
:10189000081020408005050505070508080808020E
:1018A0000202020A0A0808040404040101010101F9
:1018B0000101010303030303030303040707070CE8
:1018C0000C0C0C0C0C0C0C0202020206060606069E
:1018D0000606060B0B0B0B0B0B0B0B05050508087F
:1018E00007070404040A0A0A0A0A0A00002200255B
:1018F0000028002B002E00310034000201000005FA
:101900000108010B0100002100240027002A002DFE
:10191000003000330001010000040107010A01004A
:10192000C6904C930FAEA6AE3DAF11241FBECFEFB5
:10193000D1E2DEBFCDBF00E00CBF18E0A0E0B2E016
:10194000E0EAFAE801E00BBF02C007900D92A03474
:10195000B107D9F724E1A0E4B8E001C01D92AE328E
:10196000B207E1F71CE0C5E9DCE000E006C0219722
:101970000109802FFE010E946CB5C039D10780E0BB
:101980000807A9F70E94DAB20C944EC50C94000027
:1019900090E080E0089582E080932C100895FC018F
:1019A000848583FF17C084A195A1A6A1B7A1448D0A
:1019B000558D668D778D841B950BA60BB70B811506
:1019C00020E89207A105B10520F08FEF9FE7A0E086
:1019D000B0E0089580E090E0DC01F1CF0C960C942B
:1019E0007A9BCF93DF931F92CDB7DEB7698341E037
:1019F00050E0BE016F5F7F4F0C960E947A9B0F9064
:101A0000DF91CF9108950C960C946F98CF93DF934C
:101A10001F92CDB7DEB741E050E0BE016F5F7F4F50
:101A20000C960E94AD96019731F4898190E00F9059
:101A3000DF91CF9108958FEF9FEFF9CF0C960C9423
:101A4000719A0F931F93CF93DF93EC01062F142FFE
:101A50006BE877E1888199810E94A6AF4AE050E067
:101A6000602F888199810E948FB069E877E1888131
:101A700099810E94A6AF4AE050E0612F8881998148
:101A80000E948FB067E877E188819981DF91CF91DB
:101A90001F910F910C94A6AF4F925F926F927F921D
:101AA0008F929F92AF92BF92CF92DF92EF92FF926E
:101AB0000F931F93CF93DF9300D000D0CDB7DEB745
:101AC0004B015C0187E190E09E838D83412C512C7A
:101AD0003201042F10E06D817E81601B710B072E97
:101AE000000C880B990B0E94AAB69B01AC0160E028
:101AF00070E080E090E40E942EB869837A838B8343
:101B00009C83C12CD12C7601C3940D8004C0CC0CD5
:101B1000DD1CEE1CFF1C0A94D2F7A50194010E9463
:101B2000FBB5181674F14C285D286E287F28298192
:101B30003A814B815C81C501B4010E948EB54B0195
:101B40005C018D819E8101979E838D83019619F69C
:101B5000C301B20126960FB6F894DEBF0FBECDBF0B
:101B6000DF91CF911F910F91FF90EF90DF90CF9079
:101B7000BF90AF909F908F907F906F905F904F90AD
:101B80000895C094D094E094F0944C205D206E2091
:101B90007F20D7CF882359F0809102018064809301
:101BA00002016CE271E080E090E00C9493B38091CC
:101BB00002018F7BF4CFFA01309741F02481207825
:101BC0002C6024836083718382839383089582E0F1
:101BD00080932C100895909100018091D41097FF6C
:101BE0000AC08823B1F089E891E10E9492AD109279
:101BF000D41080E0089581110CC026E040E052EC42
:101C000061E070E089E891E10E9440AD81E080935D
:101C1000D4100895FC011282148216821782638305
:101C200045834423D9F02223C9F0213011F42683BF
:101C300008952230E1F384E0233079F088E0243005
:101C400061F080E1253049F080E2263031F080E417
:101C5000273019F0283011F480E886830895CF9357
:101C6000DF93DC0115962C91211105C091E0892F9D
:101C7000DF91CF910895EC0141E060E7888199817F
:101C80000E94469388819981DC01ED91FC91028448
:101C9000F385E02D19959E81981741F360E78881BF
:101CA00099810E94C69288819981DC01ED91FC9115
:101CB0000190F081E02D6E811995888199810E94B3
:101CC000499391E0882399F290E0D1CF1F93CF936D
:101CD000DF93EC018A81811105C080E0DF91CF9113
:101CE0001F9108958C818823C1F3162F8D8188233D
:101CF00019F0CE010E942F0E6B81888199810E947C
:101D0000C69288819981DC01ED91FC910190F0816E
:101D1000E02D612F1995888199810E94499341E0B6
:101D20006B81888199810E94469388819981DC0129
:101D3000ED91FC910084F185E02D1995892B69F2D4
:101D400088819981DC01ED91FC910284F385E02D7D
:101D50001995C4CFFF920F931F93CF93DF93EC019C
:101D60009A81992369F19C81992351F1122F042FB3
:101D7000F62E8D81882319F0CE010E942F0E6B81E3
:101D8000888199810E94C69288819981DC01ED91B8
:101D9000FC910190F081E02D6F2D1995888199813A
:101DA000DC01ED91FC910190F081E02D602F1995FF
:101DB000612F888199810E94D09291E0811190E0F9
:101DC000892FDF91CF911F910F91FF9008951F935D
:101DD000CF93DF93EC01CB01798368830E94B492A7
:101DE00011E01A83CE010E942F0E6B8188819981A8
:101DF0000E94C692888199810E944993882329F084
:101E00001C82DF91CF911F9108951C83FACFDF923E
:101E1000EF92FF920F931F93CF93DF93EC011A8100
:101E20001123A1F11C81112389F1D22EE42EF62E6B
:101E30008D81882319F0CE010E942F0E6F2DCE01C7
:101E40000E94660E282F30E00E2C02C03595279593
:101E50000A94E2F720FF1AC001E010E020E030E031
:101E600004C0000F111F221F331FEA94D2F7009500
:101E7000402F48232D2D6F2DCE01DF91CF911F9143
:101E80000F91FF90EF90DF900C94AA0E812FDF91BD
:101E9000CF911F910F91FF90EF90DF900895EF92F7
:101EA000FF920F931F93CF93DF93EC011A811123BD
:101EB00089F11C81112371F1E22EF42E062F8D8100
:101EC000882319F0CE010E942F0E602FCE010E94B0
:101ED000660E282F30E00F2C02C0359527950A9406
:101EE000E2F720FD17C041E050E060E070E004C080
:101EF000440F551F661F771FFA94D2F7482B2E2DDB
:101F0000602FCE01DF91CF911F910F91FF90EF9045
:101F10000C94AA0E812FDF91CF911F910F91FF900A
:101F2000EF900895AF92BF92DF92EF92FF920F93DE
:101F30001F93CF93DF93EC018A818823F1F1DC803A
:101F4000DD20D9F1122F7A01B62E8D81882319F068
:101F5000CE010E942F0E6B81888199810E94C692CA
:101F600088819981DC01ED91FC910190F081E02D57
:101F70006B2D1995602F888199810E94D0928111D3
:101F80001CC0412F6B81888199810E944693570123
:101F9000012F10E0C5018E199F098017910770F479
:101FA00088819981DC01ED91FC910284F385E02D1B
:101FB0001995F50181935F01EDCFD12C8D2DDF9126
:101FC000CF911F910F91FF90EF90DF90BF90AF9056
:101FD0000895CF92DF92EF92FF920F931F93CF93CA
:101FE000DF93EC019A819923A9F19C81992391F1C6
:101FF000022F7A01162F8D81882319F0CE010E94BD
:102000002F0E6B81888199810E94C6928881998167
:10201000DC01ED91FC910190F081E02D612F19958B
:10202000670110E08881998196012E193F092017D8
:10203000310758F4F60161916F01DC01ED91FC91DB
:102040000190F081E02D1995EDCF0E94499391E028
:10205000811190E0892FDF91CF911F910F91FF9017
:10206000EF90DF90CF9008958F929F92AF92BF92A2
:10207000CF92DF92EF92FF920F931F93CF93DF9354
:10208000062F142F7901B90190E080E00E94A8B6D4
:102090004B015C0120E030E040E850E40E94F0B6E3
:1020A00020E030E0A9010E94FBB5811111C020E0C1
:1020B00030E048EC52E4C501B4010E94F0B620E0E3
:1020C00030E0A9010E94FBB5C1E0D0E0811113C04E
:1020D00020E030E048EC53E4C501B4010E94F0B6C2
:1020E000CC24C394D12C20E030E0A9010E94FBB5A0
:1020F0008111C12CE6018CEFE81688E0F80628F083
:1021000080E9E81A81E0F80AF6CF8CE6E81687E065
:10211000F80628F480E7E81A8EEFF80AF6CFC70130
:1021200064E670E00E9436B56B01B70190E080E094
:102130000E94A8B620E030E048EC52E40E94F0B6DD
:102140000E9479B685E1C816D104A9F086E1C816C7
:10215000D104A1F031E020E084E1C816D10409F4F3
:1021600030E0832F922F113061F4C130D10581F41A
:10217000C6E0D0E00DC085E090E0F5CF83E090E0D0
:10218000F2CF123061F5219709F44DC0C3E0D0E0E1
:10219000C00FD11DC60FD11D669566956C0F7D2FA2
:1021A000711D680F791F072E000C880B990B0E9478
:1021B000AAB620E030E040EE50E40E94F0B60E9463
:1021C00072B6862FDF91CF911F910F91FF90EF9004
:1021D000DF90CF90BF90AF909F908F900895D0E008
:1021E000C0E01A30A9F21830F1F0133079F2D0E0E3
:1021F000C0E01B3059F2143009F4BACF173009F49B
:10220000B7CF153051F0163059F0193019F01C3095
:1022100009F0BECFC5E0D0E0BBCFC1E0D0E0B8CF81
:10222000C4E0D0E0B5CFC2E0D0E0B2CFBF92CF9251
:10223000DF92EF92FF920F931F93CF93DF93EC0106
:102240007C0138E0E30EF11C8AE1F70111928A95D6
:10225000E9F760E0CE010E94660EB82E61E0CE0183
:102260000E94660EC82E62E0CE010E94660ED82E35
:1022700064E0CE010E94660E082F65E0CE010E9448
:10228000660E182F66E0CE010E94660E2B2D229559
:102290002F709AE0FB2DFF70BF2E299FB00C1124E8
:1022A0001F92BF922C2D22952F703C2D3F70C32E74
:1022B000299FC00C11241F92CF922D2D22952F7093
:1022C000ED2DEF70DE2E299FD00C11241F92DF928E
:1022D000202F22952F700F70299F000D11241F921F
:1022E0000F93212F22952F701F70299F100D1124FD
:1022F0001F921F93282F22952F708F70299F800D7A
:1023000011241F928F9389E493E09F938F93FF9200
:10231000EF920E94D0BC8DB79EB740960FB6F8944E
:102320009EBF0FBE8DBFDF91CF911F910F91FF9088
:10233000EF90DF90CF90BF900895AF92BF92CF9271
:10234000DF92EF92FF920F931F93CF93DF93EC01F5
:10235000A62EB42ED22E2C2D30E04E2D602F0E94B2
:102360003410F82E1AE08A2D612F0E942AB520E140
:10237000829FA0011124492B21E060E0CE010E9440
:10238000AA0E8B2D612F0E942AB520E1829FA00109
:102390001124492B21E061E0CE010E94AA0E8D2D6F
:1023A000612F0E942AB520E1829FA0011124492BB0
:1023B00021E062E0CE010E94AA0E8F2D612F0E94C3
:1023C0002AB520E1829FA0011124492B21E063E07E
:1023D000CE010E94AA0E802F612F0E942AB520E113
:1023E000829FA0011124492B21E064E0CE010E94CC
:1023F000AA0E8E2D612F0E942AB520E1829FA00196
:102400001124492B21E065E0CE010E94AA0E8C2DFB
:10241000612F0E942AB520E1829FA0011124492B3F
:1024200021E066E0CE01DF91CF911F910F91FF90E7
:10243000EF90DF90CF90BF90AF900C94AA0EEF92E8
:10244000FF920F93CF93DF9300D01F92CDB7DEB7EB
:102450007C0119821A821B821C82662329F121E0E9
:1024600040E06BE10E94AA0E21E04A816CE1C701C5
:102470000E94AA0E21E04B816DE1C7010E94AA0EC5
:1024800021E04C816EE1C7010E94AA0E69817A8128
:102490008B819C810F900F900F900F90DF91CF91C7
:1024A0000F91FF90EF90089501E024E0AE014F5F9F
:1024B0005F4F6BE10E94920FE9CF1F93CF93DF93A1
:1024C000EC01162F65E30E94660E482F112351F090
:1024D0004D7F456821E065E3CE01DF91CF911F91EB
:1024E0000C94AA0E4F77F6CF1F93CF93DF93EC0196
:1024F0006FED70E10E94E70E1C811123A1F021E035
:1025000045E067E3CE010E94070F61E0CE010E9423
:102510005D1221E041E060E1CE010E94070F61E021
:10252000CE010E941F12812FDF91CF911F9108953C
:102530008F929F92AF92BF92CF92EF920F931F9381
:10254000CF93DF935C01C62F4A01122FD32F21E0D6
:1025500042E06FE00E94070F21E044E060E1C50126
:102560000E94070F21E043E06EE0C5010E94070FC3
:1025700021E0412F6AE0C5010E94AA0E21E04D2F03
:102580006BE0C5010E94AA0E6FE0C5010E94660EB5
:10259000CC2361F1C82FC06880E488169104B1F1A2
:1025A00040F58A948928A9F1002331F021E044E024
:1025B00060E1C5010E944F0FE110C46021E04C2F83
:1025C0006FE0C5010E94AA0E21E041E062E1C50171
:1025D000CC2011F1DF91CF911F910F91EF90CF900F
:1025E000BF90AF909F908F900C944F0FC82FCF77D4
:1025F000D3CF811480E1980639F080E688168AEE00
:10260000980691F6C360D0CFCC7FCECFCC7FC1608F
:10261000CBCFCC7FC260C8CFDF91CF911F910F91FC
:10262000EF90CF90BF90AF909F908F900C94070F3A
:10263000FF920F931F93CF93DF93EC01062FF42E9D
:1026400080E06B32B8F56EE0CE010E94660E87FD29
:10265000FACF68E0CE010E94660E182F482F48601E
:1026600021E06FE0CE010E94AA0E21E0402F65E23A
:10267000CE010E94AA0E21E04F2D66E2CE010E94FB
:10268000AA0E21E040E067E2CE010E94AA0E21E0FE
:1026900041E267E2CE010E94AA0E6EE0CE010E94E6
:1026A000660E87FDFACF21E0412F6FE0CE010E9438
:1026B000AA0E81E0DF91CF911F910F91FF900895B5
:1026C0000F931F93CF93DF93EC01162F6B32D8F546
:1026D0006EE0CE010E94660E87FDFACF68E0CE0163
:1026E0000E94660E082F482F486021E06FE0CE015F
:1026F0000E94AA0E21E0412F65E2CE010E94AA0E9F
:1027000021E040E067E2CE010E94AA0E21E042E211
:1027100067E2CE010E94AA0E6EE0CE010E94660E14
:1027200087FDFACF66E2CE010E94660E182F21E0E7
:10273000402F6FE0CE010E94AA0E812FDF91CF9132
:102740001F910F91089510E0F8CFCF9360E089E3D7
:1027500090E10E946013CCE38C9FC0011124909300
:1027600007028093060261E089E390E10E94601312
:102770008C9FC0011124909309028093080220913C
:102780000602309107022937310530F428E730E09E
:102790003093070220930602CD9734F48CE390E047
:1027A000909309028093080281E08093D51082E023
:1027B00080932C10CF910895AF92BF92CF92DF9269
:1027C000EF92FF920F931F93CF93DF938C017C01C5
:1027D0008AE0E80EF11CE80162965E0185E7C82EEA
:1027E00083E0D82EF70181917F011F928F93DF92B2
:1027F000CF92DF93CF930E94D0BC22960F900F9080
:102800000F900F900F900F90EA14FB0459F7F80106
:1028100012A2DF91CF911F910F91FF90EF90DF9067
:10282000CF90BF90AF9008950F931F93CF93DF93F6
:10283000EC01062F142F242F462F60E50E940A0E6C
:10284000088719871A861B861C861D861E861F868A
:10285000188A198A629681E1FE0111928A95E9F738
:10286000DF91CF911F910F9108951F93CF93DF9325
:10287000EC016FED70E10E94E70E1C811123B1F1B4
:1028800020E041E068E0CE010E94AA0E67E0CE01A0
:102890000E94660E8A8766E0CE010E94660E8B87D4
:1028A00065E0CE010E94660E8C8764E0CE010E9436
:1028B000660E8D8763E0CE010E94660E8E8762E011
:1028C000CE010E94660E8F8761E0CE010E94660EE7
:1028D000888B60E0CE010E94660E898BCE010E943B
:1028E000DC13812FDF91CF911F9108951A861B86EB
:1028F0001C861D861E861F86188A198AEFCFCF93E5
:10290000DF93EC01242F462F60E40E940A0E188604
:10291000198680E090E0A0E8BFE38A879B87AC87B8
:10292000BD871E861F86188A198A8A8B9B8BAC8B63
:10293000BD8B1E8A1F8A188E198EDF91CF91089544
:102940001F93CF93DF93EC016FED70E10E94E70ED0
:102950001C81112309F475C021E047E06EE0CE012F
:102960000E944F0F62E370E080E090E00E9493B31A
:1029700021E047E66BE0CE010E94AA0E21E04EE581
:102980006AE0CE010E94AA0E21E04CEC6DE0CE017F
:102990000E94AA0E21E043E36CE0CE010E94AA0E41
:1029A00067E0CE010E94660E8F77482F486721E0CE
:1029B00067E0CE010E94AA0E21E040E06EE0CE0169
:1029C0000E944F0F21E041E06EE0CE010E94070F10
:1029D00021E042E06EE0CE010E944F0F6FE0CE0199
:1029E0000E94660E482F497F21E06FE0CE010E94D1
:1029F000AA0E6EE0CE010E94660E8F7D482F4065C4
:102A000021E06EE0CE010E94AA0E6FE0CE010E948E
:102A1000660E482F4F7321E06FE0CE010E94AA0E90
:102A20006FE0CE010E94660E482F4F7C21E06FE0E0
:102A3000CE010E94AA0E21E040E06FE0CE010E948C
:102A40004F0F812FDF91CF911F910895CF93DF9387
:102A5000EC01242F462F66E30E940A0E1886198681
:102A60001A861B861C861D861E861F86188A198A52
:102A70001A8A1B8A1C8ADF91CF910895DF92EF9208
:102A8000FF920F931F93CF93DF9300D01F92CDB788
:102A9000DEB77C016FED70E10E94E70EF701148153
:102AA000112309F400C186E08A8384E0D82EDB82FA
:102AB00002E00C8388E5898322E0AE014D5F5F4F21
:102AC0006DE1C7010E94E90F22E0AE014F5F5F4F49
:102AD0006BEBC7010E94E90F19821A8222E0AE0156
:102AE0004F5F5F4F6AEBC7010E94E90F80EA89835D
:102AF0008FE08A8322E0AE014F5F5F4F68E1C7013C
:102B00000E94E90F80E28983DA8222E0AE014F5F02
:102B10005F4F6BEDC7010E94E90F80E889830A834C
:102B200022E0AE014F5F5F4F6EE1C7010E94E90FE7
:102B300001E022E0AE014D5F5F4F6AE3C7010E94F2
:102B4000920F8B818F778B831C82898386E98A839E
:102B500022E0AE014F5F5F4F6AE3C7010E94E90FB9
:102B600022E0AE014D5F5F4F6AE3C7010E94920F02
:102B70008B8180788B839C81876589839A8322E00F
:102B8000AE014F5F5F4F6AE3C7010E94E90F22E089
:102B9000AE014F5F5F4F61E0C7010E94920F8EEB65
:102BA000898322E0AE014F5F5F4F61E0C7010E9461
:102BB000E90F22E0AE014F5F5F4F61E0C7010E9465
:102BC000920F87ED8A8322E0AE014F5F5F4F61E095
:102BD000C7010E94E90F22E0AE014F5F5F4F64EB37
:102BE000C7010E94920F85E28A8322E0AE014F5F07
:102BF0005F4F64EBC7010E94E90F22E0AE014F5F17
:102C00005F4F63E0C7010E94920F198222E0AE017C
:102C10004F5F5F4F63E0C7010E94E90F22E0AE0102
:102C20004F5F5F4F63E0C7010E94920F1A8222E05C
:102C3000AE014F5F5F4F63E0C7010E94E90F22E0E2
:102C4000AE014F5F5F4F62E0C7010E94920F8CEEB2
:102C5000898322E0AE014F5F5F4F62E0C7010E94AF
:102C6000E90F22E0AE014F5F5F4F62E0C7010E94B3
:102C7000920F8CE38A8322E0AE014F5F5F4F62E0E8
:102C8000C7010E94E90F19821A8222E0AE014F5F4C
:102C90005F4F60E0C7010E94E90F65E070E080E0EF
:102CA00090E00E9493B3812F0F900F900F900F90A0
:102CB000DF91CF911F910F91FF90EF90DF900895DA
:102CC0000F93CF93DF931F921F92CDB7DEB700E033
:102CD00022E0AE014F5F5F4F69E00E94920F698171
:102CE0007A8190E080E00E94A8B620E030E040EADF
:102CF0005FE30E94C1B720E030E040E85DE30E945E
:102D0000C1B720E030E04AE754E40E9400B60F90DB
:102D10000F90DF91CF910F9108950F93CF93DF9391
:102D20001F921F92CDB7DEB700E022E0AE014F5FE9
:102D30005F4F66E00E94920F69817A8190E080E0A7
:102D40000E94A8B620E030E040E85BE30E94C1B7F3
:102D50000F900F90DF91CF910F9108950F93CF9324
:102D6000DF931F921F92CDB7DEB700E022E0AE01E5
:102D70004F5F5F4F65E00E94920F29813A8145E0E5
:102D8000429FC001439F900D112468EE73E00E94A2
:102D900036B590E080E00E94A8B62AE037ED43E225
:102DA0005CE30E9400B60E9479B6CB010F900F90B1
:102DB000DF91CF910F910895CF92DF92EF92FF9222
:102DC0000F931F93CF938C016A017B012FE632E1B1
:102DD00043E050E4CB01B6010E94BCB787FF5CC062
:102DE0002FE632E143E05EE3C701B6010E94FBB586
:102DF000181644F09FE6C92E92E1D92E93E0E92EF1
:102E00009EE3F92E63E0C8010E94660EC82FCF70C2
:102E10002FE632E143E05EE3C701B6010E94FBB555
:102E2000811143C0C0612FE632E143E05FE3C70197
:102E3000B6010E94FBB5811143C0C0642FE632E1A8
:102E400043E85FE3C701B6010E94FBB5811143C0AF
:102E5000C06728E539E344EB5FE3C701B6010E9490
:102E6000FBB5811143C0C06A22E430E645EE5FE362
:102E7000C701B6010E94FBB5811143C0C06D21E0BE
:102E80004C2F63E0C801CF911F910F91FF90EF90FD
:102E9000DF90CF900C94AA0E8FE6C82E82E1D82E38
:102EA00083E0E82E80E4F82EADCF2FE632E143E850
:102EB0005EE3C701B6010E94FBB581112EC0C0625E
:102EC00026EA3BE944E45FE3C701B6010E94FBB593
:102ED00081112EC0C0652CEB34E743E95FE3C701E5
:102EE000B6010E94FBB581112EC0C06826EA3BE9FD
:102EF00044EC5FE3C701B6010E94FBB581112EC00F
:102F0000C06B2FE832EC45EF5FE3C701B6010E94CA
:102F1000FBB581112EC0C06EB2CF26EA3BE944EC6E
:102F20005EE3C701B6010E94FBB581117CCFC0638F
:102F300022E430E645E65FE3C701B6010E94FBB537
:102F400081117CCFC0662AE037ED43EA5FE3C70119
:102F5000B6010E94FBB581117CCFC06924EF3DEF23
:102F600044ED5FE3C701B6010E94FBB581117CCF40
:102F7000C06C2FE632E143E050E4C701B6010E9485
:102F8000FBB581117CCFC06F7ACF1F93CF93DF93B6
:102F9000EC016FED70E10E94E70E1C81111106C07B
:102FA00010E0812FDF91CF911F9108956AE0CE014B
:102FB0000E94660E8432A1F762E0CE010E94660E86
:102FC0008370482F406821E062E0CE010E94AA0E83
:102FD00064E0CE010E94660E8370482F406B21E0B2
:102FE00064E0CE010E94AA0E60E0CE010E94660E4F
:102FF000482F476021E060E0CE010E94AA0E60E009
:10300000CE010E94660E8778482F406721E060E07D
:10301000CE010E94AA0E61E0CE010E94660E482FEA
:103020004E6021E061E0CE010E94AA0E66E0CE0172
:103030000E94660E8F70482F406621E066E0CE0148
:103040000E94AA0E4FE652E163E87EE3CE010E94A1
:10305000DC1663E0CE010E94660E482F487F21E017
:1030600063E0CE010E94AA0E21E045E061E0CE01BE
:103070000E944F0F21E044E061E0CE010E944F0F1B
:1030800021E047E065E0CE010E944F0F21E045E0DE
:1030900067E0CE010E94070F65E0CE010E94660E38
:1030A00066E0CE010E94660E482F4F6021E066E088
:1030B000CE010E94AA0E21E045E061E0CE010E940F
:1030C000070F6FCF68E00E94660E85FD05C08295F0
:1030D0008170089582E0089584FFFCCF83E0089515
:1030E000089A1098099A119824982C9A25982D9A44
:1030F00026982E9A27982F9A6A9A72986B9A7398A4
:103100006C98749A6D98759A6E98769A6F9A77986B
:10311000A1E0B1E08C91877F8C93E2E0F1E08081C7
:10312000886080838C9180618C9380818F7E808386
:103130008C918F7D8C938081806280838C91806460
:103140008C9380818F7B80838C918F778C9380810F
:1031500080688083A4E0B1E08C918B7F8C93E5E064
:10316000F1E080818B7F80838C91877F8C9380813D
:10317000877F80838C918F7E8C9380818F7E8083EC
:103180008C9180628C938081806280838C9180643A
:103190008C9380818F7B80838C9180688C938081DD
:1031A0008F778083A7E0B1E08C918E7F8C93E8E0ED
:1031B000F1E080818E7F80838C918D7F8C938081E4
:1031C0008D7F80838C918B7F8C9380818B7F80839C
:1031D0008C91877F8C938081877F80838C918F7E79
:1031E0008C9380818F7E80838C918F7D8C93808166
:1031F0008F7D80838C918F7B8C9380818F7B80836C
:103200008C918F778C9380818F778083AAE0B1E057
:103210008C9181608C93EBE0F1E080818E7F8083E4
:103220008C9182608C9380818D7F80838C9184606F
:103230008C9380818B7F80838C9188608C9380813C
:10324000877F80830895CF93DF93EC011A821C82DD
:103250001D821E821F8282E58B83FE0138968AE1E1
:10326000DF011D928A95E9F740E060E0CE01829689
:103270000E94141440E060E0CE018B5B9F4F0E94DF
:103280007F1440E060E0CE01815A9F4F0E942615D6
:10329000DE01AC58BF4F12961C921297FE01E958FE
:1032A000FF4F118232961082118212828BE61396A2
:1032B0008C933396108211821282138214821582AB
:1032C000168217821086118612861386148615863A
:1032D00016861786709610821182128213821482CB
:1032E00015821682178238961082118212821382FA
:1032F00014821582369610821182CE01DF91CF9111
:103300000C947018FF920F931F93CF93DF938C014F
:1033100064E20E946013F82E65E2C8010E94601307
:10332000D82F66E2C8010E946013C82F67E2C80167
:103330000E946013F801EC57FF4F4D2F50E070E0F2
:1033400060E0BA01552744277F29482B5C2B408336
:10335000518362837383DF91CF911F910F91FF900F
:103360000895FF920F931F93CF93DF938C0160E238
:103370000E946013F82E61E2C8010E946013D82FEA
:1033800062E2C8010E946013C82F63E2C8010E9474
:103390006013F801E857FF4F4D2F50E070E060E0F8
:1033A000BA01552744277F29482B5C2B4083518342
:1033B00062837383DF91CF911F910F91FF900895E6
:1033C00089E390E10E94821989E390E10E94B1199A
:1033D00081E08093D51082E080932C100895CF93E4
:1033E000DF93EC0182960E943514882329F081E056
:1033F000FE01EB56FF4F8083CE010E94741288239A
:1034000029F081E0FE01EC56FF4F8083CE018B5BFB
:103410009F4F0E94A014882329F081E0FE01EA5604
:10342000FF4F8083CE01815A9F4F0E943E15882313
:1034300029F081E0FE01E956FF4F8083CE018C58D0
:103440009F4F0E94C517882329F081E0FE01E856AE
:10345000FF4F8083CE010E948219CE010E94B119D4
:1034600093B181E0292F207194FF80E08093DB10DD
:1034700093B181E0392F307295FF80E08093DC10AA
:1034800093B196FB992790F99093DD1083B1881F33
:103490008827881F8093DE10222319F021E0311144
:1034A00001C020E02093D7109093D8108093DA10B9
:1034B000F894109220018DE0809321018FE19CE12E
:1034C00090932901809328018091730082608093FA
:1034D0007300EC9A80916A00826080936A0085E0B4
:1034E0008093680080916B00806180936B00809175
:1034F0006B00806280936B0080916B00806480938E
:103500006B0080916B00806880936B0078940E94C0
:1035100034B3C457DF4F688379838A839B83DF91F9
:10352000CF91089573B16091DB1074FB882780F907
:1035300090E06817190641F083B1829581708093FD
:10354000DB1081E08093D71093B18091DC1095FB64
:10355000442740F950E08417150649F083B185FBF4
:10356000882780F98093DC1081E08093D71093B195
:103570008091DD1096FB222720F930E08217130698
:1035800049F083B186FB882780F98093DD1081E0C4
:103590008093D81083B12091DE1090E0880F892F9E
:1035A000881F990B2817190649F083B1881F8827AF
:1035B000881F8093DE1081E08093DA1008951F92B7
:1035C0000F920FB60F9211248F9381E08093D51044
:1035D0008F910F900FBE0F901F9018951F920F9212
:1035E0000FB60F9211248F9381E08093D9108F91A1
:1035F0000F900FBE0F901F9018951F920F920FB64D
:103600000F9211240BB60F922F933F934F935F931A
:103610006F937F938F939F93AF93BF93EF93FF939A
:103620000E94921AFF91EF91BF91AF919F918F915C
:103630007F916F915F914F913F912F910F900BBEB2
:103640000F900FBE0F901F9018951F920F920FB6FC
:103650000F9211248F9381E08093D6108F910F9059
:103660000FBE0F901F9018951F93CF93DF93DC012F
:1036700012962C912617D1F0162FEC0161E977E113
:10368000888199810E94A6AF4AE050E0612F88812D
:1036900099810E948FB088819981DC01ED91FC9124
:1036A0000190F081E02D6DE619951A83DF91CF919D
:1036B0001F9108951F93CF93DF93DC0114962C91F3
:1036C0002617D1F0162FEC016EE877E188819981F9
:1036D0000E94A6AF4AE050E0612F888199810E9444
:1036E0008FB088819981DC01ED91FC910190F0818E
:1036F000E02D6DE619951C83DF91CF911F91089500
:103700005F926F927F928F929F92AF92BF92CF9271
:10371000DF92EF92FF920F931F93CF93DF93CDB77A
:10372000DEB73C01162FB42ED22E65E20E94341B68
:1037300062E0C3010E945A1B4B2D612FC3010E94FE
:10374000210D69ED77E1F301808191810E94A6AF9F
:103750004B2D6D2DC3010E94210D65ED77E1F30125
:10376000808191810E94A6AF402F612FC3010E94EA
:10377000210D61ED77E1F301808191810E94A6AF77
:10378000402F6D2DC3010E94210D6DEC77E1F301F7
:10379000808191810E94A6AF99249394910E9D14EB
:1037A000D0F44B2D692DC3010E94210D69EC77E106
:1037B000F301808191810E94A6AF402F692DC30142
:1037C0000E94210D65EC77E1F301808191810E94D7
:1037D000A6AF9394E4CF992493949B0C592C501644
:1037E000D0F4452D612FC3010E94210D61EC77E1DA
:1037F000F301808191810E94A6AF452D6D2DC301FB
:103800000E94210D6DEB77E1F301808191810E948F
:10381000A6AF5394E4CF61E2C3010E94341B42E09F
:103820004B0D612FC3010E94210DB701F30180816F
:1038300091810E94CAAFCC20D1F165E2C3010E9400
:10384000341B4BEF400F612FC3010E94210D68EB29
:1038500077E1F301808191810E94A6AF8CEFF82E71
:10386000F00EF9E061E2C301FC1508F450C00E94BB
:10387000341B4F2D612FC3010E94210D66EB77E1B0
:10388000F301808191810E94A6AF61E2C3010E9491
:10389000341B4DEF400F612FC3010E94210D4AE000
:1038A00050E06C2DF301808191810E948FB0AA209D
:1038B00091F165E2C3010E94341B1E5F4B2D612F05
:1038C000C3010E94210D62EB77E1F30180819181B8
:1038D0000E94A6AF402F612FC3010E94210D6EEA06
:1038E00077E1F301808191810E94A6AFF92CF01657
:1038F00090F44F2D612FC3010E94210D6AEA77E1F8
:10390000F301808191810E94A6AFF394F0CF0E94D1
:10391000341B4F2DC0CF882071F165E2C3010E9496
:10392000341BDA94DA944B2D6D2DC3010E94210DC6
:1039300066EA77E1F301808191810E94A6AF402F72
:103940006D2DC3010E94210D62EA77E1F3018081B0
:1039500091810E94A6AF901670F4492D6D2DC30180
:103960000E94210D6EE977E1F301808191810E942F
:10397000A6AF9394F0CFDF91CF911F910F91FF905D
:10398000EF90DF90CF90BF90AF909F908F907F90FF
:103990006F905F900895DF92EF92FF920F931F93C5
:1039A000CF93DF9300D000D0CDB7DEB77C01D22E0D
:1039B0000E94210D6D2DC7010E94341BF701E0808C
:1039C000F180B801CE0101960E94E8B1BE016F5F9F
:1039D0007F4FC7010E94CAAFCE0101960E949CB0E2
:1039E00026960FB6F894DEBF0FBECDBFDF91CF9104
:1039F0001F910F91FF90EF90DF900895BF92CF92AB
:103A0000DF92EF92FF920F931F93CF93DF9300D03B
:103A100000D0CDB7DEB76C01B62EF42EE22EE40E48
:103A2000FE14A1F06CE977E1CE0101960E944AB242
:103A30008E010F5F1F4F2AE54F2D6B2DC6010E948F
:103A4000CB1CC8010E949CB0F394EACF26960FB617
:103A5000F894DEBF0FBECDBFDF91CF911F910F91C4
:103A6000FF90EF90DF90CF90BF900895BF92CF92DC
:103A7000DF92EF92FF920F931F93CF93DF9300D0CB
:103A800000D0CDB7DEB76C01E62EF42EB22E6AE977
:103A900077E1CE0101960E944AB28E010F5F1F4F5F
:103AA00025E24F2D6E2DC6010E94CB1CC8010E943D
:103AB0009CB068E977E1C8010E944AB24F2D4B0DD6
:103AC00025E26E2DC6010E94CB1CC8010E949CB04D
:103AD00026960FB6F894DEBF0FBECDBFDF91CF9113
:103AE0001F910F91FF90EF90DF90CF90BF900895BE
:103AF000CF92DF92EF92FF920F931F93CF93DF93BA
:103B000000D000D0CDB7DEB77C01D42EC22E662304
:103B100009F160E877E1CE0101960E944AB28E0178
:103B20000F5F1F4F20E24C2D6D2DC7010E94CB1C53
:103B3000C8010E949CB026960FB6F894DEBF0FBE57
:103B4000CDBFDF91CF911F910F91FF90EF90DF904C
:103B5000CF9008956BE777E1CE0101960E944AB2BB
:103B60008E010F5F1F4F2FE1DECFAF92BF92CF923A
:103B7000DF92EF92FF920F931F93CF93DF9300D0CA
:103B800000D0CDB7DEB76C01E62EF42E59010E94AD
:103B9000210D1EE169E777E1F601808191810E94A4
:103BA000A6AF1150B9F76AE577E1CE0101960E9400
:103BB0004AB28E010F5F1F4F2AE54F2D6E2DC601B1
:103BC0000E94CB1CC8010E949CB0B501C8010E9494
:103BD000E8B125E24F2D6E2DC6010E94CB1CC80115
:103BE0000E949CB065E577E1C8010E944AB24FE1AE
:103BF0004F0D22E26E2DC6010E94CB1CC8010E940F
:103C00009CB026960FB6F894DEBF0FBECDBFDF91F5
:103C1000CF911F910F91FF90EF90DF90CF90BF90C9
:103C2000AF9008956F927F928F929F92AF92BF92C2
:103C3000CF92DF92EF92FF920F931F93CF93DF9378
:103C400000D000D0CDB7DEB73C01D62EB42E122F57
:103C5000902E6AE773E0CE0101960E940EB1812C8E
:103C6000A12CCC24C394CE0101967C01212F4B2D95
:103C70006D2DC3010E94801BC7010E949CB066E4A9
:103C800077E1C7010E944AB282E0C82ECB0CAA2479
:103C9000A394AD0C870125E24C2D6A2DC3010E942F
:103CA000CB1CC7010E949CB0E92CEB1829EE2E0D0D
:103CB00040E14B0D6A2DC3010E94FE1C99EF990E45
:103CC00025E0492D6A2DC3010E94361D61E377E18D
:103CD000C8010E944AB292E0A92EAD0C25E24C2DFB
:103CE0006A2DC3010E94CB1CC8010E949CB023EE28
:103CF0002E0D46E14B0D6A2DC3010E94FE1C25E0EE
:103D0000492D6A2DC3010E94361D6AE177E1C80181
:103D10000E944AB223E0A22EAD0C25E24C2D6A2D62
:103D2000C3010E94CB1CC8010E949CB021EE2E0D45
:103D300048E14B0D6A2DC3010E94FE1C25E0492D70
:103D40006A2DC3010E94361D61E077E1C8010E941F
:103D50004AB234E0A32EAD0C25E24C2D6A2DC301EE
:103D60000E94CB1CC8010E949CB02FED2E0D4AE191
:103D70004B0D6A2DC3010E94FE1C25E0492D6A2DC2
:103D8000C3010E94361D66EE76E1C8010E944AB268
:103D900045E0A42EAD0C25E24C2D6A2DC3010E94F6
:103DA000CB1CC8010E949CB02DED2E0D4CE14B0D9B
:103DB0006A2DC3010E94FE1C25E0492D6A2DC30116
:103DC0000E94361D66ED76E1C8010E944AB286E087
:103DD000D80E25E24C2D6D2DC3010E94CB1CC801CD
:103DE0000E949CB028EE2E0D41E14B0D6D2DC301BC
:103DF0000E94FE1C25E0492D6D2DC3010E94361D39
:103E000026960FB6F894DEBF0FBECDBFDF91CF91DF
:103E10001F910F91FF90EF90DF90CF90BF90AF90E8
:103E20009F908F907F906F9008954F925F926F92C6
:103E30007F928F929F92AF92BF92CF92DF92EF923A
:103E4000FF920F931F93CF93DF9300D000D0CDB795
:103E5000DEB73C01D62EB42E522E902E6EE873E0C3
:103E6000CE0101960E940EB1812CA12C82E0C82EB9
:103E7000CE0101967C01252D4B2D6D2DC3010E9495
:103E8000801BC7010E949CB06CEC76E1C7010E94C8
:103E90004AB292E0E92EEB0CCC24C394CD0C8E01F7
:103EA0000F5F1F4F25E24E2D6C2DC3010E94CB1CCE
:103EB000C8010E949CB0F92CFB1822EEA22EAF0C78
:103EC0004BE04B0D2A2D6C2DC3010E94FE1C4DEEC4
:103ED000490D21E16C2DC3010E94361D6BEB76E18B
:103EE000C8010E944AB232E0C32ECD0C25E24E2D0D
:103EF0006C2DC3010E94CB1CC8010E949CB043EEF4
:103F0000442E4F0C52E1552E5B0C242D452D6C2D6B
:103F1000C3010E94FE1C65EF862E890C29E0482D06
:103F20006C2DC3010E94361D6AEA76E1C8010E9429
:103F30004AB273E0C72ECD0C25E24E2D6C2DC30185
:103F40000E94CB1CC8010E949CB0242D452D6C2DD5
:103F5000C3010E94FE1C29E0482D6C2DC3010E9464
:103F6000361D67E976E1C8010E944AB2E4E0CE2E30
:103F7000CD0C25E24E2D6C2DC3010E94CB1CC80137
:103F80000E949CB044E14B0D2A2D6C2DC3010E9470
:103F9000FE1CF6EFAF2EA90C28E04A2D6C2DC301B4
:103FA0000E94361D65E976E1C8010E944AB2ADEF74
:103FB0008A2E890C25E2482D6C2DC3010E94CB1C52
:103FC000C8010E949CB065E876E1C8010E944AB22F
:103FD000B5E0CB2ECD0C25E24E2D6C2DC3010E94F9
:103FE000CB1CC8010E949CB025EE2F0D41E14B0D6A
:103FF0006C2DC3010E94FE1C28E04A2D6C2DC301CC
:104000000E94361D63E876E1C8010E944AB225E2AB
:10401000482D6C2DC3010E94CB1CC8010E949CB08E
:1040200065E776E1C8010E944AB296E0D90E25E222
:104030004E2D6D2DC3010E94CB1CC8010E949CB067
:1040400027EE2F0D4FE04B0D6D2DC3010E94FE1C7E
:1040500028E04A2D6D2DC3010E94361D61E776E1EF
:10406000C8010E944AB24BEF490D25E26D2DC301F4
:104070000E94CB1CC8010E949CB026960FB6F894F3
:10408000DEBF0FBECDBFDF91CF911F910F91FF908B
:10409000EF90DF90CF90BF90AF909F908F907F90E8
:1040A0006F905F904F9008954F925F926F927F92C2
:1040B0008F929F92AF92BF92CF92DF92EF92FF9238
:1040C0000F931F93CF93DF9300D000D0CDB7DEB70F
:1040D0003C01D62E942E522EB02E6EE973E0CE0106
:1040E00001960E940EB1812CA12C83E0C82ECE0136
:1040F00001967C01252D492D6D2DC3010E94801B49
:10410000C7010E949CB061E676E1C7010E944AB2F5
:1041100092E0E92EE90CCC24C394CD0C8E010F5F04
:104120001F4F25E24E2D6C2DC3010E94CB1CC801F0
:104130000E949CB0FB2CF91821E1522E590C26EE5E
:104140002F0D452D6C2DC3010E94FE1C47EF4B0D1A
:1041500027E06C2DC3010E94361D6FE576E1C80192
:104160000E944AB23DEF832E8B0C25E2482D6C2D28
:10417000C3010E94CB1CC8010E949CB063E576E19C
:10418000C8010E944AB242E0C42ECD0C25E24E2D59
:104190006C2DC3010E94CB1CC8010E949CB029EE6B
:1041A0002F0D4DE0490D6C2DC3010E94FE1C56EFF2
:1041B000A52EAB0C28E04A2D6C2DC3010E94361DA4
:1041C00061E576E1C8010E944AB225E2482D6C2DD6
:1041D000C3010E94CB1CC8010E949CB061E476E13F
:1041E000C8010E944AB263E0C62ECD0C25E24E2DD6
:1041F0006C2DC3010E94CB1CC8010E949CB022EE12
:104200002F0D452D6C2DC3010E94FE1C43EF4B0D5D
:104210002BE06C2DC3010E94361D6EE376E1C801D0
:104220000E944AB27CEF472E4B0C25E2442D6C2DA8
:10423000C3010E94CB1CC8010E949CB06EE276E1D3
:10424000C8010E944AB2E4E0CE2ECD0C25E24E2DEC
:104250006C2DC3010E94CB1CC8010E949CB025EEAE
:104260002F0D452D6C2DC3010E94FE1C28E04A2D08
:104270006C2DC3010E94361D6CE276E1C8010E94DC
:104280004AB225E2482D6C2DC3010E94CB1CC80107
:104290000E949CB063E176E1C8010E944AB2F5E059
:1042A000CF2ECD0C25E24E2D6C2DC3010E94CB1CD0
:1042B000C8010E949CB02CED2F0D4AE1490D6C2DD8
:1042C000C3010E94FE1C28E04A2D6C2DC3010E94F0
:1042D000361D60E176E1C8010E944AB225E2442D14
:1042E0006C2DC3010E94CB1CC8010E949CB063E0EE
:1042F00076E1C8010E944AB296E0D90E25E24E2D21
:104300006D2DC3010E94CB1CC8010E949CB023EEFE
:104310002F0D4EE0490D6D2DC3010E94FE1C41EF93
:104320004B0D2DE06D2DC3010E94361D26960FB654
:10433000F894DEBF0FBECDBFDF91CF911F910F91DB
:10434000FF90EF90DF90CF90BF90AF909F908F90B5
:104350007F906F905F904F9008956F927F928F92B1
:104360009F92AF92BF92CF92DF92EF92FF920F9304
:104370001F93CF93DF9300D000D0CDB7DEB73C01C1
:10438000D62EB42E122F902E66EA73E0CE0101963F
:104390000E940EB1812CA12C84E0C82ECE01019682
:1043A0007C01212F4B2D6D2DC3010E94801BC70165
:1043B0000E949CB066EF75E1C7010E944AB292E08C
:1043C000E92EEB0CCC24C394CD0C8E010F5F1F4F54
:1043D00025E24E2D6C2DC3010E94CB1CC8010E940A
:1043E0009CB0F92CFB182DEE2F0D4EE04B0D6C2DD3
:1043F000C3010E94FE1C2BEF822E890C23E0482D66
:104400006C2DC3010E94361D60EF75E1C8010E944A
:104410004AB232E0C32ECD0C25E24E2D6C2DC301E5
:104420000E94CB1CC8010E949CB047E0A42EAB0C9C
:1044300024EF2F0D4A2D6C2DC3010E94FE1C23E09A
:10444000482D6C2DC3010E94361D67EE75E1C80131
:104450000E944AB253E0C52ECD0C25E24E2D6C2DA4
:10446000C3010E94CB1CC8010E949CB02AEE2F0DF4
:104470004AE04B0D6C2DC3010E94FE1C44EF490D18
:104480002AE06C2DC3010E94361D62EE75E1C80161
:104490000E944AB264E0C62ECD0C25E24E2D6C2D52
:1044A000C3010E94CB1CC8010E949CB078EE872EED
:1044B0008F0C46E04B0D282D6C2DC3010E94FE1C75
:1044C0004EEE490D20E16C2DC3010E94361D68EDB2
:1044D00075E1C8010E944AB2E5E0CE2ECD0C25E27E
:1044E0004E2D6C2DC3010E94CB1CC8010E949CB0B4
:1044F0004BE04B0D282D6C2DC3010E94FE1C43EF99
:10450000490D2BE06C2DC3010E94361D62ED75E153
:10451000C8010E944AB296E0D90E25E24E2D6D2DBB
:10452000C3010E94CB1CC8010E949CB023EE2F0D3A
:104530004A2D6D2DC3010E94FE1C4AEE490D24E157
:104540006D2DC3010E94361D26960FB6F894DEBF6E
:104550000FBECDBFDF91CF911F910F91FF90EF90D4
:10456000DF90CF90BF90AF909F908F907F906F9093
:1045700008954F925F926F927F928F929F92AF9227
:10458000BF92CF92DF92EF92FF920F931F93CF9340
:10459000DF9300D000D0CDB7DEB73C01D62EB42ECD
:1045A000522E902E61EB73E0CE0101960E940EB167
:1045B000812CA12C85E0C82ECE0101967C01252DF1
:1045C0004B2D6D2DC3010E94801BC7010E949CB022
:1045D00062EC75E1C7010E944AB292E0E92EEB0C51
:1045E000CC24C394CD0C8E010F5F1F4F25E24E2DBE
:1045F0006C2DC3010E94CB1CC8010E949CB0F92CF9
:10460000FB1821E1822E8B0C27EE2F0D482D6C2DEF
:10461000C3010E94FE1C38EFA32EA90C26E04A2DF0
:104620006C2DC3010E94361D65EB75E1C8010E9427
:104630004AB242E0C42ECD0C25E24E2D6C2DC301B2
:104640000E94CB1CC8010E949CB05AEE452E4F0C14
:104650006EE0562E5B0C242D452D6C2DC3010E945F
:10466000FE1C26E04A2D6C2DC3010E94361D68EA0F
:1046700075E1C8010E944AB273E0C72ECD0C25E255
:104680004E2D6C2DC3010E94CB1CC8010E949CB012
:10469000242D452D6C2DC3010E94FE1C26E04A2DC1
:1046A0006C2DC3010E94361D6DE975E1C8010E94A1
:1046B0004AB2E4E0CE2ECD0C25E24E2D6C2DC30186
:1046C0000E94CB1CC8010E949CB022EE2F0D4CE032
:1046D0004B0D6C2DC3010E94FE1C4EEE490D20E1D6
:1046E0006C2DC3010E94361D6DE875E1C8010E9462
:1046F0004AB2F5E0CF2ECD0C25E24E2D6C2DC30134
:104700000E94CB1CC8010E949CB023EE2F0D482DA7
:104710006C2DC3010E94FE1C44EF490D2AE06C2D54
:10472000C3010E94361D66E875E1C8010E944AB2C5
:1047300096E0D90E25E24E2D6D2DC3010E94CB1CB3
:10474000C8010E949CB024EE2F0D48E04B0D6D2D4A
:10475000C3010E94FE1C4CEE490D22E16D2DC301E8
:104760000E94361D26960FB6F894DEBF0FBECDBF51
:10477000DF91CF911F910F91FF90EF90DF90CF903D
:10478000BF90AF909F908F907F906F905F904F9071
:1047900008955F926F927F928F929F92AF92BF9295
:1047A000CF92DF92EF92FF920F931F93CF93DF93FD
:1047B00000D000D0CDB7DEB73C01D62E942E522EBD
:1047C000B02E60EC73E0CE0101960E940EB1812CF8
:1047D000A12C86E0C82ECE0101967C01252D492D05
:1047E0006D2DC3010E94801BC7010E949CB06EE723
:1047F00075E1C7010E944AB292E0E92EE90CCC248F
:10480000C394CD0C8E010F5F1F4F25E24E2D6C2DF2
:10481000C3010E94CB1CC8010E949CB0FB2CF9185C
:104820002EEE2F0D49E0490D6C2DC3010E94FE1C98
:1048300047EF4B0D27E06C2DC3010E94361D6EE63D
:1048400075E1C8010E944AB222E0C22ECD0C25E2D9
:104850004E2D6C2DC3010E94CB1CC8010E949CB040
:1048600038EE532E5F0C41E1490D252D6C2DC3010F
:104870000E94FE1C49EF4B0D25E06C2DC3010E94E8
:10488000361D60E675E1C8010E944AB243E0C42EBD
:10489000CD0C25E24E2D6C2DC3010E94CB1CC8010E
:1048A0000E949CB05FE0A52EA90C27EE2F0D4A2D8B
:1048B0006C2DC3010E94FE1C66EF862E8B0C28E037
:1048C000482D6C2DC3010E94361D63E575E1C801BA
:1048D0000E944AB274E0C72ECD0C25E24E2D6C2DFD
:1048E000C3010E94CB1CC8010E949CB04EE0490D40
:1048F000252D6C2DC3010E94FE1C28E0482D6C2D37
:10490000C3010E94361D62E475E1C8010E944AB2EB
:10491000E5E0CE2ECD0C25E24E2D6C2DC3010E947C
:10492000CB1CC8010E949CB096EEF90E42E1490DE5
:104930002F2D6C2DC3010E94FE1C48EF4B0D26E06D
:104940006C2DC3010E94361D60E475E1C8010E9410
:104950004AB24DEF4B0D25E26C2DC3010E94CB1CDA
:10496000C8010E949CB062E375E1C8010E944AB28E
:1049700086E0D80E25E24E2D6D2DC3010E94CB1C82
:10498000C8010E949CB02F2D4A2D6D2DC3010E949D
:10499000FE1C45EF4B0D29E06D2DC3010E94361D15
:1049A0006EE275E1C8010E944AB24BEF4B0D25E261
:1049B0006D2DC3010E94CB1CC8010E949CB026969D
:1049C0000FB6F894DEBF0FBECDBFDF91CF911F9120
:1049D0000F91FF90EF90DF90CF90BF90AF909F909E
:1049E0008F907F906F905F9008952F923F924F929B
:1049F0005F926F927F928F929F92AF92BF92CF926F
:104A0000DF92EF92FF920F931F93CF93DF9300D02B
:104A100000D01F92CDB7DEB73C01B62ED42E522E59
:104A2000902E65EC73E0CE0101960E940EB1812CB0
:104A3000A12C87E0C82ECE0101967C01252D4D2D9D
:104A40006B2DC3010E94801BC7010E949CB066E2CF
:104A500075E1C7010E944AB292E0F92EFD0CCC2408
:104A6000C394CB0C8E010F5F1F4F25E24F2D6C2D91
:104A7000C3010E94CB1CC8010E949CB0992D9D19B6
:104A80009F83492E8BEE480E29E0522E5D0C242D7B
:104A9000452D6C2DC3010E94FE1C34EFE32EE90C62
:104AA0002AE04E2D6C2DC3010E94361D62E275E195
:104AB000C8010E944AB24BEF842E890C25E2482D92
:104AC0006C2DC3010E94CB1CC8010E949CB06EE1FA
:104AD00075E1C8010E944AB252E0A52EAB0C25E256
:104AE0004F2D6A2DC3010E94CB1CC8010E949CB0AF
:104AF0002F809FEE290E65E0362E3D0C222D432D92
:104B00006A2DC3010E94FE1C2AE04E2D6A2DC301AE
:104B10000E94361D6AE175E1C8010E944AB225E291
:104B2000482D6A2DC3010E94CB1CC8010E949CB075
:104B300066E175E1C8010E944AB273E0C72ECB0C52
:104B400025E24F2D6C2DC3010E94CB1CC8010E9491
:104B50009CB0222D432D6C2DC3010E94FE1C2AE027
:104B60004E2D6C2DC3010E94361D62E175E1C80116
:104B70000E944AB225E2482D6C2DC3010E94CB1C35
:104B8000C8010E949CB06AE075E1C8010E944AB267
:104B9000E4E03E2E3B0C25E24F2D632DC3010E9425
:104BA000CB1CC8010E949CB0242D452D632DC30150
:104BB0000E94FE1C2AE04E2D632DC3010E94361D6B
:104BC00066E075E1C8010E944AB225E2482D632DD6
:104BD000C3010E94CB1CC8010E949CB06CEF74E121
:104BE000C8010E944AB2F5E05F2E5B0C25E24F2D12
:104BF000652DC3010E94CB1CC8010E949CB02F816F
:104C000027514BE04D0D652DC3010E94FE1C2AE08B
:104C10004E2D652DC3010E94361D68EF74E1C80159
:104C20000E944AB225E2482D652DC3010E94CB1C8B
:104C3000C8010E949CB062EF74E1C8010E944AB2B0
:104C4000A6E08A2E8B0C25E24F2D682DC3010E9411
:104C5000CB1CC8010E949CB02F81235147E04D0D11
:104C6000682DC3010E94FE1C2AE04E2D682DC30151
:104C70000E94361D60EF74E1C8010E944AB24DEFF8
:104C8000490D25E2682DC3010E94CB1CC8010E947A
:104C90009CB065EE74E1C8010E944AB287E0B80E8C
:104CA00025E24F2D6B2DC3010E94CB1CC8010E9431
:104CB0009CB02F8122514CE04D0D6B2DC3010E9401
:104CC000FE1C4AEF490D24E06B2DC3010E94361DE6
:104CD0006AED74E1C8010E944AB2B0E1FB2EFD0CFE
:104CE00025E24F2D6A2DC3010E94CB1CC8010E94F2
:104CF0009CB06FEC74E1C8010E944AB225E24F2DCE
:104D00006C2DC3010E94CB1CC8010E949CB068ECB2
:104D100074E1C8010E944AB244E14D0D25E2682DBC
:104D2000C3010E94CB1CC8010E949CB027960FB6FD
:104D3000F894DEBF0FBECDBFDF91CF911F910F91D1
:104D4000FF90EF90DF90CF90BF90AF909F908F90AB
:104D50007F906F905F904F903F902F9008956F924B
:104D60007F928F929F92AF92BF92CF92DF92EF92FB
:104D7000FF920F931F93CF93DF9300D000D0CDB756
:104D8000DEB73C01D62EB42E122F902E68E477E0C9
:104D9000CE0101960E940EB1812CA12CC12CCE0116
:104DA00001967C01212F4B2D6D2DC3010E94801B8C
:104DB000C7010E949CB06EEC73E0C7010E940EB167
:104DC00037E1F32EFB0C61E06D0D8E010F5F1F4F7D
:104DD00025E24F2DC3010E94CB1CC8010E949CB04C
:104DE0009CEF990E882483948B0C42E0C42ECD0C4A
:104DF00065E2C3010E94341B52E0A52EAB0CEA2CE5
:104E0000890C9924991CE814190474F44E2D6C2D06
:104E1000C3010E94210D64E977E1F3018081918152
:104E20000E94A6AFE394EFCF69E177E0CE0101964F
:104E30000E940EB183E0C82ECD0C8E010F5F1F4F74
:104E400025E24A2D6C2DC3010E94CB1CC8010E9493
:104E50009CB061ED77E0C8010E940EB194E0E92EAC
:104E6000ED0C25E24A2D6E2DC3010E94CB1CC8011A
:104E70000E949CB067EC77E0C8010E940EB1F5E09B
:104E8000DF0E25E24A2D6D2DC3010E94CB1CC80107
:104E90000E949CB02AE0A22EAB0C2BE04A2D6C2D78
:104EA000C3010E94361D6DE274E0C8010E940EB17C
:104EB0008BE0B80E2AE54B2D6C2DC3010E94CB1C54
:104EC000C8010E949CB02BE04A2D6E2DC3010E94A8
:104ED000361D6DE274E0C8010E940EB12AE54B2D2B
:104EE0006E2DC3010E94CB1CC8010E949CB02BE018
:104EF0004A2D6D2DC3010E94361D6DE274E0C8017C
:104F00000E940EB12AE54B2D6D2DC3010E94CB1CD2
:104F1000C8010E949CB060E374E0C8010E940EB119
:104F20002AE54F2D6C2DC3010E94CB1CC8010E94A5
:104F30009CB060E374E0C8010E940EB12AE54F2DD9
:104F40006E2DC3010E94CB1CC8010E949CB060E37F
:104F500074E0C8010E940EB12AE54F2D6D2DC301EA
:104F60000E94CB1CC8010E949CB026960FB6F894F4
:104F7000DEBF0FBECDBFDF91CF911F910F91FF908C
:104F8000EF90DF90CF90BF90AF909F908F907F90E9
:104F90006F9008952F923F924F925F926F927F92FF
:104FA0008F929F92AF92BF92CF92DF92EF92FF9239
:104FB0000F931F93CF93DF9300D000D000D0CDB7D5
:104FC000DEB73C01D62EB42E6DED77E1FC01808179
:104FD00091810E94A6AF64EE77E1F3018081918117
:104FE0000E94A6AF65E2C3010E94341B65E070E039
:104FF00080E090E00E9493B368E477E0CE010196F0
:105000000E940EB18EE2582E5D0C09E70B0D88242C
:105010008394AA24A394C12CCE0101967C01252D52
:105020004B2D6D2DC3010E94801BC7010E949CB0B7
:1050300061E0C3010E945A1B6BEB74E1C7010E943F
:105040004AB2992493949D0C46E34B0D870125E2C7
:10505000692DC3010E94CB1CC7010E949CB060E077
:10506000C3010E945A1B61EB74E1C7010E944AB25E
:1050700042E04B0D25E2692DC3010E94CB1CC70104
:105080000E949CB060EA74E1C7010E944AB242E605
:105090004B0D25E2692DC3010E94CB1CC7010E9464
:1050A0009CB098E29B0D98872AE0222E2D0C11E0EF
:1050B0001B0D33E0332E3D0C092F222D412F632D84
:1050C000C3010E94121E40E5942E9B0CE9E2EB0DF9
:1050D000E987092D222D4E2F632DC3010E94151F34
:1050E00058E7452E4B0CF1E5FB0DFF83042D222DD7
:1050F0004F2F632DC3010E94542062E1262E2D0CF8
:105100007BE0372E3D0C0885222D412F632DC301F6
:105110000E94AD21092D222D4985632DC3010E94D6
:10512000B922042D222D4F81632DC3010E94C92372
:1051300068E477E0C7010E940EB125E12D0D63E11F
:105140006D0D812CA12C412FC3010E94801BC70132
:105150000E949CB06FE874E0C7010E940EB1EEE1BE
:105160002E2E2D0CF6E13F2E3D0C092D222D412F28
:10517000632DC3010E94801BC7010E949CB0042DB7
:10518000222D4F81632DC3010E94F52464E974E050
:10519000C7010E940EB1A4E22A2E2D0CBFE13B2EC6
:1051A0003D0C08E0C02E0885222D412F632DC30140
:1051B0000E94801BC7010E949CB06CE974E0C7018B
:1051C0000E940EB1092D222D4985632DC3010E9435
:1051D000801BC7010E949CB064EA74E0C7010E9472
:1051E0000EB1042D222D4F81632DC3010E94801B1F
:1051F000C7010E949CB02BE22D0D65E26D0D412F81
:10520000C3010E94AF2669E974E1C7010E944AB256
:105210008DE2482E4D0C42E74B0D870121E2642DB3
:10522000C3010E94CB1CC7010E949CB065E974E1D8
:10523000C7010E944AB296E4392E3B0C9CE2D90E7B
:1052400025E2432D6D2DC3010E94CB1CC7010E9496
:105250009CB061E974E1C7010E944AB225E2432D86
:10526000642DC3010E94CB1CC7010E949CB06DE855
:1052700074E1C7010E944AB225E2432D652DC301A6
:105280000E94CB1CC7010E949CB069E874E1C70171
:105290000E944AB225E2492D6D2DC3010E94CB1C0C
:1052A000C7010E949CB065E874E1C7010E944AB240
:1052B00025E2492D642DC3010E94CB1CC7010E9429
:1052C0009CB061E874E1C7010E944AB225E2492D11
:1052D000652DC3010E94CB1CC7010E949CB06DE7E5
:1052E00074E1C7010E944AB22AE5922E9B0C25E286
:1052F000492D6D2DC3010E94CB1CC7010E949CB09B
:1053000069E774E1C7010E944AB225E2492D642D84
:10531000C3010E94CB1CC7010E949CB065E774E1E9
:10532000C7010E944AB225E2492D652DC3010E94A2
:10533000CB1CC7010E949CB061E774E1C7010E94C9
:105340004AB234E6932E9B0C25E2492D6D2DC30104
:105350000E94CB1CC7010E949CB06DE674E1C7019E
:105360000E944AB225E2492D642DC3010E94CB1C44
:10537000C7010E949CB069E674E1C7010E944AB26D
:1053800025E2492D652DC3010E94CB1CC7010E9457
:105390009CB065E674E1C7010E944AB240E7942ED2
:1053A0009B0C25E2492D6D2DC3010E94CB1CC7012A
:1053B0000E949CB061E674E1C7010E944AB225E2F6
:1053C000492D642DC3010E94CB1CC7010E949CB0D3
:1053D0006DE574E1C7010E944AB225E2492D652DB1
:1053E000C3010E94CB1CC7010E949CB065E574E11B
:1053F000C7010E944AB248E44B0D25E2642DC30167
:105400000E94CB1CC7010E949CB06DE474E1C701EF
:105410000E944AB242E54B0D25E2642DC3010E9471
:10542000CB1CC7010E949CB065E474E1C7010E94D7
:105430004AB24CE54B0D25E2642DC3010E94CB1C02
:10544000C7010E949CB06BE374E1C7010E944AB29D
:1054500046E64B0D25E2642DC3010E94CB1CC7011B
:105460000E949CB029960FB6F894DEBF0FBECDBF48
:10547000DF91CF911F910F91FF90EF90DF90CF9030
:10548000BF90AF909F908F907F906F905F904F9064
:105490003F902F9008958F929F92AF92BF92CF929C
:1054A000DF92FF920F931F93CF93DF9300D000D032
:1054B000CDB7DEB76C01F62E49015A0168E477E0FA
:1054C000CE0101960E940EB10CE110E0D501C4019D
:1054D000002E04C0B695A795979587950A94D2F7A4
:1054E000682F6F706A300CF0A7C2605DCE01019624
:1054F0000E947FB2045011090C3F8FEF180731F75B
:1055000088E2F80E8E010F5F1F4F2AE54FE06F2DE6
:10551000C6010E94CB1CC8010E949CB080FE8EC2B6
:1055200069E374E1C8010E944AB220E246E76F2DA8
:10553000C6010E94CB1CC8010E949CB081FE89C29A
:1055400065E374E1CE0101960E944AB28E010F5FBD
:105550001F4F20E243E76F2DC6010E94CB1CC801FC
:105560000E949CB082FE80C261E374E1CE0101968C
:105570000E944AB28E010F5F1F4F20E240E76F2D5D
:10558000C6010E94CB1CC8010E949CB083FE77C25A
:105590006DE274E1CE0101960E944AB28E010F5F66
:1055A0001F4F20E24DE66F2DC6010E94CB1CC801A3
:1055B0000E949CB084FE6EC269E274E1CE01019645
:1055C0000E944AB28E010F5F1F4F20E24AE66F2D04
:1055D000C6010E94CB1CC8010E949CB085FE65C21A
:1055E00065E274E1CE0101960E944AB28E010F5F1E
:1055F0001F4F20E247E66F2DC6010E94CB1CC80159
:105600000E949CB086FE5CC261E274E1CE0101960C
:105610000E944AB28E010F5F1F4F20E244E66F2DB9
:10562000C6010E94CB1CC8010E949CB087FE53C2D9
:105630006DE174E1CE0101960E944AB28E010F5FC6
:105640001F4F20E241E66F2DC6010E94CB1CC8010E
:105650000E949CB090FE4AC269E174E1CE010196BD
:105660000E944AB28E010F5F1F4F20E24EE56F2D60
:10567000C6010E94CB1CC8010E949CB091FE41C291
:1056800065E174E1CE0101960E944AB28E010F5F7E
:105690001F4F20E24BE56F2DC6010E94CB1CC801B5
:1056A0000E949CB092FE38C261E174E1CE01019685
:1056B0000E944AB28E010F5F1F4F20E248E56F2D16
:1056C000C6010E94CB1CC8010E949CB093FE2FC251
:1056D0006DE074E1CE0101960E944AB28E010F5F27
:1056E0001F4F20E245E56F2DC6010E94CB1CC8016B
:1056F0000E949CB094FE26C269E074E1CE0101963E
:105700000E944AB28E010F5F1F4F20E242E56F2DCB
:10571000C6010E94CB1CC8010E949CB095FE1DC210
:1057200065E074E1CE0101960E944AB28E010F5FDE
:105730001F4F20E24FE46F2DC6010E94CB1CC80111
:105740000E949CB096FE14C261E074E1CE01019605
:105750000E944AB28E010F5F1F4F20E24CE46F2D72
:10576000C6010E94CB1CC8010E949CB097FE0BC2D0
:105770006DEF73E1CE0101960E944AB28E010F5F78
:105780001F4F20E249E46F2DC6010E94CB1CC801C7
:105790000E949CB0A0FE02C269EF73E1CE010196A7
:1057A0000E944AB28E010F5F1F4F20E246E46F2D28
:1057B000C6010E94CB1CC8010E949CB0A1FEF9C189
:1057C00065EF73E1CE0101960E944AB28E010F5F30
:1057D0001F4F20E243E46F2DC6010E94CB1CC8017D
:1057E0000E949CB0A2FEF0C161EF73E1CE01019670
:1057F0000E944AB28E010F5F1F4F20E240E46F2DDE
:10580000C6010E94CB1CC8010E949CB0A3FEE7C148
:105810006DEE73E1CE0101960E944AB28E010F5FD8
:105820001F4F20E24DE36F2DC6010E94CB1CC80123
:105830000E949CB0A4FEDEC169EE73E1CE01019628
:105840000E944AB28E010F5F1F4F20E24AE36F2D84
:10585000C6010E94CB1CC8010E949CB0A5FED5C108
:1058600065EE73E1CE0101960E944AB28E010F5F90
:105870001F4F20E247E36F2DC6010E94CB1CC801D9
:105880000E949CB0A6FECCC161EE73E1CE010196F0
:105890000E944AB28E010F5F1F4F20E244E36F2D3A
:1058A000C6010E94CB1CC8010E949CB0A7FEC3C1C8
:1058B0006DED73E1CE0101960E944AB28E010F5F39
:1058C0001F4F20E241E36F2DC6010E94CB1CC8018F
:1058D0000E949CB0B0FEBAC169ED73E1CE010196A1
:1058E0000E944AB28E010F5F1F4F20E24EE26F2DE1
:1058F000C6010E94CB1CC8010E949CB0B1FEB1C180
:1059000065ED73E1CE0101960E944AB28E010F5FF0
:105910001F4F20E24BE26F2DC6010E94CB1CC80135
:105920000E949CB0B2FEA8C161ED73E1CE01019668
:105930000E944AB28E010F5F1F4F20E248E26F2D96
:10594000C6010E94CB1CC8010E949CB0B3FE9FC13F
:105950006DEC73E1CE0101960E944AB28E010F5F99
:105960001F4F20E245E26F2DC6010E94CB1CC801EB
:105970000E949CB0B4FE96C169EC73E1CE01019621
:105980000E944AB28E010F5F1F4F20E242E26F2D4C
:10599000C6010E94CB1CC8010E949CB0B5FE8DC1FF
:1059A00065EC73E1CE0101960E944AB28E010F5F51
:1059B0001F4F20E24FE16F2DC6010E94CB1CC80192
:1059C0000E949CB0B6FE84C161EC73E1CE010196E9
:1059D0000E944AB28E010F5F1F4F20E24CE16F2DF3
:1059E000C6010E94CB1CC8010E949CB0B7FE7BC1BF
:1059F0006DEB73E1CE0101960E944AB28E010F5FFA
:105A00001F4F20E249E16F2DC6010E94CB1CC80147
:105A10000E949CB026960FB6F894DEBF0FBECDBF95
:105A2000DF91CF911F910F91FF90DF90CF90BF90AA
:105A3000AF909F908F900895695C58CD67E374E1B3
:105A4000CE0101960E944AB28E010F5F1F4F2FE1D7
:105A50006DCD63E374E1CE0101960E944AB28E01DE
:105A60000F5F1F4F2FE176CD6FE274E1CE010196FB
:105A70000E944AB28E010F5F1F4F2FE17FCD6BE274
:105A800074E1CE0101960E944AB28E010F5F1F4F52
:105A90002FE188CD67E274E1CE0101960E944AB2FF
:105AA0008E010F5F1F4F2FE191CD63E274E1CE01B4
:105AB00001960E944AB28E010F5F1F4F2FE19ACDCF
:105AC0006FE174E1CE0101960E944AB28E010F5F30
:105AD0001F4F2FE1A3CD6BE174E1CE0101960E942F
