:100000000C947E0A0C94AF0A0C94AF0A0C94AF0ABD
:100010000C94AF0A0C94AF0A0C94AF0A0C94AF0A7C
:100020000C94AF0A0C94FC5F0C9434600C944E60FA
:100030000C94AF0A0C9415C70C94AF0A0C94AF0A39
:100040000C94AF0A0C94AF0A0C94AF0A0C94AF0A4C
:100050000C94AF0A0C94AF0A0C94AF0A0C943BCAF0
:100060000C94AF0A0C94A9BF0C94DFBF0C94AF0A98
:100070000C94AF0A0C94AF0A0C94AF0A0C94AF0A1C
:100080000C94AF0A0C94AF0A0C94AF0A0C94AF0A0C
:100090000C9440C00C9476C00C94AF0A0C9426BD0E
:1000A0000C94AF0A0C94AF0A0C94AF0A0C94AF0AEC
:1000B0000C94AF0A0C94AF0A0C94AF0A0C94615ED6
:1000C0000C94AF0A0C94AF0A0C94AF0A0C94D7C0EE
:1000D0000C940DC10C94AF0A0C946EC10C94A4C185
:1000E0000C94AF0A07634236B79BD8A71A396856F3
:1000F00018AEBAAB558C1D3CB7CC5763BD6DEDFD4A
:10010000753EF6177231BF000000803F0800000006
:10011000BE922449123EABAAAA2ABECDCCCC4C3EFC
:1001200000000080BEABAAAAAA3E00000000BF00EB
:100130000000803F0000000000084178D3BB4387E7
:10014000D1133D190E3CC3BD4282AD2B3E68EC82FB
:1001500076BED98FE1A93E4C80EFFFBE01C4FF7F80
:100160003F00000000000C9456BE0C9441C10C945A
:1001700062BE0C94FFBA0C94C0CB0C94EBAB0C9405
:100180008FAB0C9409C00C9475AC0C94A5AB0C947B
:10019000B8CB0C9429BB0C940ABF0C94FEBA0C94F7
:1001A00037AE0C94BFCB0C9435BB0C943BB70C947E
:1001B00064B00C9484CB0C94AACB0C947ACB0C94A2
:1001C000EFBA0C946BB00C94AECB0C94A6CB0C9401
:1001D00037C10C948CAB0C94D8C10C9429BC0C94F2
:1001E0008ECB0C9493BE0C94E1AB0C9413C00C9486
:1001F000B4CB0C94517F0C9405C20C94C2AB0C94FC
:10020000AAC00C9470BE0C94A0C00C94BCCB0C94EF
:10021000D5BA0C94EABE0C9480CB0C949CCB0C9475
:1002200098CB0C9464BB0C94CEC10C94DCBA0C94A7
:10023000A0CB0C9484BE0C9492CB0C9488CB6364BA
:10024000696E6F70737578585B0000407A10F35ACE
:1002500000A0724E18090010A5D4E80000E8764806
:10026000170000E40B54020000CA9A3B000000E1B2
:10027000F505000080969800000040420F00000045
:10028000A08601000000102700000000E803000025
:1002900000006400000000000A00000000000100EF
:1002A000000000002C76D888DC674F0823DFC1DF10
:1002B000AE59E1B1B796E5E3E453C63AE651997613
:1002C00096E8E6C28426EB898C9B62ED407C6FFC4D
:1002D000EFBC9C9F40F2BAA56FA5F490055A2AF78F
:1002E0005C936B6CF9676DC11BFCE0E40D47FEF598
:1002F00020E6B500D0ED902E030094357705008000
:10030000841E080000204E0A000000C80C3333335E
:10031000330F986E12831141EF8D2114893BE655FE
:1003200016CFFEE6DB18D1844B381BF77C1D901DE1
:10033000A4BBE424203284725E228100C9F124EC43
:10034000A1E53D27CDCCCC3D0AD7233C17B7D1380A
:1003500077CC2B329595E6241FB14F0A000020413F
:100360000000C84200401C4620BCBE4CCA1B0E5AAE
:10037000AEC59D7420002000200020002000200039
:10038000202020202020202020202020202020206D
:10039000202020202020202020202020202020205D
:1003A000202020202020202020202020202020204D
:1003B000202020002000200020002000200020001D
:1003C000200053657276657220526573706F6E738C
:1003D00065204641494C005365727665722052652E
:1003E00073706F6E7365204F4B202000200020003B
:1003F00020002000200020002000536572766572E6
:1004000020526573706F6E7365204641494C0053EE
:10041000657276657220526573706F6E7365204FDA
:100420004B20200020002000200020002000200081
:10043000200053657276657220526573706F6E731B
:1004400065204641494C00536572766572205265BD
:1004500073706F6E7365204F4B202000446573638B
:1004600072697074696F6E004572726F72005061CC
:10047000636B004576656E740054696D65537461F5
:100480006D7000526573706F6E736500436F6D6DB4
:10049000616E64204E6F742041636365707465649F
:1004A0000044617461004465736372697074696FBC
:1004B0006E0054696D655374616D700052657370A0
:1004C0006F6E7365005465737420436F6D6D616E5C
:1004D00064004465736372697074696F6E00457679
:1004E000656E740054696D655374616D700052657A
:1004F00073706F6E736500436F6E666967757261C6
:1005000074696F6E205365742052656D6F74656CED
:1005100079004465736372697074696F6E004D6130
:1005200078004D696E00566F6C74616765204E6F80
:100530007420557064617465642052656D6F7465D4
:100540006C79004465736372697074696F6E004DF5
:100550006178004D696E00566F6C74616765204C60
:10056000696D697420557064617465642052656DAD
:100570006F74656C79004576656E740054696D65BD
:100580005374616D7000526573706F6E73650044D3
:1005900065736372697074696F6E004F66666C692B
:1005A0006E65004F6E6C696E6500496E746572769B
:1005B000616C204E6F7420557064617465642052C4
:1005C000656D6F74656C79004465736372697074EE
:1005D000696F6E004F66666C696E65004F6E6C6980
:1005E0006E6500496E74657276616C2054696D6544
:1005F00020557064617465642052656D6F74656C1C
:1006000079004576656E740054696D655374616D4B
:100610007000526573706F6E73650052656D6F7414
:10062000652053746F70204F4B004465736372698B
:100630007074696F6E0050756D702053746F7070B8
:1006400065642052656D6F74656C790044657363F1
:1006500072697074696F6E0050756D70204E6F74A2
:100660002053746F707065642052656D6F74656C93
:1006700079004576656E740054696D655374616DDB
:100680007000526573706F6E73650052656D6F74A4
:1006900065205374617274204F4B0044657363721C
:1006A000697074696F6E0050756D7020537461725B
:1006B0007465642052656D6F74656C790044657370
:1006C0006372697074696F6E0050756D7020537439
:1006D00061727465642052656D6F74656C79004455
:1006E00065736372697074696F6E0050756D702008
:1006F000537461727465642052656D6F74656C79B2
:10070000004465736372697074696F6E0050756D33
:100710007020537461727465642052656D6F7465E6
:100720006C79004465736372697074696F6E005010
:10073000756D7020537461727465642052656D6FBD
:1007400074656C79004576656E740054696D655307
:1007500074616D7000526573706F6E7365005265E1
:100760006D6F746520557064617465205265717594
:1007700065737465642E004465766963652052650F
:10078000736574204F4B00446573637269707469BC
:100790006F6E004576656E740054696D65537461C3
:1007A0006D7000526573706F6E7365004B004A0088
:1007B00049004800452E526567436F6E74726F6C36
:1007C00000442E50726573737572655472656E6461
:1007D0004C696D697400432E507265737375726550
:1007E0004E6F74696669636174696F6E00422E5062
:1007F000726573737572654C696D6974436865637E
:100800006B00412E50726573737572654C696D692A
:100810007473004661756C740053657474696E6717
:1008200073004672657175656E637900436F6E7310
:10083000756D7074696F6E00506F77657246616395
:10084000746F720043757272656E7400566F6C74CB
:1008500061676500456E6572677900446174614344
:100860006F756E7400496E737400417667004D6158
:1008700078004D696E00507265737375726500483B
:10088000756D69646974790054656D706572617421
:10089000757265004661756C74537461747573008C
:1008A0004661756C74537461747573004465766940
:1008B0006365537461747573004465766963655349
:1008C000746174757300446576696365537461740B
:1008D000757300506F776572537461740054696D5D
:1008E000655374616D70005061796C6F6164004391
:1008F000656C6C5F4944004C4143005253534900BE
:100900004943434944004F70657261746F720053EC
:10091000657269616C004D6F64656C004D616E7548
:10092000666163747572657200494D454900466998
:10093000726D77617265004D6F64756C6500475329
:100940004D004942004642005400436861726765A9
:1009500000534F430041430049560042617474659F
:1009600072790030342E31302E3233004669726D88
:10097000776172650030332E30302E3030004861A0
:1009800072647761726500494400496E666F004485
:100990006576696365005354463A506F77657253C4
:1009A0007461742E436F6E66696700436F6D6D618D
:1009B0006E64005354463A506F7765725374617495
:1009C0002E496E7465727275707400436F6D6D613F
:1009D0006E64005354463A506F7765725374617475
:1009E0002E54696D656400436F6D6D616E640053D4
:1009F00054463A506F776572537461742E496E7421
:100A000065727275707400436F6D6D616E64002065
:100A10002E2E2000202E2E2000202E2E2000202ED4
:100A20002E2000202E2E20002020202000202A2AE8
:100A30002000202E2E20002020202000202A2A20E6
:100A400000202E2E2000202E2E2000202E2E2000D2
:100A5000202E2E2000202E2E2000202E2E200020A2
:100A60002E2E2000202E2E2000202E2E2000202E84
:100A70002E2000202E2E2000202E2E2000202E2E74
:100A800020000D0A00557365722D4167656E743A3A
:100A9000205354462D506F776572537461740D0A5C
:100AA00000436F6E74656E742D547970653A2061E1
:100AB00070706C69636174696F6E2F6A736F6E0D0D
:100AC0000A000D0A00436F6E74656E742D4C656EDE
:100AD0006774683A20000D0A00486F73743A20006A
:100AE00020485454502F312E310D0A00504F53548A
:100AF00020000D0A00557365722D4167656E743ACA
:100B0000205354462D506F776572537461740D0AEB
:100B100000436F6E74656E742D547970653A206170
:100B200070706C69636174696F6E2F6A736F6E0D9C
:100B30000A00485454502F312E3120323030204F8B
:100B40004B0D0A00485454502F312E312032303092
:100B5000204F4B0D0A00485454502F312E31203273
:100B60003030204F4B0D0A00485454502F312E3155
:100B700020323030204F4B0D0A00485454502F3152
:100B80002E3120323030204F4B0D0A000D0A002C40
:100B90000041542353524543563D000D0A00415431
:100BA000235353454E443D000D0A002C002C0022D7
:100BB0002C002C22002C002C0041542353443D00D7
:100BC0000D0A002C0041542353413D000D0A004101
:100BD000542353483D000D0A002C002C002C0041EA
:100BE0005423534C3D000D0A0041542353533D0000
:100BF0000D0A002C002C002C002C002C004154234A
:100C0000534346474558543D000D0A002C002C0024
:100C10002C002C002C00415423534346473D000D2B
:100C20000A00222C223235352E3235352E3235351A
:100C30002E3022002C22004154234652574C3D00B6
:100C40000D0A0041542B43434C4B3F000D0A004119
:100C500054234D4F4E49000D0A0041542B4353512C
:100C6000000D0A0041542349434D503D000D0A0038
:100C70002C0041542353474143543D000D0A002C9E
:100C800000222C00222C2200222C22002C220041A7
:100C9000542B434744434F4E543D000D0A004154EA
:100CA0002B43475245473F000D0A0041542B435206
:100CB00045473F000D0A0041542B435245473D0034
:100CC0000D0A004154234532534C52493D000D0A50
:100CD00000415423534C45443D000D0A0041542B20
:100CE000474D52000D0A0041542B474D4D000D0A4F
:100CF0000041542B474D49000D0A00415423434302
:100D00004944000D0A0041542B4347534E000D0A3D
:100D10000041542B4350494E3F000D0A00415426D8
:100D20004B000D0A0041542B46434C4153533D00A8
:100D30000D0A0041542B434D45453D000D0A00412D
:100D40005445000D0A004154002000E296920050E4
:100D500075616E744175746F53746F705B205D20A4
:100D60002D205075616E744175746F537461727487
:100D70005B205D205075616E7453746172743A200B
:100D800020203A2020202D205075616E74456E641D
:100D90003A2020203A00462E437572724C696D69E4
:100DA00074436F6E745B205D202D20472E43757257
:100DB00072656E744C696D69745B2020205D202023
:100DC0002020202020202020202020202020202023
:100DD00020202020202020202020204972726753CC
:100DE000746162696C6974795B205D00412E507298
:100DF0004C6F774C696D69745B202020205D2D500D
:100E000072486967684C696D69745B202020205DB9
:100E10002D422E50724C696D6974436F6E745B2065
:100E20005D202D20432E50724E6F7469436F6E7497
:100E30005B205D202D20442E50725265674C696DF9
:100E400069745B2020255D202D20452E507252654F
:100E500067436F6E745B205D00312E50684C6F737A
:100E6000735B205D202D20322E546865726D69639E
:100E70005B205D202D20332E4D6F7450726F745B9C
:100E8000205D202D20342E52656C416E6F5B205DFD
:100E9000202D20352E566F6C74436F6E745B205D71
:100EA000202D20362E467271436F6E745B205D20BC
:100EB0002D20372E566F6C74496D625B205D202D9E
:100EC00020382E43757272496D625B205D0042616D
:100ED00072005072657373757265203A00507265C6
:100EE000737375726520536C6F7065203A2025000E
:100EF00052656772657373696F6E204C696D6974B2
:100F0000203A2025006D696E002F006D696E004942
:100F10006E74657276616C203A00E294B400E294DB
:100F2000B400E294B400E2948200E2948200E2947D
:100F30008200E294AC00E294AC00E294AC00436F17
:100F4000756E746572203A2000506F776572537425
:100F50006174205633004641494C00204F4B20001D
:100F60001B5B00070048003B001B5B00436F6D6D7F
:100F7000616E64004D70205B205D005468205B2032
:100F80005D202D004D33205B205D202D004D322053
:100F90005B205D202D004D31205B205D202D005415
:100FA000205B205D202D0053205B205D202D005212
:100FB000205B205D202D005B205D005B205D005BE1
:100FC000205D005B205D005B205D005B205D004DCF
:100FD000696E004661756C74004D61780049494D39
:100FE0000056494D00484651004C465100485600B5
:100FF0004C560050686173652054005068617365F9
:101000002053005068617365205200436F7320467F
:101010006900467265710043757272656E740056A0
:101020006F6C7461676500536F636B6574205374F4
:101030006174757300495020416464726573730074
:1010400047534D204F70657261746F720052535355
:1010500049204C6576656C0047534D20436F6E6E9A
:10106000656374696F6E2054696D65004943434937
:10107000440053657269616C20494400494D4549FB
:10108000004669726D77617265004D6F64656C0032
:101090004D616E7566616374757265720041542BA3
:1010A00043434C4B3F004154234D4F4E4900415464
:1010B0002349434D503D31004154234652574C3D46
:1010C000312E2E2E0041542B4353510041542353B3
:1010D000474143543D312C310041542B4347444355
:1010E0004F4E543D312C224950222C226D676273A1
:1010F000220041542B43475245473D300041542B79
:10110000435245473D30004154234155544F424ED0
:10111000443D310041542B434F50533D302C322C31
:1011200032383630310041542354584D4F4E4D4FD4
:1011300044453D31004154235245474D4F44453DC0
:1011400030004154234532534C52493D3530004123
:10115000542B534C45443D320041542B474D5200D3
:1011600041542B474D4D0041542B474D49004154AC
:101170002B434349440041542B47534E0041542BC9
:101180004347534E0041542B4350494E3F00415476
:10119000264B300041542B46434C4153533D3000C5
:1011A00041542B434D45453D31004154453D3000B0
:1011B0004379636C6520436F756E74006D4100491F
:1011C0006E7374616E742042617474657279204329
:1011D00061706163697479006D410046756C6C20C3
:1011E00042617474657279204361706163697479D6
:1011F0000025005374617465206F66204368617236
:101200006765006D410041766572616765204375D1
:101210007272656E7400430054656D70657261741E
:10122000757265005600496E7374616E7420566F56
:101230006C74616765004661756C742053746174E9
:1012400065004465766963652053746174650025A3
:10125000004D6F64756C652048756D6964697479BB
:101260000043004D6F64756C652054656D70657248
:1012700061747572650048617264776172652056A9
:10128000657273696F6E004669726D776172652071
:1012900056657273696F6E0053657269616C20499F
:1012A00044005344204361726420436F6E6E656353
:1012B00074696F6E004932432042617474657279BB
:1012C00020436861726765722028307836422900B1
:1012D00049324320426174746572792047617567B1
:1012E0006520283078333629004932432054656D13
:1012F0007065726174757265202830783430290009
:101300004932432053657269616C2049442028307A
:101310007835302900493243205254432028307810
:1013200035322900493243204D756C7469706C6503
:101330007865722028307837302900E2948200E204
:1013400094B400E294AC00E2948000E294A400E241
:10135000949C005D005B002E00E2948000E294A467
:1013600000E2949C00E2948000E294A400E2949C49
:10137000005B205D00E2948000E2948000E29482B1
:1013800000E2948200E2949800E2949000E2949447
:1013900000E2948C001B5B001B5B3F32356C001B32
:1013A0005B324A007C3C3E5E2B3D3F2F5B5D3B2C1D
:1013B0002A225C000200000B0C030A0D0E0F090824
:1013C0000405020000000000000000000000000012
:1013D000000000000000000000000000000000000D
:1013E00000131211000000000000000000000000C7
:1013F00000000000000000000000000000000000ED
:101400000000000000000000000000010210202089
:101410000808102040102040800201020108040248
:1014200001010204081020408080402010080402BE
:101430000180040201804020100804020108040217
:10144000010102040810204080010204081020401D
:1014500080044080048008101020400408102040C0
:101460008005050505070508080808020202020AAA
:101470000A08080404040401010101010101010337
:1014800003030303030303040707070C0C0C0C0CF2
:101490000C0C0C0202020206060606060606060BE5
:1014A0000B0B0B0B0B0B0B050505080807070404BA
:1014B000040A0A0A0A0A0A00002200250028002B52
:1014C000002E003100340002010000050108010B6C
:1014D0000100002100240027002A002D00300033E5
:1014E0000001010000040107010A0100517F37AE2D
:1014F00064B029BC13C0AAC041C1D8C111241FBE09
:10150000CFEFD1E2DEBFCDBF00E00CBF16E0A0E020
:10151000B2E0E8E8FAEB01E00BBF02C007900D92E1
:10152000A836B107D9F726E1A8E6B6E001C01D92BA
:10153000A833B207E1F71AE0CEE7DAE000E006C030
:1015400021970109802FFE010E94A3CCC637D10745
:1015500080E00807A9F70E942CCA0C9442DD0C9485
:101560000000CF93DF93C5E0D1E028812068288375
:10157000BC0190E080E00E94E1CA88818F77888377
:10158000DF91CF9108958091030183FF08C06AE045
:1015900070E080E090E00E94E1CA81E008956AE096
:1015A00070E080E090E00E94E1CA80E008954F92F0
:1015B0005F926F927F928F929F92AF92BF92CF92E3
:1015C000DF92EF92FF920F931F93CF93DF9300D0A0
:1015D00000D0CDB7DEB74B015C0187E190E09E8380
:1015E0008D83412C512C3201042F10E06D817E81BE
:1015F000601B710B072E000C880B990B0E9423CEE9
:101600009B01AC0160E070E080E090E40E94A7CF15
:1016100069837A838B839C83C12CD12C7601C394FC
:101620000D8004C0CC0CDD1CEE1CFF1C0A94D2F70C
:10163000A50194010E9474CD181674F14C285D2800
:101640006E287F2829813A814B815C81C501B401D4
:101650000E9407CD4B015C018D819E8101979E8385
:101660008D83019619F6C301B20126960FB6F89440
:10167000DEBF0FBECDBFDF91CF911F910F91FF90C5
:10168000EF90DF90CF90BF90AF909F908F907F9022
:101690006F905F904F900895C094D094E094F09430
:1016A0004C205D206E207F20D7CF0C942CDD0C9435
:1016B00034DDCF92DF92EF92FF920F931F93690177
:1016C0007A010115110511F401E010E00E94F2CD3C
:1016D000A701960188E40E9488C3C701B6010E9451
:1016E000E1CAB801110F880B990B1F910F91FF9060
:1016F000EF90DF90CF900C94E1CA4F925F926F927F
:101700007F928F929F92AF92BF92CF92DF92EF9291
:10171000FF920F931F93CF93DF9300D000D01F92BF
:101720001F92CDB7DEB72B013C0129833A834B834F
:101730005C83ED82FE820F8318870E94F2CD8B01BD
:1017400029813A814B815C81C301B2010E9474CD31
:1017500087FF24C0B80190E080E00E9421CE2B01D9
:101760003C01AC019B0169817A818B819C810E9443
:1017700035CF1816BCF58401A6019501C301B2014D
:101780000E94590B2D813E814F815885C301B201C2
:101790000E943ACF0E94F2CD8B01DCCFB80190E0DD
:1017A00080E00E9421CE2B013C01AC019B016981AC
:1017B0007A818B819C810E9474CD87FF13C0840144
:1017C000A6019501C301B2010E94590B2D813E81F2
:1017D0004F815885C301B2010E9479CD0E94F2CD9C
:1017E0008B01DCCF28960FB6F894DEBF0FBECDBFBD
:1017F000DF91CF911F910F91FF90EF90DF90CF90ED
:10180000BF90AF909F908F907F906F905F904F9020
:101810000895109A68EE73E080E090E00E94E1CABB
:1018200010980895119A64EF71E080E090E00E94B2
:10183000E1CA119808950F931F93CF93DF93162F4A
:10184000C82FD0E0CE010E94550B082F6AE070E04F
:1018500080E090E00E94E1CA0F3F21F4612FCE01A9
:101860000E94570B6AE070E080E090E00E94E1CABD
:10187000CE01DF91CF911F910F910C94550B1F93C7
:10188000CF93DF93162FC82FD0E0CE010E94550BC7
:101890008F3F21F4612FCE010E94570B6AE070E068
:1018A00080E090E00E94E1CACE01DF91CF911F91CC
:1018B0000C94550BCF92DF92EF92FF926B017C015B
:1018C00020E030E0A9010E9435CF20E030E040E088
:1018D0005FE387FD0BC0C701B6010E9408CD0E94DF
:1018E000EBCDFF90EF90DF90CF900895C701B60148
:1018F0000E9407CDF4CFFA01309741F0248120787F
:101900002C60248360837183828393830895FA011A
:10191000309741F0248120782C6024836083718388
:10192000828393830895FB01309759F094819078D6
:101930009860948390E0B0E0A0E080839183A283DC
:10194000B38308959C01FB01309759F094819078FE
:1019500098609483C901B0E0A0E080839183A28362
:10196000B38308959C01FB01309761F094819078D6
:101970009A609483C901330FAA0BBB0B80839183B8
:10198000A283B38308950E94C30A882321F088ECC0
:1019900090E00E94B10A809105018F7D809305013E
:1019A00068EE73E080E090E00E94E1CA81E0089573
:1019B000FB01309729F0948190789660948380831E
:1019C00008950F931F93CF93DF93EC01062F142FED
:1019D00069E67FE0888199810E9441C24AE050E037
:1019E000602F888199810E9469C367E67FE08881C2
:1019F00099810E9441C24AE050E0612F888199811B
:101A00000E9469C365E67FE088819981DF91CF916B
:101A10001F910F910C9441C21F93CF93DF93EC0160
:101A2000162F60E67FE0888199810E9441C24AE0DA
:101A300050E0612F888199810E9469C388819981D2
:101A4000DC01ED91FC910190F081E02D6DE6DF91DC
:101A5000CF911F911994DF92EF92FF920F931F93F2
:101A6000CF93DF9300D000D0CDB7DEB77C01D22E6C
:101A70000E94E10C6D2DC7010E940C0DF701E08062
:101A8000F180B801CE0101960E94DAC8BE016F5FF5
:101A90007F4FC7010E9498C2CE0101960E9475C770
:101AA00026960FB6F894DEBF0FBECDBFDF91CF9163
:101AB0001F910F91FF90EF90DF900895BF92CF920A
:101AC000DF92EF92FF920F931F93CF93DF9300D09B
:101AD00000D0CDB7DEB76C01B62EF42EE22EE40EA8
:101AE000FE14A1F067E573E1CE0101960E943CC9A6
:101AF0008E010F5F1F4F2AE54F2D6B2DC6010E94EF
:101B00002B0DC8010E9475C7F394EACF26960FB635
:101B1000F894DEBF0FBECDBFDF91CF911F910F9123
:101B2000FF90EF90DF90CF90BF900895BF92CF923B
:101B3000DF92EF92FF920F931F93CF93DF9300D02A
:101B400000D0CDB7DEB76C01E62EF42EB22E65E5DF
:101B500073E1CE0101960E943CC98E010F5F1F4FB9
:101B600025E24F2D6E2DC6010E942B0DC8010E944B
:101B700075C763E573E1C8010E943CC94F2D4B0D49
:101B800025E26E2DC6010E942B0DC8010E9475C76B
:101B900026960FB6F894DEBF0FBECDBFDF91CF9172
:101BA0001F910F91FF90EF90DF90CF90BF9008951D
:101BB000CF92DF92EF92FF920F931F93CF93DF9319
:101BC00000D000D0CDB7DEB77C01D62EC42E6BE599
:101BD0007FE0CE0101960E943CC98E010F5F1F4F2E
:101BE00020E24C2D6D2DC7010E942B0DC8010E94D3
:101BF00075C726960FB6F894DEBF0FBECDBFDF9136
:101C0000CF911F910F91FF90EF90DF90CF900895AB
:101C10000F931F93CF93DF9300D000D0CDB7DEB7E3
:101C20000E94C30C809389066AE873E0CE01019696
:101C30000E94E7C78E010F5F1F4F25E241E26EE071
:101C40008AEF98E00E942B0DC8010E9475C76AE8D0
:101C500073E0C8010E94E7C725E242E26EE08AEF26
:101C600098E00E942B0DC8010E9475C76AE873E0D6
:101C7000C8010E94E7C725E241E26FE08AEF98E0E1
:101C80000E942B0DC8010E9475C76AE873E0C80165
:101C90000E94E7C725E242E26FE08AEF98E00E94E7
:101CA0002B0DC8010E9475C76AE873E0C8010E9445
:101CB000E7C725E241E260E18AEF98E00E942B0D40
:101CC000C8010E9475C76AE873E0C8010E94E7C7AF
:101CD00025E242E260E18AEF98E00E942B0DC80104
:101CE0000E9475C76AE873E0C8010E94E7C725E251
:101CF00041E261E18AEF98E00E942B0DC8010E9449
:101D000075C76AE873E0C8010E94E7C725E242E2AE
:101D100061E18AEF98E00E942B0DC8010E9475C70F
:101D20006AE873E0C8010E94E7C725E241E262E188
:101D30008AEF98E00E942B0DC8010E9475C76AE8DF
:101D400073E0C8010E94E7C725E242E262E18AEF40
:101D500098E00E942B0DC8010E9475C76AE873E0E5
:101D6000C8010E94E7C725E241E263E18AEF98E0FB
:101D70000E942B0DC8010E9475C76AE873E0C80174
:101D80000E94E7C725E242E263E18AEF98E00E9401
:101D90002B0DC8010E9475C76AE873E0C8010E9454
:101DA000E7C725E241E264E18AEF98E00E942B0D4B
:101DB000C8010E9475C76AE873E0C8010E94E7C7BE
:101DC00025E242E264E18AEF98E00E942B0DC8010F
:101DD0000E9475C76AE873E0C8010E94E7C725E260
:101DE00041E265E18AEF98E00E942B0DC8010E9454
:101DF00075C76AE873E0C8010E94E7C725E242E2BE
:101E000065E18AEF98E00E942B0DC8010E9475C71A
:101E10006AE873E0C8010E94E7C725E241E266E193
:101E20008AEF98E00E942B0DC8010E9475C76AE8EE
:101E300073E0C8010E94E7C725E242E266E18AEF4B
:101E400098E00E942B0DC8010E9475C76AE873E0F4
:101E5000C8010E94E7C725E241E267E18AEF98E006
:101E60000E942B0DC8010E9475C76AE873E0C80183
:101E70000E94E7C725E242E267E18AEF98E00E940C
:101E80002B0DC8010E9475C76AE873E0C8010E9463
:101E9000E7C725E241E268E18AEF98E00E942B0D56
:101EA000C8010E9475C76AE873E0C8010E94E7C7CD
:101EB00025E242E268E18AEF98E00E942B0DC8011A
:101EC0000E9475C76AE873E0C8010E94E7C725E26F
:101ED00041E269E18AEF98E00E942B0DC8010E945F
:101EE00075C76AE873E0C8010E94E7C725E242E2CD
:101EF00069E18AEF98E00E942B0DC8010E9475C726
:101F00006AE873E0C8010E94E7C725E241E26AE19E
:101F10008AEF98E00E942B0DC8010E9475C76AE8FD
:101F200073E0C8010E94E7C725E242E26AE18AEF56
:101F300098E00E942B0DC8010E9475C76AE873E003
:101F4000C8010E94E7C725E249E46EE08AEF98E005
:101F50000E942B0DC8010E9475C76AE873E0C80192
:101F60000E94E7C725E24AE46EE08AEF98E00E940B
:101F70002B0DC8010E9475C76AE873E0C8010E9472
:101F8000E7C725E249E46FE08AEF98E00E942B0D55
:101F9000C8010E9475C76AE873E0C8010E94E7C7DC
:101FA00025E24AE46FE08AEF98E00E942B0DC80119
:101FB0000E9475C76AE873E0C8010E94E7C725E27E
:101FC00049E460E18AEF98E00E942B0DC8010E946D
:101FD00075C76AE873E0C8010E94E7C725E24AE4D2
:101FE00060E18AEF98E00E942B0DC8010E9475C73E
:101FF0006AE873E0C8010E94E7C725E249E461E1AD
:102000008AEF98E00E942B0DC8010E9475C76AE80C
:1020100073E0C8010E94E7C725E24AE461E18AEF64
:1020200098E00E942B0DC8010E9475C76AE873E012
:10203000C8010E94E7C725E249E462E18AEF98E01F
:102040000E942B0DC8010E9475C76AE873E0C801A1
:102050000E94E7C725E24AE462E18AEF98E00E9425
:102060002B0DC8010E9475C76AE873E0C8010E9481
:10207000E7C725E249E463E18AEF98E00E942B0D6F
:10208000C8010E9475C76AE873E0C8010E94E7C7EB
:1020900025E24AE463E18AEF98E00E942B0DC80133
:1020A0000E9475C76AE873E0C8010E94E7C725E28D
:1020B00049E464E18AEF98E00E942B0DC8010E9478
:1020C00075C76AE873E0C8010E94E7C725E24AE4E1
:1020D00064E18AEF98E00E942B0DC8010E9475C749
:1020E0006AE873E0C8010E94E7C725E249E465E1B8
:1020F0008AEF98E00E942B0DC8010E9475C76AE81C
:1021000073E0C8010E94E7C725E24AE465E18AEF6F
:1021100098E00E942B0DC8010E9475C76AE873E021
:10212000C8010E94E7C725E249E466E18AEF98E02A
:102130000E942B0DC8010E9475C76AE873E0C801B0
:102140000E94E7C725E24AE466E18AEF98E00E9430
:102150002B0DC8010E9475C76AE873E0C8010E9490
:10216000E7C725E249E467E18AEF98E00E942B0D7A
:10217000C8010E9475C76AE873E0C8010E94E7C7FA
:1021800025E24AE467E18AEF98E00E942B0DC8013E
:102190000E9475C76AE873E0C8010E94E7C725E29C
:1021A00049E468E18AEF98E00E942B0DC8010E9483
:1021B00075C76AE873E0C8010E94E7C725E24AE4F0
:1021C00068E18AEF98E00E942B0DC8010E9475C754
:1021D0006AE873E0C8010E94E7C725E249E469E1C3
:1021E0008AEF98E00E942B0DC8010E9475C76AE82B
:1021F00073E0C8010E94E7C725E24AE469E18AEF7B
:1022000098E00E942B0DC8010E9475C76AE873E030
:10221000C8010E94E7C725E249E46AE18AEF98E035
:102220000E942B0DC8010E9475C76AE873E0C801BF
:102230000E94E7C725E24AE46AE18AEF98E00E943B
:102240002B0DC8010E9475C76AE873E0C8010E949F
:10225000E7C725E240E766E18AEF98E00E942B0D90
:10226000C8010E9475C76AE873E0C8010E94E7C709
:1022700025E241E766E18AEF98E00E942B0DC80154
:102280000E9475C76AE873E0C8010E94E7C725E2AB
:1022900042E767E18AEF98E00E942B0DC8010E9497
:1022A00075C76AE873E0C8010E94E7C725E243E703
:1022B00067E18AEF98E00E942B0DC8010E9475C764
:1022C0006AE873E0C8010E94E7C725E245E669E1D4
:1022D0008AEF98E00E942B0DC8010E9475C76AE83A
:1022E00073E0C8010E94E7C725E246E669E18AEF8C
:1022F00098E00E942B0DC8010E9475C76AE873E040
:10230000C8010E94E7C725E247E669E18AEF98E045
:102310000E942B0DC8010E9475C76AE873E0C801CE
:102320000E94E7C725E248E669E18AEF98E00E944B
:102330002B0DC8010E9475C76AE873E0C8010E94AE
:10234000E7C725E249E669E18AEF98E00E942B0D94
:10235000C8010E9475C76AE873E0C8010E94E7C718
:1023600025E24AE669E18AEF98E00E942B0DC80158
:102370000E9475C76AE873E0C8010E94E7C725E2BA
:102380004BE669E18AEF98E00E942B0DC8010E949C
:1023900075C76AE873E0C8010E94E7C725E24CE60A
:1023A00069E18AEF98E00E942B0DC8010E9475C771
:1023B0006AE873E0C8010E94E7C725E24DE669E1DB
:1023C0008AEF98E00E942B0DC8010E9475C76AE849
:1023D00073E0C8010E94E7C725E24EE669E18AEF93
:1023E00098E00E942B0DC8010E9475C76AE873E04F
:1023F000C8010E94E7C725E24FE669E18AEF98E04D
:102400000E942B0DC8010E9475C76AE873E0C801DD
:102410000E94E7C725E240E769E18AEF98E00E9461
:102420002B0DC8010E9475C76AE873E0C8010E94BD
:10243000E7C725E241E769E18AEF98E00E942B0DAA
:10244000C8010E9475C76AE873E0C8010E94E7C727
:1024500025E242E769E18AEF98E00E942B0DC8016E
:102460000E9475C76AE873E0C8010E94E7C725E2C9
:1024700043E769E18AEF98E00E942B0DC8010E94B2
:1024800075C76AE873E0C8010E94E7C725E24BE61A
:102490006AE18AEF98E00E942B0DC8010E9475C77F
:1024A0006AE873E0C8010E94E7C725E24CE66AE1EA
:1024B0008AEF98E00E942B0DC8010E9475C76AE858
:1024C00073E0C8010E94E7C725E24DE66AE18AEFA2
:1024D00098E00E942B0DC8010E9475C76AE873E05E
:1024E000C8010E94E7C725E24EE66AE18AEF98E05C
:1024F0000E942B0DC8010E9475C76AE873E0C801ED
:102500000E94E7C725E24FE66AE18AEF98E00E9461
:102510002B0DC8010E9475C76AE873E0C8010E94CC
:10252000E7C725E240E76AE18AEF98E00E942B0DB9
:10253000C8010E9475C76AE873E0C8010E94E7C736
:1025400025E241E76AE18AEF98E00E942B0DC8017D
:102550000E9475C76AE873E0C8010E94E7C725E2D8
:1025600042E76AE18AEF98E00E942B0DC8010E94C1
:1025700075C76AE873E0C8010E94E7C725E243E730
:102580006AE18AEF98E00E942B0DC8010E9475C78E
:1025900010923B0926960FB6F894DEBF0FBECDBF52
:1025A000DF91CF911F910F910895DF92EF92FF92EB
:1025B0000F931F93CF93DF937C01D62EC42FD22F7E
:1025C00065E20E940C0D0023B9F04C2F6D2DC70160
:1025D0000E94E10C6FE473E18DE892E10E9486C2F3
:1025E0004C2F4D0F6D2DC7010E94E10C6BE473E180
:1025F0008DE892E10E9486C211E01C0FCD0FDD270D
:10260000DD1F1C171D066CF4412F6D2DC7010E94A4
:10261000E10C67E473E18DE892E10E9486C21F5FDE
:10262000F0CFDF91CF911F910F91FF90EF90DF904E
:102630000895EF92FF920F931F93CF93DF93EC01D6
:10264000062FE42E122F65E20E940C0D4E2D602FF6
:10265000CE010E94E10C63E473E1888199810E94BC
:1026600086C2602F610F4E2DCE010E94E10C6FE3F8
:1026700073E1888199810E9486C2FF24F394F00E51
:10268000010F1127111FF01611066CF44E2D6F2D3E
:10269000CE010E94E10C6BE373E1888199810E9475
:1026A00086C2F394F0CFDF91CF911F910F91FF90ED
:1026B000EF9008955F926F927F928F929F92AF9268
:1026C000BF92CF92DF92EF92FF920F931F93CF931F
:1026D000DF93CDB7DEB73C01162FB42ED22E65E2C4
:1026E0000E940C0D65E973E1D3018D919C910E94CC
:1026F00041C24AE050E062E0F301808191810E9492
:1027000069C3D3018D919C91DC01ED91FC91019005
:10271000F081E02D6DE619954B2D612FC3010E94CC
:10272000E10C61E973E1F301808191810E9486C22D
:102730004B2D6D2DC3010E94E10C6DE873E1D301B7
:102740008D919C910E9486C2402F612FC3010E94EF
:10275000E10C69E873E1F301808191810E9486C2F6
:10276000402F6D2DC3010E94E10C65E873E1D30198
:102770008D919C910E9486C299249394910E9D14F0
:10278000D0F44B2D692DC3010E94E10C61E873E187
:10279000F301808191810E9486C2402F692DC3017F
:1027A0000E94E10C6DE773E1D3018D919C910E9431
:1027B00086C29394E4CF992493949B0C592C501681
:1027C000D0F4452D612FC3010E94E10C69E773E14C
:1027D000F301808191810E9486C2452D6D2DC30138
:1027E0000E94E10C65E773E1D3018D919C910E94F9
:1027F00086C25394E4CF61E2C3010E940C0D42E013
:102800004B0D612FC3010E94E10CB701F3018081E0
:1028100091810E9498C2CC2019F165E2C3010E9407
:102820000C0D4CEF400F612FC3010E94E10C61E7DA
:1028300073E1D3018D919C910E9486C261E2C30134
:102840000E940C0D4DEF400F612FC3010E94E10C5F
:102850004AE050E06C2DF301808191810E9470C3A9
:10286000AA2071F165E2C3010E940C0D1E5F4B2D81
:10287000612FC3010E94E10C6DE673E1D3018D91DC
:102880009C910E9486C2402F612FC3010E94E10CDF
:1028900069E673E1F301808191810E9486C2F92C7F
:1028A000F01670F44F2D612FC3010E94E10C65E614
:1028B00073E1D3018D919C910E9486C2F394F0CF75
:1028C000882071F165E2C3010E940C0DDA94DA945C
:1028D0004B2D6D2DC3010E94E10C61E673E1F30104
:1028E000808191810E9486C2402F6D2DC3010E947C
:1028F000E10C6DE573E1D3018D919C910E9486C23C
:10290000901670F4492D6D2DC3010E94E10C69E50C
:1029100073E1F301808191810E9486C29394F0CF8C
:10292000DF91CF911F910F91FF90EF90DF90CF90AB
:10293000BF90AF909F908F907F906F905F90089521
:102940005F926F927F928F929F92AF92BF92CF923F
:10295000DF92EF92FF920F931F93CF93DF9300D0FC
:1029600000D0CDB7DEB73C01D62EB42E522E902E1D
:1029700069EB72E0CE0101960E94E7C7812CA12C81
:10298000CC24C394CE0101967C01252D4B2D6D2DB9
:10299000C3010E945A13C7010E9475C764E273E124
:1029A000C7010E943CC982E0C82ECB0CAA24A39484
:1029B000AD0C870125E24C2D6A2DC3010E942B0D21
:1029C000C7010E9475C7E92CEB1891EE592E5E0CD9
:1029D00028E1822E8B0C252D482D6A2DC3010E94E3
:1029E0005E0D99EF990E25E0492D6A2DC3010E94D5
:1029F000960D65E173E1C8010E943CC932E0A32E47
:102A0000AD0C25E24C2D6A2DC3010E942B0DC8018F
:102A10000E9475C729EE2E0D40E14B0D6A2DC301B2
:102A20000E945E0D25E0492D6A2DC3010E94960D7E
:102A300060E073E1C8010E943CC943E0A42EAD0CE4
:102A400025E24C2D6A2DC3010E942B0DC8010E9466
:102A500075C723EE2E0D46E14B0D6A2DC3010E9472
:102A60005E0D25E0492D6A2DC3010E94960D69EE89
:102A700072E1C8010E943CC954E0A52EAD0C25E2CC
:102A80004C2D6A2DC3010E942B0DC8010E9475C7F1
:102A9000252D482D6A2DC3010E945E0D25E0492D8C
:102AA0006A2DC3010E94960D60ED72E1C8010E947B
:102AB0003CC965E0A62EAD0C25E24C2D6A2DC30164
:102AC0000E942B0DC8010E9475C72FED2E0D4AE103
:102AD0004B0D6A2DC3010E945E0D25E0492D6A2D24
:102AE000C3010E94960D65EB72E1C8010E943CC9CA
:102AF00076E0A72EAD0C25E24C2D6A2DC3010E9475
:102B00002B0DC8010E9475C72DED2E0D4CE14B0D0C
:102B10006A2DC3010E945E0D25E0492D6A2DC30177
:102B20000E94960D62EA72E1C8010E943CC987E0EA
:102B3000D80E25E24C2D6D2DC3010E942B0DC8012E
:102B40000E9475C725EE2E0D44E14B0D6D2DC3017E
:102B50000E945E0D25E0492D6D2DC3010E94960D4A
:102B600026960FB6F894DEBF0FBECDBFDF91CF9192
:102B70001F910F91FF90EF90DF90CF90BF90AF909B
:102B80009F908F907F906F905F9008954F925F928B
:102B90006F927F928F929F92AF92BF92CF92DF926D
:102BA000EF92FF920F931F93CF93DF9300D000D04B
:102BB000CDB7DEB73C01D62EB42E522E902E62EF4A
:102BC00072E0CE0101960E94E7C7812CA12C82E021
:102BD000C82ECE0101967C01252D4B2D6D2DC301F4
:102BE0000E945A13C7010E9475C768E972E1C701C4
:102BF0000E943CC992E0E92EEB0CCC24C394CD0C8E
:102C00008E010F5F1F4F25E24E2D6C2DC3010E94D8
:102C10002B0DC8010E9475C7F92CFB1822EEA22EBD
:102C2000AF0C4BE04B0D2A2D6C2DC3010E945E0DA5
:102C30004DEE490D21E16C2DC3010E94960D67E810
:102C400072E1C8010E943CC932E0C32ECD0C25E2DE
:102C50004E2D6C2DC3010E942B0DC8010E9475C71B
:102C600043EE442E4F0C52E1552E5B0C242D452D86
:102C70006C2DC3010E945E0D65EF862E890C29E044
:102C8000482D6C2DC3010E94960D66E772E1C801C4
:102C90000E943CC973E0C72ECD0C25E24E2D6C2D51
:102CA000C3010E942B0DC8010E9475C7242D452D1C
:102CB0006C2DC3010E945E0D29E0482D6C2DC301CF
:102CC0000E94960D63E672E1C8010E943CC9E4E0EF
:102CD000CE2ECD0C25E24E2D6C2DC3010E942B0D66
:102CE000C8010E9475C744E14B0D2A2D6C2DC3010C
:102CF0000E945E0DF6EF8F2E890C28E0482D6C2D7A
:102D0000C3010E94960D61E672E1C8010E943CC9B0
:102D1000ADEFAA2EA90C25E24A2D6C2DC3010E940D
:102D20002B0DC8010E9475C761E572E1C8010E94C0
:102D30003CC9B5E0CB2ECD0C25E24E2D6C2DC30148
:102D40000E942B0DC8010E9475C725EE2F0D41E191
:102D50004B0D6C2DC3010E945E0D28E0482D6C2D9B
:102D6000C3010E94960D6FE472E1C8010E943CC944
:102D700025E24A2D6C2DC3010E942B0DC8010E9433
:102D800075C762E472E1C8010E943CC986E0C82EA2
:102D9000CD0C25E24E2D6C2DC3010E942B0DC801D8
:102DA0000E9475C72CEE2F0D4EE04B0D6C2DC3010C
:102DB0000E945E0D9AEF990E24E0492D6C2DC301FF
:102DC0000E94960D66E372E1C8010E943CC987E04B
:102DD000D80E25E24E2D6D2DC3010E942B0DC8018A
:102DE0000E9475C72DEE2F0D4DE04B0D6D2DC301CB
:102DF0000E945E0D24E0492D6D2DC3010E94960DA9
:102E000026960FB6F894DEBF0FBECDBFDF91CF91EF
:102E10001F910F91FF90EF90DF90CF90BF90AF90F8
:102E20009F908F907F906F905F904F9008954F92FA
:102E30005F926F927F928F929F92AF92BF92CF924A
:102E4000DF92EF92FF920F931F93CF93DF9300D007
:102E500000D0CDB7DEB73C01D62E942E522EB02E28
:102E60006DEC72E0CE0101960E94E7C7812CA12C87
:102E700083E0C82ECE0101967C01252D492D6D2DB4
:102E8000C3010E945A13C7010E9475C766E272E12E
:102E9000C7010E943CC992E0E92EE90CCC24C394FE
:102EA000CD0C8E010F5F1F4F25E24E2D6C2DC301FF
:102EB0000E942B0DC8010E9475C7FB2CF91821E157
:102EC000422E490C26EE2F0D442D6C2DC3010E947D
:102ED0005E0D47EF4B0D27E06C2DC3010E94960D50
:102EE00064E272E1C8010E943CC93DEF532E5B0CC5
:102EF00025E2452D6C2DC3010E942B0DC8010E94B7
:102F000075C768E172E1C8010E943CC942E0C42E65
:102F1000CD0C25E24E2D6C2DC3010E942B0DC80156
:102F20000E9475C729EE2F0D4DE0490D6C2DC30190
:102F30000E945E0D56EFA52EAB0C28E04A2D6C2D9D
:102F4000C3010E94960D66E172E1C8010E943CC96E
:102F500025E2452D6C2DC3010E942B0DC8010E9456
:102F600075C766E072E1C8010E943CC963E0C62EE5
:102F7000CD0C25E24E2D6C2DC3010E942B0DC801F6
:102F80000E9475C722EE2F0D442D6C2DC3010E94A7
:102F90005E0D43EF4B0D2BE06C2DC3010E94960D8F
:102FA00063E072E1C8010E943CC97CEF872E8B0C64
:102FB00025E2482D6C2DC3010E942B0DC8010E94F3
:102FC00075C763EF71E1C8010E943CC9E4E0CE2EF1
:102FD000CD0C25E24E2D6C2DC3010E942B0DC80196
:102FE0000E9475C725EE2F0D442D6C2DC3010E9444
:102FF0005E0D28E04A2D6C2DC3010E94960D61EFF5
:1030000071E1C8010E943CC925E2452D6C2DC30128
:103010000E942B0DC8010E9475C76BED71E1C801BC
:103020000E943CC9F5E0CF2ECD0C25E24E2D6C2D33
:10303000C3010E942B0DC8010E9475C72FED2F0DF3
:1030400047E1490D6C2DC3010E945E0D28E04A2D19
:103050006C2DC3010E94960D68ED71E1C8010E94BC
:103060003CC925E2482D6C2DC3010E942B0DC801DF
:103070000E9475C76FEB71E1C8010E943CC9A6E0D0
:10308000CA2ECD0C25E24E2D6C2DC3010E942B0DB6
:10309000C8010E9475C72CED2F0D4AE1490D6C2D1A
:1030A000C3010E945E0D28E04A2D6C2DC3010E94D1
:1030B000960D6CEB71E1C8010E943CC925E2482DD8
:1030C0006C2DC3010E942B0DC8010E9475C760EBD7
:1030D00071E1C8010E943CC997E0D90E25E24E2D4E
:1030E0006D2DC3010E942B0DC8010E9475C72EEEE5
:1030F0002F0D4BE0490D6D2DC3010E945E0D49EF70
:103100004B0D25E06D2DC3010E94960D26960FB63E
:10311000F894DEBF0FBECDBFDF91CF911F910F910D
:10312000FF90EF90DF90CF90BF90AF909F908F90E7
:103130007F906F905F904F9008952F923F924F92A3
:103140005F926F927F928F929F92AF92BF92CF9237
:10315000DF92EF92FF920F931F93CF93DF9300D0F4
:1031600000D0CDB7DEB73C01D62EB42E922E502E15
:1031700065ED72E0CE0101960E94E7C7812CA12C7B
:1031800084E0C82ECE0101967C01292D4B2D6D2D9A
:10319000C3010E945A13C7010E9475C76AEA71E110
:1031A000C7010E943CC992E0E92EEB0CAA24A3942B
:1031B000AD0C8E010F5F1F4F25E24E2D6A2DC3010E
:1031C0000E942B0DC8010E9475C7C52CCB1822EF99
:1031D000822E8C0C37E0932E9B0C282D492D6A2DC6
:1031E000C3010E945E0D49EFF42EF50C25E04F2D32
:1031F0006A2DC3010E94960D60EA71E1C8010E9428
:103200003CC952E0A52EAD0C25E24E2D6A2DC3011E
:103210000E942B0DC8010E9475C76EEE462E4C0C05
:103220007BE0572E5B0C242D452D6A2DC3010E9497
:103230005E0D25E04F2D6A2DC3010E94960D64E9B5
:1032400071E1C8010E943CC9E3E0AE2EAD0C25E25D
:103250004E2D6A2DC3010E942B0DC8010E9475C717
:103260002CEE2C0D4DE04B0D6A2DC3010E945E0D1E
:1032700025E04F2D6A2DC3010E94960D6EE871E185
:10328000C8010E943CC9F4E0AF2EAD0C25E24E2DE2
:103290006A2DC3010E942B0DC8010E9475C7282DFD
:1032A000492D6A2DC3010E945E0D25E04F2D6A2D28
:1032B000C3010E94960D65E871E1C8010E943CC9F6
:1032C000A5E0AA2EAD0C25E24E2D6A2DC3010E9469
:1032D0002B0DC8010E9475C72FEE2C0D4AE04B0D37
:1032E0006A2DC3010E945E0D25E04F2D6A2DC3019A
:1032F0000E94960D6DE771E1C8010E943CC9B6E0DD
:10330000AB2EAD0C25E24E2D6A2DC3010E942B0D74
:10331000C8010E9475C780EF282E2C0C99E0392E29
:103320003B0C222D432D6A2DC3010E945E0D25E02A
:103330004F2D6A2DC3010E94960D66E771E1C80109
:103340000E943CC927E0822E8D0C25E24E2D682D6F
:10335000C3010E942B0DC8010E9475C731EF932E47
:103360009C0C48E0A42EAB0C292D4A2D682DC301DE
:103370000E945E0D25E04F2D682DC3010E94960D21
:103380006EE671E1C8010E943CC958E0852E8D0CA3
:1033900025E24E2D682DC3010E942B0DC8010E940D
:1033A00075C7222D432D682DC3010E945E0D25E0B7
:1033B0004F2D682DC3010E94960D67E671E1C8018B
:1033C0000E943CC969E0862E8D0C25E24E2D682DA9
:1033D000C3010E942B0DC8010E9475C7292D4A2DDB
:1033E000682DC3010E945E0D25E04F2D682DC3019D
:1033F0000E94960D60E671E1C8010E943CC97AE026
:10340000872E8D0C25E24E2D682DC3010E942B0DB9
:10341000C8010E9475C7292D4A2D682DC3010E943D
:103420005E0D25E04F2D682DC3010E94960D69E5C4
:1034300071E1C8010E943CC9EBE08E2E8D0C25E2A3
:103440004E2D682DC3010E942B0DC8010E9475C727
:10345000292D4A2D682DC3010E945E0D25E04F2DB8
:10346000682DC3010E94960D6FE471E1C8010E94AE
:103470003CC9FCE0AF2EAD0C25E24E2D6A2DC301F8
:103480000E942B0DC8010E9475C7242D452D6A2D61
:10349000C3010E945E0D25E04F2D6A2DC3010E94DD
:1034A000960D62E471E1C8010E943CC99DE0D90E0D
:1034B00025E24E2D6D2DC3010E942B0DC8010E94E7
:1034C00075C72BEE2C0D4EE04B0D6D2DC3010E94E8
:1034D0005E0D25E04F2D6D2DC3010E94960D2696A1
:1034E0000FB6F894DEBF0FBECDBFDF91CF911F9115
:1034F0000F91FF90EF90DF90CF90BF90AF909F9093
:103500008F907F906F905F904F903F902F90089595
:103510002F923F924F925F926F927F928F929F92E3
:10352000AF92BF92CF92DF92EF92FF920F931F93D1
:10353000CF93DF9300D000D0CDB7DEB73C01D62EBD
:10354000B42E922E502E6FED72E0CE0101960E94A5
:10355000E7C7812CA12C85E0C82ECE0101967C0105
:10356000292D4B2D6D2DC3010E945A13C7010E94B6
:1035700075C765E371E1C7010E943CC992E0E92E7D
:10358000EB0C882483948D0C8E010F5F1F4F25E276
:103590004E2D682DC3010E942B0DC8010E9475C7D6
:1035A000C52CCB182BEE922E9C0C3EE0A32EAB0C20
:1035B000292D4A2D682DC3010E945E0D49EFF42E7E
:1035C000F50C25E04F2D682DC3010E94960D66E293
:1035D00071E1C8010E943CC952E0852E8D0C25E2A4
:1035E0004E2D682DC3010E942B0DC8010E9475C786
:1035F0002AEE2C0D4FE04B0D682DC3010E945E0D8D
:1036000025E04F2D682DC3010E94960D64E171E104
:10361000C8010E943CC963E0862E8D0C25E24E2D28
:10362000682DC3010E942B0DC8010E9475C727EEAB
:103630002C0D42E14B0D682DC3010E945E0D25E06B
:103640004F2D682DC3010E94960D67E071E1C801FE
:103650000E943CC974E0872E8D0C25E24E2D682D0A
:10366000C3010E942B0DC8010E9475C7292D4A2D48
:10367000682DC3010E945E0D25E04F2D682DC3010A
:103680000E94960D6DEF70E1C8010E943CC9E5E013
:103690008E2E8D0C25E24E2D682DC3010E942B0D20
:1036A000C8010E9475C7FEEE3F2E3C0CABE04A2ECF
:1036B0004B0C232D442D682DC3010E945E0D25E087
:1036C0004F2D682DC3010E94960D62EF70E1C80175
:1036D0000E943CC9B6E08B2E8D0C25E24E2D682D44
:1036E000C3010E942B0DC8010E9475C72DEE2C0D41
:1036F0004CE04B0D682DC3010E945E0D25E04F2D5F
:10370000682DC3010E94960D69ED70E1C8010E9409
:103710003CC987E0882E8D0C25E24E2D682DC30113
:103720000E942B0DC8010E9475C72FED2C0D4AE198
:103730004B0D682DC3010E945E0D25E04F2D682DB5
:10374000C3010E94960D6CEC70E1C8010E943CC957
:1037500098E0892E8D0C25E24E2D682DC3010E9424
:103760002B0DC8010E9475C7292D4A2D682DC30154
:103770000E945E0D25E04F2D682DC3010E94960D1D
:1037800065EC70E1C8010E943CC929E0222E2D0C95
:1037900025E24E2D622DC3010E942B0DC8010E940F
:1037A00075C731EF532E5C0C48E0842E8B0C252D11
:1037B000482D622DC3010E945E0D25E04F2D622D24
:1037C000C3010E94960D68EB70E1C8010E943CC9DC
:1037D0005AE0252E2D0C25E24E2D622DC3010E94AC
:1037E0002B0DC8010E9475C7292D4A2D622DC301DA
:1037F0000E945E0D25E04F2D622DC3010E94960DA3
:103800006EEA70E1C8010E943CC96BE0A62EAD0CC7
:1038100025E24E2D6A2DC3010E942B0DC8010E9486
:1038200075C7232D442D6A2DC3010E945E0D25E02E
:103830004F2D6A2DC3010E94960D66EA70E1C80102
:103840000E943CC97CE0A72EAD0C25E24E2D6A2DCE
:10385000C3010E942B0DC8010E9475C7252D482D5C
:103860006A2DC3010E945E0D25E04F2D6A2DC30114
:103870000E94960D6DE970E1C8010E943CC99DE06F
:10388000D90E25E24E2D6D2DC3010E942B0DC801CE
:103890000E9475C720EF2C0D49E04B0D6D2DC30123
:1038A0000E945E0D25E04F2D6D2DC3010E94960DE7
:1038B00026960FB6F894DEBF0FBECDBFDF91CF9135
:1038C0001F910F91FF90EF90DF90CF90BF90AF903E
:1038D0009F908F907F906F905F904F903F902F9030
:1038E00008956F927F928F929F92AF92BF92CF92E4
:1038F000DF92EF92FF920F931F93CF93DF9300D04D
:1039000000D0CDB7DEB73C01D62EB42E122F902EAC
:103910006EEE72E0CE0101960E94E7C7812CA12CC9
:1039200086E0C82ECE0101967C01212F4B2D6D2DF6
:10393000C3010E945A13C7010E9475C760E970E174
:10394000C7010E943CC992E0E92EEB0CCC24C39441
:10395000CD0C8E010F5F1F4F25E24E2D6C2DC30144
:103960000E942B0DC8010E9475C7F92CFB182EEE82
:103970002F0D4EE04B0D6C2DC3010E945E0D2CEF00
:10398000822E890C22E0482D6C2DC3010E94960DD9
:103990006AE870E1C8010E943CC932E0C32ECD0C38
:1039A00025E24E2D6C2DC3010E942B0DC8010E94F3
:1039B00075C747E0A42EAB0C25EF2F0D4A2D6C2DBB
:1039C000C3010E945E0D22E0482D6C2DC3010E94B0
:1039D000960D61E870E1C8010E943CC953E0C52E14
:1039E000CD0C25E24E2D6C2DC3010E942B0DC8017C
:1039F0000E9475C72AEE2F0D4AE04B0D6C2DC301B6
:103A00000E945E0D44EF490D2AE06C2DC3010E9417
:103A1000960D6CE770E1C8010E943CC964E0C62EB7
:103A2000CD0C25E24E2D6C2DC3010E942B0DC8013B
:103A30000E9475C778EE872E8F0C46E04B0D282D1F
:103A40006C2DC3010E945E0D4EEE490D20E16C2DE0
:103A5000C3010E94960D62E770E1C8010E943CC953
:103A6000E5E0CE2ECD0C25E24E2D6C2DC3010E943B
:103A70002B0DC8010E9475C74BE04B0D282D6C2DF6
:103A8000C3010E945E0D43EF490D2BE06C2DC30175
:103A90000E94960D6CE670E1C8010E943CC996E058
:103AA000D90E25E24E2D6D2DC3010E942B0DC801AC
:103AB0000E9475C723EE2F0D4A2D6D2DC3010E9464
:103AC0005E0D4AEE490D24E16D2DC3010E94960D55
:103AD00026960FB6F894DEBF0FBECDBFDF91CF9113
:103AE0001F910F91FF90EF90DF90CF90BF90AF901C
:103AF0009F908F907F906F9008956F927F928F929A
:103B00009F92AF92BF92CF92DF92EF92FF920F936C
:103B10001F93CF93DF9300D000D0CDB7DEB73C0129
:103B2000D62E942E122FB02E63EE72E0CE010196A7
:103B30000E94E7C7812CA12C87E0C82ECE010196F8
:103B40007C01212F492D6D2DC3010E945A13C701FD
:103B50000E9475C768E570E1C7010E943CC992E008
:103B6000E92EE90CCC24C394CD0C8E010F5F1F4FBE
:103B700025E24E2D6C2DC3010E942B0DC8010E9421
:103B800075C7FB2CF91824EE2F0D45E1490D6C2D5E
:103B9000C3010E945E0D49EF4B0D25E06C2DC30162
:103BA0000E94960D6DE470E1C8010E943CC922E0BC
:103BB000C22ECD0C25E24E2D6C2DC3010E942B0D83
:103BC000C8010E9475C73CE0A32EA90C2FEE2F0D53
:103BD0004A2D6C2DC3010E945E0D4BEF4B0D23E06F
:103BE0006C2DC3010E94960D60E470E1C8010E9433
:103BF0003CC943E0C42ECD0C25E24E2D6C2DC301F3
:103C00000E942B0DC8010E9475C72AEE2F0D4EE0B1
:103C1000490D6C2DC3010E945E0D48EF4B0D26E04F
:103C20006C2DC3010E94960D65E370E1C8010E94EE
:103C30003CC954E0C52ECD0C25E24E2D6C2DC301A0
:103C40000E942B0DC8010E9475C722EE2F0D4A2D30
:103C50006C2DC3010E945E0D4EEE4B0D20E16C2DCC
:103C6000C3010E94960D67E270E1C8010E943CC941
:103C700095E0D90E25E24E2D6D2DC3010E942B0D2E
:103C8000C8010E9475C725EE2F0D4FE0490D6D2D1F
:103C9000C3010E945E0D44EF4B0D2AE06D2DC30160
:103CA0000E94960D26960FB6F894DEBF0FBECDBFCC
:103CB000DF91CF911F910F91FF90EF90DF90CF9008
:103CC000BF90AF909F908F907F906F9008956F926C
:103CD0007F928F92AF92BF92CF92DF92EF92FF923C
:103CE0000F931F93CF93DF9300D000D0CDB7DEB7F3
:103CF0003C01B62ED42E122F69EF72E0CE01019650
:103D00000E94E7C7812CA12CC12CCE0101967C0119
:103D1000212F4D2D6B2DC3010E945A13C7010E9404
:103D200075C784E0F82EFD0C12E01B0D00E021E3C6
:103D30004F2D612FC3010E94D51266E06B0D21E368
:103D40004F2DC3010E94D5124DE04D0D24E0612F8F
:103D5000C3010E94191347E14D0D24E0612FC301F7
:103D60000E94191341E24D0D24E0612FC3010E940E
:103D700019134BE24D0D24E0612FC3010E9419136A
:103D80006FE170E1CE0101960E943CC9FF24F394DB
:103D9000FB0C4FE04D0D8E010F5F1F4F25E26F2D85
:103DA000C3010E942B0DC8010E9475C767E170E135
:103DB000C8010E943CC949E14D0D25E26F2DC301A8
:103DC0000E942B0DC8010E9475C762E170E1C80115
:103DD0000E943CC944E24D0D25E26F2DC3010E94B3
:103DE0002B0DC8010E9475C76BE070E1C8010E94ED
:103DF0003CC94EE24D0D25E26F2DC3010E942B0DF3
:103E0000C8010E9475C763E070E1C8010E943CC907
:103E100095E0D90E63E06B0D25E24D2DC3010E94A4
:103E20002B0DC8010E9475C76BEF7FE0C8010E948F
:103E30003CC964E06B0D25E24D2DC3010E942B0DA2
:103E4000C8010E9475C763EF7FE0C8010E943CC9AA
:103E500065E06B0D25E24D2DC3010E942B0DC801BD
:103E60000E9475C726960FB6F894DEBF0FBECDBF71
:103E7000DF91CF911F910F91FF90EF90DF90CF9046
:103E8000BF90AF908F907F906F9008955F926F92E8
:103E90007F928F929F92AF92BF92CF92DF92EF92DA
:103EA000FF920F931F93CF93DF9300D000D0CDB735
:103EB000DEB73C01B62ED42E922E6FEF72E0CE010B
:103EC00001960E94E7C7812CA12CC12CCE0101963E
:103ED0007C01292D4D2D6B2DC3010E945A13C70162
:103EE0000E9475C782E0E82EED0C92E0F92EFB0CE3
:103EF00000E026E34E2D6F2DC3010E94D51266E02F
:103F00006B0D26E34E2DC3010E94D5124BE04D0DE3
:103F100024E06F2DC3010E94191342E14D0D24E0EE
:103F20006F2DC3010E94191349E14D0D24E06F2D3F
:103F3000C3010E94191341E24D0D24E06F2DC3010E
:103F40000E94191349E24D0D24E06F2DC3010E9418
:103F5000191341E34D0D24E06F2DC3010E94191385
:103F600060EF7FE0CE0101960E943CC92EE0522E08
:103F70005D0CFF24F394FB0C8E010F5F1F4F25E2B5
:103F8000452D6F2DC3010E942B0DC8010E9475C7DE
:103F90006DEE7FE0C8010E943CC935E1832E8D0C97
:103FA00025E2482D6F2DC3010E942B0DC8010E94F0
:103FB00075C769EE7FE0C8010E943CC94CE1942EB0
:103FC0009D0C25E2492D6F2DC3010E942B0DC801C8
:103FD0000E9475C765EE7FE0C8010E943CC954E2AB
:103FE000A52EAD0C25E24A2D6F2DC3010E942B0D8D
:103FF000C8010E9475C761EE7FE0C8010E943CC9FC
:104000006CE2C62ECD0C25E24C2D6F2DC3010E9413
:104010002B0DC8010E9475C76DED7FE0C8010E949D
:104020003CC974E3E72EED0C25E24E2D6F2DC30144
:104030000E942B0DC8010E9475C769ED7FE0C80181
:104040000E943CC993E0D90E63E06B0D25E24D2D33
:10405000C3010E942B0DC8010E9475C763ED7FE06C
:10406000C8010E943CC9E4E0FE2EFB0C25E24D2D68
:104070006F2DC3010E942B0DC8010E9475C76FEC04
:104080007FE0C8010E943CC965E06B0D25E24D2D23
:10409000C3010E942B0DC8010E9475C76BEC7FE025
:1040A000C8010E943CC925E2452D6F2DC3010E9425
:1040B0002B0DC8010E9475C767EC7FE0C8010E9404
:1040C0003CC925E2482D6F2DC3010E942B0DC8016C
:1040D0000E9475C763EC7FE0C8010E943CC925E2DD
:1040E000492D6F2DC3010E942B0DC8010E9475C779
:1040F0006FEB7FE0C8010E943CC925E24A2D6F2D7D
:10410000C3010E942B0DC8010E9475C76BEB7FE0B5
:10411000C8010E943CC925E24C2D6F2DC3010E94AD
:104120002B0DC8010E9475C767EB7FE0C8010E9494
:104130003CC925E24E2D6F2DC3010E942B0DC801F5
:104140000E9475C726960FB6F894DEBF0FBECDBF8E
:10415000DF91CF911F910F91FF90EF90DF90CF9063
:10416000BF90AF909F908F907F906F905F900895D9
:104170006F927F928F92AF92BF92CF92DF92EF9227
:10418000FF920F931F93CF93DF9300D000D0CDB752
:10419000DEB73C01162FD42EB22E61E674E0CE01BC
:1041A00001960E94E7C7812CA12CC12CCE0101965B
:1041B0007C012B2D4D2D612FC3010E945A13C70185
:1041C0000E9475C744E64D0D22E0612FC3010E9495
:1041D00019136FEA7FE0C7010E943CC9FF24F394E2
:1041E000F10E42E04D0D8E010F5F1F4F25E26F2D46
:1041F000C3010E942B0DC8010E9475C767EA7FE0CA
:10420000C8010E943CC94AE04D0D25E26F2DC30153
:104210000E942B0DC8010E9475C76FE97FE0C8019D
:104220000E943CC942E14D0D25E26F2DC3010E9461
:104230002B0DC8010E9475C766E97FE0C8010E9486
:104240003CC94AE14D0D25E26F2DC3010E942B0DA3
:10425000C8010E9475C76DE87FE0C8010E943CC993
:1042600043E24D0D25E26F2DC3010E942B0DC801C5
:104270000E9475C764E87FE0C8010E943CC94CE217
:104280004D0D25E26F2DC3010E942B0DC8010E9428
:1042900075C76BE77FE0C8010E943CC945E34D0D3F
:1042A00025E26F2DC3010E942B0DC8010E9475C726
:1042B00064E77FE0C8010E943CC94EE34D0D25E252
:1042C0006F2DC3010E942B0DC8010E9475C76CE6BB
:1042D0007FE0C8010E943CC947E64D0D25E26F2DE5
:1042E000C3010E942B0DC8010E9475C726960FB608
:1042F000F894DEBF0FBECDBFDF91CF911F910F911C
:10430000FF90EF90DF90CF90BF90AF908F907F9015
:104310006F900895CF92DF92EF92FF920F931F93C9
:10432000CF93DF9300D000D0CDB7DEB77C01D42E81
:10433000C22E662399F0422F6D2D0E94D80D26962D
:104340000FB6F894DEBF0FBECDBFDF91CF911F91A6
:104350000F91FF90EF90DF90CF90089566E57FE09A
:10436000CE0101960E943CC98E010F5F1F4F2FE1C5
:104370004C2D6D2DC7010E942B0DC8010E9475C7E1
:10438000DECF5F926F927F928F929F92AF92BF9299
:10439000CF92DF92EF92FF920F931F93CF93DF9311
:1043A00000D000D0CDB7DEB73C01D62EB42E61E6EA
:1043B00074E0CE0101960E94E7C707E70B0D23E3E7
:1043C0002D0D88248394AA24A394C12CCE01019698
:1043D0007C014B2D6D2DC3010E945A13C7010E9411
:1043E00075C769E47FE0C7010E943CC944E34B0DF7
:1043F00061E06D0D870125E2C3010E942B0DC7010D
:104400000E9475C76EE37FE0C7010E943CC925E2A8
:1044100043E062E0C3010E942B0DC7010E9475C7F3
:1044200086E2582E5B0C9BE0C92ECD0C9924939408
:104430009B0C23E0E22EED0C052D2C2D492D6E2D2D
:10444000C3010E94A0143EE4832E8B0C47E2A42EED
:10445000AB0C082D2C2D4A2D6E2DC3010E94C615C4
:1044600016E71B0D5FE4F52EFB0C012F2C2D4F2DB5
:104470006E2DC3010E9417176AE1E62EED0C7CE059
:10448000C72ECD0C052D2E2D492D6C2DC3010E945C
:104490009D18082D2E2D4A2D6C2DC3010E94881ABF
:1044A00023E12D0D012F4F2D6C2DC3010E94711C96
:1044B00064E16D0D2E2D4F2DC3010E947D1D61E61F
:1044C00074E0CE0101960E94E7C72DE12D0D6BE14E
:1044D0006D0D812CA12CC12CCE0101967C01492DA2
:1044E000C3010E945A13C7010E9475C7E5E2EE2E70
:1044F000ED0CFEE1FF2EFD0C0BE30B0D2E2D492DD7
:104500006F2DC3010E94671E4CE34B0D012F2E2D12
:104510006F2DC3010E94461F28E22D0D66E26D0D2E
:10452000492DC3010E94B8206BE073E0CE010196D3
:104530000E94E7C7CE0101967C0107E721E342E034
:104540006AE2C3010E945A13C7010E9475C76AE359
:104550007FE0C7010E943CC9870125E24EE162E38A
:10456000C3010E942B0DC7010E9475C766E37FE05F
:10457000C7010E943CC925E24EE362E3C3010E94E9
:104580002B0DC7010E9475C762E37FE0C7010E943F
:104590003CC925E24CE562E3C3010E942B0DC70133
:1045A0000E9475C76EE27FE0C7010E943CC925E208
:1045B0004EE163E3C3010E942B0DC7010E9475C742
:1045C0006AE27FE0C7010E943CC925E24EE363E353
:1045D000C3010E942B0DC7010E9475C766E27FE0F0
:1045E000C7010E943CC925E24CE563E3C3010E9478
:1045F0002B0DC7010E9475C762E27FE0C7010E94D0
:104600003CC925E24EE164E3C3010E942B0DC701C2
:104610000E9475C76EE17FE0C7010E943CC925E298
:104620004EE364E3C3010E942B0DC7010E9475C7CE
:104630006AE17FE0C7010E943CC925E24CE564E3E2
:10464000C3010E942B0DC7010E9475C76FE07FE078
:10465000C7010E943CC925E243E063E3C3010E9415
:104660002B0DC7010E9475C76BE07FE0C7010E9458
:104670003CC925E241E163E3C3010E942B0DC70160
:104680000E9475C769E07FE0C7010E943CC925E22E
:1046900045E163E3C3010E942B0DC7010E9475C76A
:1046A00065E07FE0C7010E943CC925E24AE163E37F
:1046B000C3010E942B0DC7010E9475C760EF7EE009
:1046C000C7010E943CC925E240E263E3C3010E94A6
:1046D0002B0DC7010E9475C76DED7EE0C7010E94DA
:1046E0003CC925E240E463E3C3010E942B0DC701EE
:1046F0000E9475C762ED7EE0C7010E943CC925E2B9
:104700004EE563E3C3010E942B0DC7010E9475C7EC
:104710006EEC7EE0C7010E943CC925E241E763E3FD
:10472000C3010E942B0DC7010E9475C761E674E0AA
:10473000C7010E94E7C708E72AE342E065E3C30137
:104740000E945A13C7010E9475C769E57EE0C70140
:104750000E943CC9870125E243E066E3C3010E9451
:104760002B0DC7010E9475C76CEE7DE0C7010E944A
:104770003CC925E243E067E3C3010E942B0DC7015A
:104780000E9475C766E97DE0C7010E943CC925E229
:1047900043E068E3C3010E942B0DC7010E9475C767
:1047A0006FE47DE0C7010E943CC925E243E069E374
:1047B000C3010E942B0DC7010E9475C726960FB634
:1047C000F894DEBF0FBECDBFDF91CF911F910F9147
:1047D000FF90EF90DF90CF90BF90AF909F908F9021
:1047E0007F906F905F9008959F92AF92BF92CF920B
:1047F000DF92EF92FF920F931F93CF93DF93FC0111
:10480000138214828FEF8583868388EF87831086D7
:1048100087E0F82EF18660E462878DEA838785E57C
:1048200084871586D4E0D687178682E8808B118A24
:1048300050E1528B20E6238B88E4848B30E7358B64
:10484000268B378B90E2A92EA08E91E7918FBB2407
:10485000B394B28E938F72E0748F958F43E0C42E21
:10486000C68E978F50A391A3A2E1A2A323A382E3B4
:1048700084A325A384E386A327A386E380A740E837
:1048800041A783E182A743A783E284A745A783E3E7
:1048900086A727A7B6E1B0AB31AB83E782AB23ABEA
:1048A000A4AB81E685AB16AA87AB70AF81AFD2AF60
:1048B00023AFD6E4D4AF85AFD8E3D6AF87AF8F01AF
:1048C000005C1F4FE80168830F5F1F4FE80188837A
:1048D0000F5F1F4FC2E4EC2EE801E8820F5F1F4F0D
:1048E000E80198830F5F1F4FD5E0ED2EE801E882C5
:1048F0000F5F1F4FE80198830F5F1F4FC6E09C2E8C
:10490000E80198820F5F1F4FE80198830F5F1F4FE8
:10491000E801F8820F5F1F4FE80188830F5F1F4F88
:10492000D8E0FD2EE801F8820F5F1F4FE801888371
:104930000F5F1F4FCCE0EC2EE801E8820F5F1F4FA6
:10494000E80188830F5F1F4FE80158830F5F1F4FF7
:10495000E80188830F5F1F4FD4E1DD2EE801D88284
:104960000F5F1F4FE80188830F5F1F4FE801988298
:104970000F5F1F4FE80188830F5F1F4FCAE09C2E17
:10498000E80198820F5F1F4FE80188830F5F1F4F78
:10499000DEE0DD2EE801D8820F5F1F4FE80188833B
:1049A0000F5F1F4FE801A8830F5F1F4FE801888347
:1049B0000F5F1F4FA8E1E801A8830F5F1F4FE801B9
:1049C00088830F5F1F4FACE1E801A8830F5F1F4F83
:1049D000E80188830F5F1F4FE801A8820F5F1F4F18
:1049E000E80188830F5F1F4FA4E2E801A8830F5FEF
:1049F0001F4FE80188830F5F1F4FE801B883DF0175
:104A0000AD59BF4F8C931196CAE1CC9311968C93FC
:104A10001196CEE1CC9311968C93119682E28C93F1
:104A200011969C931196FC9211969C931196C9E055
:104A3000CC9311969C9311969C9211969C931196EF
:104A40008BE08C9311969C931196EC9211969C930B
:104A500011968DE08C9311969C931196DC92119691
:104A60009C9311968FE08C9311962C93119680E372
:104A70008C9311964C931196D3E8DC9311964C933A
:104A800011967C9311969C9311961C9211962C93DF
:104A9000119690E59C9311962C93119694E59C9316
:104AA00011962C93119696E59C9311963C93119632
:104AB00093EB9C93119691E89C931196CC9211964E
:104AC0004C931196BC9211962C931196CC931196FF
:104AD0002C9311963C9311962C93119692E79C93EC
:104AE00011962C93119698E69C9311963C931196EF
:104AF0005C9311963C9311968C9311963C93E656D9
:104B0000FF4F6083DF91CF911F910F91FF90EF9046
:104B1000DF90CF90BF90AF909F900895CF93DF9399
:104B2000EC0130E020E0009719F00E94FFD39C01D7
:104B3000BE01C901DF91CF910895FC012581222397
:104B400039F0F8E02F0290011124820F931F08958D
:104B500090E080E00895EF92FF920F931F93CF9320
:104B6000DF938C017B01FC01C081D181209731F062
:104B7000CE010E949D25E816F906E9F4C7010E94BE
:104B80009D252097D1F020E0009741F09C012C1B3F
:104B90003D0B43E0359527954A95E1F72D83892B09
:104BA00019F4F801D383C283DF91CF911F910F9144
:104BB000FF90EF900895EC01D9CFF80191838083A5
:104BC000EECFCF93DF936115710589F1EB01FC0105
:104BD00080819181009769F1FC01A681B781FE0176
:104BE00001900020E9F73197AF014C1B5D0B30E0DD
:104BF00020E0109749F0FD0101900020E9F79F01A6
:104C0000215031092A1B3B0B4217530769F49E01BF
:104C1000BA016C0F7D1F6217730759F0F9015191AA
:104C20009F014D915417B9F30E949D25D3CF90E079
:104C300080E0DF91CF910895FC01248120782062EB
:104C40002483118210821382128208950097C1F08A
:104C5000FC01248126FF14C080819181009791F08E
:104C60006115710579F0FC012581615071092223DC
:104C700039F0F8E02F0290011124820F931FF0CF3A
:104C800090E080E00895FC0180819181938382838C
:104C90008681978195838483108685858078858732
:104CA0000895CF93DF93DC01EB01EC81FD818A81D4
:104CB0009B810896E817F90740F481E08887F0E0C7
:104CC000E0E0CF01DF91CF9108953897FD83EC8329
:104CD0003097B9F31296CD91DC911397209791F00C
:104CE000CF018C1B9D0B23E0959587952A95E1F7C5
:104CF0008D831396FC93EE9312971582148217827C
:104D00001682DFCF1196FC93EE93F3CFCF93DF9310
:104D1000EC018881998140E050E0BA01009739F0B8
:104D20006A817B810E945126AC016A817B81CB0123
:104D3000BA01DF91CF910895CF93DF93EC01EAA1FF
:104D4000FBA1E80FF91F1282BC016E5F7F4F8881C3
:104D500099810E9471C9882311F01BA21AA28AA10D
:104D60009BA1DF91CF9108951F93CF93DF93EC0127
:104D7000162F8AA19BA10196809780F48AA19BA1FE
:104D80009C012F5F3F4F3BA32AA3C80FD91F1A8353
:104D900081E090E0DF91CF911F910895CE010E94B4
:104DA0009C26892B59F390E080E0F4CF4F925F92DC
:104DB0006F927F928F929F92AF92BF92CF92DF922B
:104DC000EF92FF920F931F93CF93DF93EB01DC01E0
:104DD0002C912B32D9F12D32D1F50196FF24F39489
:104DE000FC01208130ED320F3A3018F02E3209F0FC
:104DF00042C18C0160E070E0CB01F801219130EDFF
:104E0000832E820E39E0381520F16A3949E974079A
:104E1000840749E1940738F5AAE0B0E09B01AC01B2
:104E20000E94BACC912CB12CA12C240135014094C4
:104E3000509460947094461657066806790698F068
:104E4000680D791D8A1D9B1D8F01D7CF0196F12C0E
:104E5000C7CF211108C0FF20E9F16130710581053C
:104E600050E89507A0F0E12CBAE08B2E912CA12CF4
:104E7000B12C6115710530E883079105B0F1A501EA
:104E800094010E9462CCCA01B901E394F2CF2C8153
:104E900020782A602C839B01AC0188279927DC01AC
:104EA000821B930BA40BB50B88839983AA83BB83C6
:104EB0008F2DDF91CF911F910F91FF90EF90DF9099
:104EC000CF90BF90AF909F908F907F906F905F90AA
:104ED0004F9008952C81207828602C8368837983F3
:104EE0008A839B83FF24F394E3CFF801D8012D91AB
:104EF0008D0130ED320F3A3010F4E394F6CF2E32BC
:104F000001F58F010F5F1F4FF8010F5F1F4F2081C9
:104F1000A0EDDA2ED20EB9E0BD1598F06C3CECECA9
:104F20007E07ECE08E07910578F7AAE0B0E09B01E0
:104F3000AC010E94BACC6D0D711D811D911DEA94CA
:104F4000E3CF20812F7D10E000E0253409F05BC025
:104F500021812D32D1F53296CC24C394DF0110E0AB
:104F600000E02E2D0E2C000C330B5AE0B52EFD0167
:104F7000DD9040ED4D0D4A3008F040C0B09EA001DC
:104F8000B19E500D11240D2DDD0C110B0053110994
:104F9000040F151FA801420F531F473251053CF360
:104FA0008C81CC20C9F040E050E060E070E8F11066
:104FB00003C040E050E0BA0180788C608C83488365
:104FC00059836A837B83FC2C73CF2B3219F0319683
:104FD000C12CC4CF3296FCCF40E050E060E87FEFB8
:104FE000F11004C040E050E060E87FE780788C601A
:104FF0008C83488359836A837B8374CFCC2019F0D8
:105000001195019511092081211135C00E0D111D39
:10501000E7FC1A950E9421CE3CE5C32E33E0D32E47
:10502000101611063CF011950195110944E4C42EA7
:1050300043E0D42EE12C0115110591F000FF0CC0C6
:1050400024E0E29EF0011124EC0DFD1D2591359127
:10505000459154910E943ACF15950795E394EBCF73
:10506000F11090582C8120782C602C8368837983F0
:105070008A839B8337CFF12C1BCFCF93DF9300D054
:1050800000D0CDB7DEB7FC0184818F77843039F052
:10509000853091F01A8219821C821B8208C082819D
:1050A0009381208131813A8329839C838B8381E0A2
:1050B00090E09E838D830AC082819381208131811B
:1050C0003A8329839C838B831E821D8229813A81A6
:1050D0004B815C816D817E8180E090E026960FB6E9
:1050E000F894DEBF0FBECDBFDF91CF910895DC01F4
:1050F000ED91FC9111978281938113969C938E93ED
:1051000012972481358182819381281B390B179650
:105110003C932E93169715961C921E921497232B50
:1051200011F481E080870895FC0124813581A90173
:105130004F5F5F4F868197814817590748F48281F6
:10514000938155834483FC01E20FF31F608308952C
:105150000190F081E02D81E080870895FC01CB0172
:10516000985D8115944028F473707183608380E0AA
:105170000895CB019C5D8115944088F4808140E0C6
:10518000582F550F550F7370642B752B90E080E0EE
:105190000196628373838483958381E00895AB01D4
:1051A00070E060E04283538364837583F6CF089A8E
:1051B0001098099A119824982C9A25982D9A269837
:1051C0002E9A27982F9A6A9A729A6B9A73986C986B
:1051D00074986D98759A6E98769A6F9A7798A1E000
:1051E000B1E08C9188608C93E2E0F1E08081877F70
:1051F00080838C9180618C9380818F7E80838C9161
:105200008F7D8C9380818F7D80838C9180648C9343
:1052100080818F7B80838C9180688C9380818F7755
:105220008083A4E0B1E08C918B7F8C93E5E0F1E08A
:1052300080818B7F80838C91877F8C938081877F17
:1052400080838C918F7E8C9380818F7E80838C91E4
:1052500080628C9380818F7D80838C9180648C931D
:1052600080818F7B80838C9180688C9380818F7705
:105270008083E7E0F1E080818E7F808380818D7F75
:10528000808380818B7F80838081877F8083808102
:105290008F7E808380818F7D808380818F7B8083E0
:1052A00080818F778083E8E0F1E080818E7F80834A
:1052B00080818D7F808380818B7F80838081877FC9
:1052C000808380818F7E808380818F7D80838081B9
:1052D0008F7B808380818F778083AAE0B1E08C917F
:1052E00081608C93EBE0F1E080818E7F80838C91F4
:1052F00082608C9380818D7F80838C9184608C937D
:1053000080818B7F80838C9188608C938081877F64
:10531000808308958F929F92AF92BF92FF920F93D6
:105320001F93CF93DF9300D000D0CDB7DEB790911D
:105330000501906490930501CB0164E670E00E9442
:105340003ACC862E912CB12CA12C9AE0F92E6BE44C
:105350007DE0CE0101960E943CC98E010F5F1F4F78
:1053600025E24F2D6DE180E99FE00E942B0DC801E1
:105370000E9475C7C501B4010E94E1CAF3948EE68C
:10538000F812E5CF809105018F7B809305018AE0BB
:10539000F82E69E47DE0CE0101960E943CC98E01A1
:1053A0000F5F1F4F25E24F2D6DE180E99FE00E94C6
:1053B0002B0DC8010E9475C7F3948EE6F812E9CF51
:1053C00026960FB6F894DEBF0FBECDBFDF91CF910A
:1053D0001F910F91FF90BF90AF909F908F90089575
:1053E000CF93DF93EC0188819981DC01ED91FC91F1
:1053F0000084F185E02D1995A881B981ED91FC918A
:1054000011971816190664F40284F385E02DCD0176
:10541000199565E070E080E090E00E94E1CAE3CF7A
:105420000680F781E02DCD01199565E070E080E000
:1054300090E0DF91CF910C94E1CA4F925F926F920E
:105440007F92AF92BF92CF92DF92EF92FF920F9333
:105450001F93CF93DF93CDB7DEB7CF5FD1090FB6E0
:10546000F894DEBF0FBECDBF7C010E94F029CE01B3
:1054700001965C018FEFD5011D928A95E9F764E1F1
:1054800070E080E090E00E94E1CA66E47DE0F70110
:10549000808191810E9441C263E47DE0D7018D91BA
:1054A0009C910E9441C20E9482CA2B013C016AE089
:1054B00070E080E090E00E94E1CA10E000E0D12CB2
:1054C000CD2CD11028C0F70180819181DC01ED91B4
:1054D000FC910284F385E02D1995F501E00FF11F91
:1054E0008083FE01E00FF11F90819F3421F48B3403
:1054F00011F4DD24D39480528F3510F40F5F1F4FC9
:105500000E9482CA6419750986099709683E73402A
:1055100081059105A8F28C2DC150DF4F0FB6F8948C
:10552000DEBF0FBECDBFDF91CF911F910F91FF90D6
:10553000EF90DF90CF90BF90AF907F906F905F9093
:105540004F9008954F925F926F927F92AF92BF9269
:10555000CF92DF92EF92FF920F931F93CF93DF933F
:10556000CDB7DEB7CF5FD1090FB6F894DEBF0FBE5F
:10557000CDBF8C01F62E0E94F029CE0101965C0170
:105580008FEFD5011D928A95E9F764E170E080E024
:1055900090E00E94E1CA6FE37DE0F8018081918193
:1055A0000E9441C26F2D70E04AE050E0D8018D9119
:1055B0009C910E9455C36CE37DE0F801808191814C
:1055C0000E9441C20E9482CA2B013C016AE070E045
:1055D00080E090E00E94E1CAF12CE12CD12CCD2C8E
:1055E000D11029C0D8018D919C91DC01ED91FC91E5
:1055F0000284F385E02D1995F501EE0DFF1D8083E2
:10560000FE01EE0DFF1D90819F3421F48B3411F4C7
:10561000DD24D39480528F3518F4BFEFEB1AFB0AC8
:105620000E9482CA6419750986099709683E734009
:1056300081059105A0F28C2DC150DF4F0FB6F89473
:10564000DEBF0FBECDBFDF91CF911F910F91FF90B5
:10565000EF90DF90CF90BF90AF907F906F905F9072
:105660004F9008954F925F926F927F92BF92CF9228
:10567000DF92EF92FF920F931F93CF93DF93CDB7FB
:10568000DEB7CF5FD1090FB6F894DEBF0FBECDBF36
:10569000633008F061C0F62E8C010E94F029CE0123
:1056A00001966C018FEFD6011D928A95E9F764E1AE
:1056B00070E080E090E00E94E1CA63E37DE0F801E1
:1056C000808191810E9441C24AE050E06F2DD80153
:1056D0008D919C910E9469C360E37DE0F801808117
:1056E00091810E9441C20E9482CA2B013C016AE062
:1056F00070E080E090E00E94E1CAF12CE12CB12C36
:105700008B2DB1102AC0D8018D919C91DC01ED91B7
:10571000FC910284F385E02D1995F601EE0DFF1D35
:105720008083FE01EE0DFF1D90819F3421F48B34A8
:1057300011F4BB24B39480528F3518F4BFEFEB1AE9
:10574000FB0A0E9482CA6419750986099709683E96
:10575000734081059105A0F280E0C150DF4F0FB684
:10576000F894DEBF0FBECDBFDF91CF911F910F9197
:10577000FF90EF90DF90CF90BF907F906F905F9001
:105780004F9008954F925F926F927F92AF92BF9227
:10579000CF92DF92EF92FF920F931F93CF93DF93FD
:1057A000CDB7DEB7CF5FD1090FB6F894DEBF0FBE1D
:1057B000CDBF8C01F62E0E94F029CE0101965C012E
:1057C0008FEFD5011D928A95E9F764E170E080E0E2
:1057D00090E00E94E1CA65E27DE0F801808191815C
:1057E0000E9441C24AE050E06F2DD8018D919C91FA
:1057F0000E9469C362E27DE0F801808191810E948C
:1058000041C20E9482CA2B013C016AE070E080E044
:1058100090E00E94E1CAF12CE12CD12CCD2CD110CA
:1058200029C0D8018D919C91DC01ED91FC910284FD
:10583000F385E02D1995F501EE0DFF1D8083FE0126
:10584000EE0DFF1D90819F3421F48B3411F4DD2483
:10585000D39480528F3518F4BFEFEB1AFB0A0E94E5
:1058600082CA6419750986099709683E73408105E3
:105870009105A0F28C2DC150DF4F0FB6F894DEBF1A
:105880000FBECDBFDF91CF911F910F91FF90EF9091
:10589000DF90CF90BF90AF907F906F905F904F90D0
:1058A00008954F925F926F927F92AF92BF92CF9284
:1058B000DF92EF92FF920F931F93CF93DF93CDB7B9
:1058C000DEB7CF5FD1090FB6F894DEBF0FBECDBFF4
:1058D0008C01F62E0E94F029CE0101965C018FEF1B
:1058E000D5011D928A95E9F764E170E080E090E0CF
:1058F0000E94E1CA6DE17DE0F801808191810E9402
:1059000041C24AE050E06F2DD8018D919C910E94D8
:1059100069C36AE17DE0F801808191810E9441C202
:105920000E9482CA2B013C016AE070E080E090E0B6
:105930000E94E1CAF12CE12CD12CCD2CD11029C030
:10594000D8018D919C91DC01ED91FC910284F3854D
:10595000E02D1995F501EE0DFF1D8083FE01EE0D82
:10596000FF1D90819F3421F48B3411F4DD24D394F6
:1059700080528F3518F4BFEFEB1AFB0A0E9482CADF
:105980006419750986099709683E73408105910578
:10599000A0F28C2DC150DF4F0FB6F894DEBF0FBEC2
:1059A000CDBFDF91CF911F910F91FF90EF90DF90CE
:1059B000CF90BF90AF907F906F905F904F90089581
:1059C0004F925F926F927F928F929F92AF92BF920F
:1059D000CF92DF92EF92FF920F931F93CF93DF93BB
:1059E000CDB7DEB7CF5FD1090FB6F894DEBF0FBEDB
:1059F000CDBF6C018B010E94F029CE0101965C01A4
:105A00008FEFD5011D928A95E9F764E170E080E09F
:105A100090E00E94E1CA61E17DE0F6018081918120
:105A20000E9441C26EE07DE0D6018D919C910E9462
:105A300041C20E9482CA2B013C016AE070E080E012
:105A400090E00E94E1CAF12CE12C812C982C81106D
:105A500042C0F60180819181DC01ED91FC910284CC
:105A6000F385E02D1995F501EE0DFF1D8083FE01F4
:105A7000EE0DFF1D90819F3421F48B3411F48824A6
:105A8000839480528F3518F4BFEFEB1AFB0A0E9403
:105A900082CA6419750986099709683873418105B6
:105AA0009105A0F2892DC150DF4F0FB6F894DEBFEB
:105AB0000FBECDBFDF91CF911F910F91FF90EF905F
:105AC000DF90CF90BF90AF909F908F907F906F901E
:105AD0005F904F900895D8011C92FE0135979E016A
